{"contracts/ContributionTracker.sol":{"ContributionTracker":{"abi":[{"inputs":[{"internalType":"address","name":"initialOwner","type":"address"}],"stateMutability":"nonpayable","type":"constructor"},{"inputs":[],"name":"EnforcedPause","type":"error"},{"inputs":[],"name":"ExpectedPause","type":"error"},{"inputs":[{"internalType":"address","name":"owner","type":"address"}],"name":"OwnableInvalidOwner","type":"error"},{"inputs":[{"internalType":"address","name":"account","type":"address"}],"name":"OwnableUnauthorizedAccount","type":"error"},{"inputs":[],"name":"ReentrancyGuardReentrantCall","type":"error"},{"anonymous":false,"inputs":[{"indexed":true,"internalType":"bytes32","name":"sessionId","type":"bytes32"},{"indexed":false,"internalType":"uint256","name":"nodeCount","type":"uint256"},{"indexed":false,"internalType":"uint96","name":"timestamp","type":"uint96"}],"name":"BatchContributionRecorded","type":"event"},{"anonymous":false,"inputs":[{"indexed":true,"internalType":"bytes32","name":"sessionId","type":"bytes32"},{"indexed":true,"internalType":"address","name":"nodeAddress","type":"address"},{"indexed":false,"internalType":"uint96","name":"computeTime","type":"uint96"},{"indexed":false,"internalType":"uint32","name":"gradientsAccepted","type":"uint32"},{"indexed":false,"internalType":"uint32","name":"successfulRounds","type":"uint32"},{"indexed":false,"internalType":"uint32","name":"qualityScore","type":"uint32"}],"name":"ContributionRecorded","type":"event"},{"anonymous":false,"inputs":[{"indexed":true,"internalType":"address","name":"coordinator","type":"address"},{"indexed":false,"internalType":"bool","name":"status","type":"bool"}],"name":"CoordinatorAuthorized","type":"event"},{"anonymous":false,"inputs":[{"indexed":true,"internalType":"address","name":"previousOwner","type":"address"},{"indexed":true,"internalType":"address","name":"newOwner","type":"address"}],"name":"OwnershipTransferred","type":"event"},{"anonymous":false,"inputs":[{"indexed":false,"internalType":"address","name":"account","type":"address"}],"name":"Paused","type":"event"},{"anonymous":false,"inputs":[{"indexed":false,"internalType":"address","name":"account","type":"address"}],"name":"Unpaused","type":"event"},{"inputs":[{"internalType":"address","name":"","type":"address"}],"name":"authorizedCoordinators","outputs":[{"internalType":"bool","name":"","type":"bool"}],"stateMutability":"view","type":"function"},{"inputs":[{"internalType":"bytes32","name":"","type":"bytes32"},{"internalType":"address","name":"","type":"address"}],"name":"contributions","outputs":[{"internalType":"uint96","name":"computeTime","type":"uint96"},{"internalType":"uint32","name":"gradientsAccepted","type":"uint32"},{"internalType":"uint32","name":"successfulRounds","type":"uint32"},{"internalType":"uint32","name":"qualityScore","type":"uint32"},{"internalType":"uint96","name":"lastUpdated","type":"uint96"}],"stateMutability":"view","type":"function"},{"inputs":[{"internalType":"bytes32","name":"_sessionId","type":"bytes32"},{"internalType":"address","name":"_nodeAddress","type":"address"}],"name":"getContribution","outputs":[{"components":[{"internalType":"uint96","name":"computeTime","type":"uint96"},{"internalType":"uint32","name":"gradientsAccepted","type":"uint32"},{"internalType":"uint32","name":"successfulRounds","type":"uint32"},{"internalType":"uint32","name":"qualityScore","type":"uint32"},{"internalType":"uint96","name":"lastUpdated","type":"uint96"}],"internalType":"struct ContributionTracker.Contribution","name":"","type":"tuple"}],"stateMutability":"view","type":"function"},{"inputs":[{"internalType":"bytes32","name":"_sessionId","type":"bytes32"},{"internalType":"address","name":"_nodeAddress","type":"address"}],"name":"getContributionPercentage","outputs":[{"internalType":"uint256","name":"","type":"uint256"}],"stateMutability":"view","type":"function"},{"inputs":[{"internalType":"bytes32","name":"_sessionId","type":"bytes32"},{"internalType":"address[]","name":"_nodeAddresses","type":"address[]"}],"name":"getContributionsBatch","outputs":[{"components":[{"internalType":"uint96","name":"computeTime","type":"uint96"},{"internalType":"uint32","name":"gradientsAccepted","type":"uint32"},{"internalType":"uint32","name":"successfulRounds","type":"uint32"},{"internalType":"uint32","name":"qualityScore","type":"uint32"},{"internalType":"uint96","name":"lastUpdated","type":"uint96"}],"internalType":"struct ContributionTracker.Contribution[]","name":"","type":"tuple[]"}],"stateMutability":"view","type":"function"},{"inputs":[{"internalType":"bytes32","name":"_sessionId","type":"bytes32"}],"name":"getSessionContributors","outputs":[{"internalType":"address[]","name":"","type":"address[]"}],"stateMutability":"view","type":"function"},{"inputs":[{"internalType":"bytes32","name":"_sessionId","type":"bytes32"}],"name":"getSessionTotal","outputs":[{"components":[{"internalType":"uint96","name":"totalComputeTime","type":"uint96"},{"internalType":"uint32","name":"totalGradients","type":"uint32"},{"internalType":"uint32","name":"totalRounds","type":"uint32"},{"internalType":"uint32","name":"participantCount","type":"uint32"}],"internalType":"struct ContributionTracker.SessionContribution","name":"","type":"tuple"}],"stateMutability":"view","type":"function"},{"inputs":[{"internalType":"bytes32","name":"","type":"bytes32"},{"internalType":"address","name":"","type":"address"}],"name":"hasContributed","outputs":[{"internalType":"bool","name":"","type":"bool"}],"stateMutability":"view","type":"function"},{"inputs":[],"name":"owner","outputs":[{"internalType":"address","name":"","type":"address"}],"stateMutability":"view","type":"function"},{"inputs":[],"name":"pause","outputs":[],"stateMutability":"nonpayable","type":"function"},{"inputs":[],"name":"paused","outputs":[{"internalType":"bool","name":"","type":"bool"}],"stateMutability":"view","type":"function"},{"inputs":[{"internalType":"bytes32","name":"_sessionId","type":"bytes32"},{"internalType":"address","name":"_nodeAddress","type":"address"},{"internalType":"uint96","name":"_computeTime","type":"uint96"},{"internalType":"uint32","name":"_gradientsAccepted","type":"uint32"},{"internalType":"uint32","name":"_successfulRounds","type":"uint32"},{"internalType":"uint32","name":"_qualityScore","type":"uint32"}],"name":"recordContribution","outputs":[],"stateMutability":"nonpayable","type":"function"},{"inputs":[{"internalType":"bytes32","name":"_sessionId","type":"bytes32"},{"internalType":"address[]","name":"_nodeAddresses","type":"address[]"},{"internalType":"uint96[]","name":"_computeTimes","type":"uint96[]"},{"internalType":"uint32[]","name":"_gradientsAccepted","type":"uint32[]"},{"internalType":"uint32[]","name":"_successfulRounds","type":"uint32[]"},{"internalType":"uint32[]","name":"_qualityScores","type":"uint32[]"}],"name":"recordContributionsBatch","outputs":[],"stateMutability":"nonpayable","type":"function"},{"inputs":[],"name":"renounceOwnership","outputs":[],"stateMutability":"nonpayable","type":"function"},{"inputs":[{"internalType":"bytes32","name":"","type":"bytes32"},{"internalType":"uint256","name":"","type":"uint256"}],"name":"sessionContributors","outputs":[{"internalType":"address","name":"","type":"address"}],"stateMutability":"view","type":"function"},{"inputs":[{"internalType":"bytes32","name":"","type":"bytes32"}],"name":"sessionTotals","outputs":[{"internalType":"uint96","name":"totalComputeTime","type":"uint96"},{"internalType":"uint32","name":"totalGradients","type":"uint32"},{"internalType":"uint32","name":"totalRounds","type":"uint32"},{"internalType":"uint32","name":"participantCount","type":"uint32"}],"stateMutability":"view","type":"function"},{"inputs":[{"internalType":"address","name":"_coordinator","type":"address"},{"internalType":"bool","name":"_status","type":"bool"}],"name":"setCoordinatorAuthorization","outputs":[],"stateMutability":"nonpayable","type":"function"},{"inputs":[{"internalType":"address","name":"newOwner","type":"address"}],"name":"transferOwnership","outputs":[],"stateMutability":"nonpayable","type":"function"},{"inputs":[],"name":"unpause","outputs":[],"stateMutability":"nonpayable","type":"function"}],"evm":{"bytecode":{"linkReferences":{},"object":"6080346100d657601f61187838819003918201601f19168301916001600160401b038311848410176100db578084926020946040528339810103126100d657516001600160a01b0390818116908190036100d65780156100bd57600080546001600160a01b03198116831782556040805194909391167f8be0079c531659141344cd1fd0a4f28419497f9722a3daafe3b4186f6b6457e08380a360018055338152600660205220600160ff1982541617905561178690816100f28239f35b604051631e4fbdf760e01b815260006004820152602490fd5b600080fd5b634e487b7160e01b600052604160045260246000fdfe608080604052600436101561001357600080fd5b60003560e01c9081631ac44b95146111e6575080633f4ba83a1461117457806352269f3a14611122578063531cc84714610b355780635414c64914610a6a578063575adac9146108f05780635c975abb146108ca5780636693643f14610827578063674e1d45146107e8578063715018a61461078f5780638042c16c146106d75780638456cb59146106755780638da5cb5b1461064c578063cc5ec54a146105a2578063d57e39ef14610574578063d8a3950e14610527578063e1e96745146104d0578063f2fde38b146104475763f31922ee146100f057600080fd5b346104425760c036600319011261044257610109611268565b6001600160601b0360443516604435036104425763ffffffff60643516606435036104425763ffffffff60843516608435036104425763ffffffff60a4351660a435036104425733600052600660205260ff60406000205416801561042e575b61017290611392565b61017a611521565b61018e6001600160a01b03821615156113de565b6101a461271063ffffffff60a435161115611421565b60043560008181526005602090815260408083206001600160a01b0386168085529083528184205494845260028352818420908452909152902080549160ff1615906001906102486102286001600160601b0361020560443582891661146d565b166001600160601b03198097161780845563ffffffff6064359160601c1661149e565b825463ffffffff60601b191660609190911b63ffffffff60601b16178255565b61028161026160843563ffffffff845460801c1661149e565b825463ffffffff60801b191660809190911b63ffffffff60801b16178255565b805463ffffffff60a01b191660a43560a01b63ffffffff60a01b16178155016001600160601b03421683825416179055600435600052600360205261031a6102fa6040600020938454906001600160601b036102e160443582851661146d565b1691161780855563ffffffff6064359160601c1661149e565b835463ffffffff60601b191660609190911b63ffffffff60601b16178355565b61035361033360843563ffffffff855460801c1661149e565b835463ffffffff60801b191660809190911b63ffffffff60801b16178355565b6103a9575b506040516001600160a01b0390911690600435907f33595b97d9534ad768a7d3ee9a34e23be3c0c6dd3e52c78c96c3c6032798d99c90806103a460a43560843560643560443585611336565b0390a3005b610428906004356000526005602052604060002060018060a01b0384166000526020526040600020600160ff1982541617905560043560005260046020526103f58360406000206114b6565b61040863ffffffff825460a01c1661150c565b815463ffffffff60a01b191660a09190911b63ffffffff60a01b16179055565b38610358565b506000546001600160a01b03163314610169565b600080fd5b346104425760203660031901126104425761046061127e565b610468611366565b6001600160a01b039081169081156104b757600054826001600160601b0360a01b821617600055167f8be0079c531659141344cd1fd0a4f28419497f9722a3daafe3b4186f6b6457e0600080a3005b604051631e4fbdf760e01b815260006004820152602490fd5b3461044257602036600319011261044257600435600052600360205261052360406000205460405191829163ffffffff808260a01c16916001600160601b03828260801c16928260601c16911685611336565b0390f35b3461044257604036600319011261044257610540611268565b600435600052600560205260406000209060018060a01b0316600052602052602060ff604060002054166040519015158152f35b3461044257604036600319011261044257602061059a610592611268565b60043561164b565b604051908152f35b3461044257602036600319011261044257600060606040516105c3816115b6565b8281528260208201528260408201520152600435600052600360205260806040600020604051906105f3826115b6565b54906001600160601b038216918282526020820163ffffffff92838092818560601c168152816060604085019482888c1c168652019560a01c168552604051968752511660208601525116604084015251166060820152f35b34610442576000366003190112610442576000546040516001600160a01b039091168152602090f35b346104425760003660031901126104425761068e611366565b610696611521565b6000805460ff60a01b1916600160a01b1790556040513381527f62e78cea01bee320cd4e420270b5ea74000d11b0c9f74754ebdbfc544b05a25890602090a1005b34610442576020806003193601126104425760043560005260048152604060002060405190818382549182815201908192600052846000209060005b86828210610772578686610729828803836115d2565b604051928392818401908285525180915260408401929160005b82811061075257505050500390f35b83516001600160a01b031685528695509381019392810192600101610743565b83546001600160a01b031685529093019260019283019201610713565b34610442576000366003190112610442576107a8611366565b600080546001600160a01b0319811682556001600160a01b03167f8be0079c531659141344cd1fd0a4f28419497f9722a3daafe3b4186f6b6457e08280a3005b34610442576020366003190112610442576001600160a01b0361080961127e565b166000526006602052602060ff604060002054166040519015158152f35b3461044257604036600319011261044257610840611268565b6108486115f4565b50600435600052600260205260406000209060018060a01b031660005260205260a060406000206040519061087c8261159a565b60018154916001600160601b0392838116855263ffffffff90818160601c166020870152818160801c166040870152861c16606085015201541660808201526108c860405180926112f3565bf35b3461044257600036600319011261044257602060ff60005460a01c166040519015158152f35b346104425760403660031901126104425760043560243567ffffffffffffffff8111610442576109249036906004016112c2565b919061092f8361161f565b9261093d60405194856115d2565b808452601f1961094c8261161f565b0160005b818110610a5357505060005b8181106109ae5760408051602080825287518183018190528189019383019160005b82811061098b5784840385f35b9091928260a08261099f6001948a516112f3565b0196019101949291909461097e565b610a4e9084600052602060028152604060002060018060a01b036109db6109d685888a611551565b611561565b1660005281526040600020604051916109f38361159a565b60018254926001600160601b0392838516865263ffffffff6060918187841c16908801526080958181881c16604089015260a01c169086015201541690820152610a3d8288611637565b52610a488187611637565b50611542565b61095c565b602090610a5e6115f4565b82828901015201610950565b3461044257604036600319011261044257610a8361127e565b6024359081151580920361044257610a99611366565b6001600160a01b0316908115610af05760207fa755b73ca9ab5908508aef0b2cde25ffc1caf1b79f4833e57436d517461ca6be918360005260068252604060002060ff1981541660ff8316179055604051908152a2005b60405162461bcd60e51b815260206004820152601b60248201527f496e76616c696420636f6f7264696e61746f72206164647265737300000000006044820152606490fd5b346104425760c03660031901126104425767ffffffffffffffff60243581811161044257610b679036906004016112c2565b909160443581811161044257610b819036906004016112c2565b919060643582811161044257610b9b9036906004016112c2565b91909260843581811161044257610bb69036906004016112c2565b94909160a43590811161044257610bd19036906004016112c2565b96909333600052600660205260ff60406000205416801561110e575b610bf690611392565b610bfe611521565b6002600154146110fc57600260015588156110c857818914806110bf575b806110b6575b806110ad575b15611070576004356000526003602052604060002060005b8a8110610c8b578a6040519081526001600160601b03421660208201527fab19893044184827ba83c537699c1adfe2bd41731886bffb842eafafd107ae68604060043592a260018055005b808080898f8f8f918f918f90868f8f928f8f92610cac858099948195611551565b610cb590611561565b9a610cca6001600160a01b038d1615156113de565b610cd5848c83611551565b610cde90611575565b63ffffffff166127101015610cf290611421565b60043560005260056020526040600020600160a01b600190038d166000526020528360406000205460ff16159b60043560005260026020528d604060002090600160a01b6001900316600052602052604060002093828d610d5482898c611551565b610d5d90611586565b8d8d848a54936001600160601b03851690610d779161146d565b6001600160601b031692836001600160601b03198616178c55610d9992611551565b610da290611575565b916001600160601b0319161760601c63ffffffff1690610dc19161149e565b875463ffffffff60601b191660609190911b63ffffffff60601b16178755610de892611551565b610df190611575565b845460801c63ffffffff1690610e069161149e565b845463ffffffff60801b191660809190911b63ffffffff60801b16178455610e2d92611551565b610e3690611575565b815463ffffffff60a01b191660a09190911b63ffffffff60a01b1617815560010180546bffffffffffffffffffffffff19166001600160601b034216179055610e7e92611551565b610e8790611586565b8c5490610e9d906001600160601b03831661146d565b6001600160601b0316906001600160601b0319161792838d55610ebf92611551565b610ec890611575565b9060601c63ffffffff1690610edc9161149e565b895463ffffffff60601b191660609190911b63ffffffff60601b16178955610f04918d611551565b610f0d90611575565b875460801c63ffffffff1690610f229161149e565b875463ffffffff60801b191660809190911b63ffffffff60801b16178755610fed575b8d8d8d610f53858c8c611551565b610f5c90611586565b94610f67918d611551565b610f7090611575565b94610f7b918d611551565b610f8490611575565b94610f8f918d611551565b610f9890611575565b6040516001600160a01b03909216946004359492938493610fbb93929185611336565b037f33595b97d9534ad768a7d3ee9a34e23be3c0c6dd3e52c78c96c3c6032798d99c91a3610fe890611542565b610c40565b6004356000526005602052604060002060018060a01b0382166000526020526040600020600160ff1982541617905560043560005260046020526110358160406000206114b6565b61106b61104b63ffffffff885460a01c1661150c565b875463ffffffff60a01b191660a09190911b63ffffffff60a01b16178755565b610f45565b60405162461bcd60e51b8152602060048201526015602482015274082e4e4c2f240d8cadccee8d040dad2e6dac2e8c6d605b1b6044820152606490fd5b50878914610c28565b50868914610c22565b50858914610c1c565b60405162461bcd60e51b815260206004820152600c60248201526b456d7074792061727261797360a01b6044820152606490fd5b604051633ee5aeb560e01b8152600490fd5b506000546001600160a01b03163314610bed565b34610442576040366003190112610442576024356004356000526004602052604060002080548210156104425760209161115b91611294565b905460405160039290921b1c6001600160a01b03168152f35b346104425760003660031901126104425761118d611366565b60005460ff8160a01c16156111d45760ff60a01b19166000556040513381527f5db9ee0a495bf2e6ff9c91a7834c1ba4fdd244a5e8aa4e537bd38aeae4b073aa90602090a1005b604051638dfc202b60e01b8152600490fd5b346104425760403660031901126104425760a090611202611268565b6004356000526002602052604060002090600180851b0316600052602052600160406000208054906001600160601b03928391015416918116835263ffffffff90818160601c166020850152818160801c166040850152841c1660608301526080820152f35b602435906001600160a01b038216820361044257565b600435906001600160a01b038216820361044257565b80548210156112ac5760005260206000200190600090565b634e487b7160e01b600052603260045260246000fd5b9181601f840112156104425782359167ffffffffffffffff8311610442576020808501948460051b01011161044257565b608090816001600160601b039182815116855263ffffffff8060208301511660208701528060408301511660408701526060820151166060860152015116910152565b6001600160601b03909116815263ffffffff91821660208201529181166040830152909116606082015260800190565b6000546001600160a01b0316330361137a57565b60405163118cdaa760e01b8152336004820152602490fd5b1561139957565b60405162461bcd60e51b815260206004820152601a60248201527f4e6f7420617574686f72697a656420636f6f7264696e61746f720000000000006044820152606490fd5b156113e557565b60405162461bcd60e51b8152602060048201526014602482015273496e76616c6964206e6f6465206164647265737360601b6044820152606490fd5b1561142857565b60405162461bcd60e51b815260206004820152601a60248201527f5175616c6974792073636f7265206f7574206f662072616e67650000000000006044820152606490fd5b9190916001600160601b038080941691160191821161148857565b634e487b7160e01b600052601160045260246000fd5b91909163ffffffff8080941691160191821161148857565b8054680100000000000000008110156114f6576114d891600182018155611294565b819291549060031b9160018060a01b03809116831b921b1916179055565b634e487b7160e01b600052604160045260246000fd5b63ffffffff8091169081146114885760010190565b60ff60005460a01c1661153057565b60405163d93c066560e01b8152600490fd5b60001981146114885760010190565b91908110156112ac5760051b0190565b356001600160a01b03811681036104425790565b3563ffffffff811681036104425790565b356001600160601b03811681036104425790565b60a0810190811067ffffffffffffffff8211176114f657604052565b6080810190811067ffffffffffffffff8211176114f657604052565b90601f8019910116810190811067ffffffffffffffff8211176114f657604052565b604051906116018261159a565b60006080838281528260208201528260408201528260608201520152565b67ffffffffffffffff81116114f65760051b60200190565b80518210156112ac5760209160051b010190565b9060009180835260036020526040918284209083519161166a836115b6565b54906001600160601b039384831680855263ffffffff8481809660601c166020880152818160801c168988015260a01c1660608601521561174757865260026020528486209060018060a01b0316865260205260808360018688208751946116d18661159a565b8154848116998a8852828260601c1660208901528282881c169088015260a01c1660608601520154169101526127109283810293818504149015171561173357511691821561171f57500490565b634e487b7160e01b81526012600452602490fd5b634e487b7160e01b84526011600452602484fd5b5050505050509056fea2646970667358221220dfb99e7ed9d7fbd5fa7c93214736c0d2928db8dd5d34178f3af0b0dacf07c1f064736f6c63430008140033","opcodes":"PUSH1 0x80 CALLVALUE PUSH2 0xD6 JUMPI PUSH1 0x1F PUSH2 0x1878 CODESIZE DUP2 SWAP1 SUB SWAP2 DUP3 ADD PUSH1 0x1F NOT AND DUP4 ADD SWAP2 PUSH1 0x1 PUSH1 0x1 PUSH1 0x40 SHL SUB DUP4 GT DUP5 DUP5 LT OR PUSH2 0xDB JUMPI DUP1 DUP5 SWAP3 PUSH1 0x20 SWAP5 PUSH1 0x40 MSTORE DUP4 CODECOPY DUP2 ADD SUB SLT PUSH2 0xD6 JUMPI MLOAD PUSH1 0x1 PUSH1 0x1 PUSH1 0xA0 SHL SUB SWAP1 DUP2 DUP2 AND SWAP1 DUP2 SWAP1 SUB PUSH2 0xD6 JUMPI DUP1 ISZERO PUSH2 0xBD JUMPI PUSH1 0x0 DUP1 SLOAD PUSH1 0x1 PUSH1 0x1 PUSH1 0xA0 SHL SUB NOT DUP2 AND DUP4 OR DUP3 SSTORE PUSH1 0x40 DUP1 MLOAD SWAP5 SWAP1 SWAP4 SWAP2 AND PUSH32 0x8BE0079C531659141344CD1FD0A4F28419497F9722A3DAAFE3B4186F6B6457E0 DUP4 DUP1 LOG3 PUSH1 0x1 DUP1 SSTORE CALLER DUP2 MSTORE PUSH1 0x6 PUSH1 0x20 MSTORE KECCAK256 PUSH1 0x1 PUSH1 0xFF NOT DUP3 SLOAD AND OR SWAP1 SSTORE PUSH2 0x1786 SWAP1 DUP2 PUSH2 0xF2 DUP3 CODECOPY RETURN JUMPDEST PUSH1 0x40 MLOAD PUSH4 0x1E4FBDF7 PUSH1 0xE0 SHL DUP2 MSTORE PUSH1 0x0 PUSH1 0x4 DUP3 ADD MSTORE PUSH1 0x24 SWAP1 REVERT JUMPDEST PUSH1 0x0 DUP1 REVERT JUMPDEST PUSH4 0x4E487B71 PUSH1 0xE0 SHL PUSH1 0x0 MSTORE PUSH1 0x41 PUSH1 0x4 MSTORE PUSH1 0x24 PUSH1 0x0 REVERT INVALID PUSH1 0x80 DUP1 PUSH1 0x40 MSTORE PUSH1 0x4 CALLDATASIZE LT ISZERO PUSH2 0x13 JUMPI PUSH1 0x0 DUP1 REVERT JUMPDEST PUSH1 0x0 CALLDATALOAD PUSH1 0xE0 SHR SWAP1 DUP2 PUSH4 0x1AC44B95 EQ PUSH2 0x11E6 JUMPI POP DUP1 PUSH4 0x3F4BA83A EQ PUSH2 0x1174 JUMPI DUP1 PUSH4 0x52269F3A EQ PUSH2 0x1122 JUMPI DUP1 PUSH4 0x531CC847 EQ PUSH2 0xB35 JUMPI DUP1 PUSH4 0x5414C649 EQ PUSH2 0xA6A JUMPI DUP1 PUSH4 0x575ADAC9 EQ PUSH2 0x8F0 JUMPI DUP1 PUSH4 0x5C975ABB EQ PUSH2 0x8CA JUMPI DUP1 PUSH4 0x6693643F EQ PUSH2 0x827 JUMPI DUP1 PUSH4 0x674E1D45 EQ PUSH2 0x7E8 JUMPI DUP1 PUSH4 0x715018A6 EQ PUSH2 0x78F JUMPI DUP1 PUSH4 0x8042C16C EQ PUSH2 0x6D7 JUMPI DUP1 PUSH4 0x8456CB59 EQ PUSH2 0x675 JUMPI DUP1 PUSH4 0x8DA5CB5B EQ PUSH2 0x64C JUMPI DUP1 PUSH4 0xCC5EC54A EQ PUSH2 0x5A2 JUMPI DUP1 PUSH4 0xD57E39EF EQ PUSH2 0x574 JUMPI DUP1 PUSH4 0xD8A3950E EQ PUSH2 0x527 JUMPI DUP1 PUSH4 0xE1E96745 EQ PUSH2 0x4D0 JUMPI DUP1 PUSH4 0xF2FDE38B EQ PUSH2 0x447 JUMPI PUSH4 0xF31922EE EQ PUSH2 0xF0 JUMPI PUSH1 0x0 DUP1 REVERT JUMPDEST CALLVALUE PUSH2 0x442 JUMPI PUSH1 0xC0 CALLDATASIZE PUSH1 0x3 NOT ADD SLT PUSH2 0x442 JUMPI PUSH2 0x109 PUSH2 0x1268 JUMP JUMPDEST PUSH1 0x1 PUSH1 0x1 PUSH1 0x60 SHL SUB PUSH1 0x44 CALLDATALOAD AND PUSH1 0x44 CALLDATALOAD SUB PUSH2 0x442 JUMPI PUSH4 0xFFFFFFFF PUSH1 0x64 CALLDATALOAD AND PUSH1 0x64 CALLDATALOAD SUB PUSH2 0x442 JUMPI PUSH4 0xFFFFFFFF PUSH1 0x84 CALLDATALOAD AND PUSH1 0x84 CALLDATALOAD SUB PUSH2 0x442 JUMPI PUSH4 0xFFFFFFFF PUSH1 0xA4 CALLDATALOAD AND PUSH1 0xA4 CALLDATALOAD SUB PUSH2 0x442 JUMPI CALLER PUSH1 0x0 MSTORE PUSH1 0x6 PUSH1 0x20 MSTORE PUSH1 0xFF PUSH1 0x40 PUSH1 0x0 KECCAK256 SLOAD AND DUP1 ISZERO PUSH2 0x42E JUMPI JUMPDEST PUSH2 0x172 SWAP1 PUSH2 0x1392 JUMP JUMPDEST PUSH2 0x17A PUSH2 0x1521 JUMP JUMPDEST PUSH2 0x18E PUSH1 0x1 PUSH1 0x1 PUSH1 0xA0 SHL SUB DUP3 AND ISZERO ISZERO PUSH2 0x13DE JUMP JUMPDEST PUSH2 0x1A4 PUSH2 0x2710 PUSH4 0xFFFFFFFF PUSH1 0xA4 CALLDATALOAD AND GT ISZERO PUSH2 0x1421 JUMP JUMPDEST PUSH1 0x4 CALLDATALOAD PUSH1 0x0 DUP2 DUP2 MSTORE PUSH1 0x5 PUSH1 0x20 SWAP1 DUP2 MSTORE PUSH1 0x40 DUP1 DUP4 KECCAK256 PUSH1 0x1 PUSH1 0x1 PUSH1 0xA0 SHL SUB DUP7 AND DUP1 DUP6 MSTORE SWAP1 DUP4 MSTORE DUP2 DUP5 KECCAK256 SLOAD SWAP5 DUP5 MSTORE PUSH1 0x2 DUP4 MSTORE DUP2 DUP5 KECCAK256 SWAP1 DUP5 MSTORE SWAP1 SWAP2 MSTORE SWAP1 KECCAK256 DUP1 SLOAD SWAP2 PUSH1 0xFF AND ISZERO SWAP1 PUSH1 0x1 SWAP1 PUSH2 0x248 PUSH2 0x228 PUSH1 0x1 PUSH1 0x1 PUSH1 0x60 SHL SUB PUSH2 0x205 PUSH1 0x44 CALLDATALOAD DUP3 DUP10 AND PUSH2 0x146D JUMP JUMPDEST AND PUSH1 0x1 PUSH1 0x1 PUSH1 0x60 SHL SUB NOT DUP1 SWAP8 AND OR DUP1 DUP5 SSTORE PUSH4 0xFFFFFFFF PUSH1 0x64 CALLDATALOAD SWAP2 PUSH1 0x60 SHR AND PUSH2 0x149E JUMP JUMPDEST DUP3 SLOAD PUSH4 0xFFFFFFFF PUSH1 0x60 SHL NOT AND PUSH1 0x60 SWAP2 SWAP1 SWAP2 SHL PUSH4 0xFFFFFFFF PUSH1 0x60 SHL AND OR DUP3 SSTORE JUMP JUMPDEST PUSH2 0x281 PUSH2 0x261 PUSH1 0x84 CALLDATALOAD PUSH4 0xFFFFFFFF DUP5 SLOAD PUSH1 0x80 SHR AND PUSH2 0x149E JUMP JUMPDEST DUP3 SLOAD PUSH4 0xFFFFFFFF PUSH1 0x80 SHL NOT AND PUSH1 0x80 SWAP2 SWAP1 SWAP2 SHL PUSH4 0xFFFFFFFF PUSH1 0x80 SHL AND OR DUP3 SSTORE JUMP JUMPDEST DUP1 SLOAD PUSH4 0xFFFFFFFF PUSH1 0xA0 SHL NOT AND PUSH1 0xA4 CALLDATALOAD PUSH1 0xA0 SHL PUSH4 0xFFFFFFFF PUSH1 0xA0 SHL AND OR DUP2 SSTORE ADD PUSH1 0x1 PUSH1 0x1 PUSH1 0x60 SHL SUB TIMESTAMP AND DUP4 DUP3 SLOAD AND OR SWAP1 SSTORE PUSH1 0x4 CALLDATALOAD PUSH1 0x0 MSTORE PUSH1 0x3 PUSH1 0x20 MSTORE PUSH2 0x31A PUSH2 0x2FA PUSH1 0x40 PUSH1 0x0 KECCAK256 SWAP4 DUP5 SLOAD SWAP1 PUSH1 0x1 PUSH1 0x1 PUSH1 0x60 SHL SUB PUSH2 0x2E1 PUSH1 0x44 CALLDATALOAD DUP3 DUP6 AND PUSH2 0x146D JUMP JUMPDEST AND SWAP2 AND OR DUP1 DUP6 SSTORE PUSH4 0xFFFFFFFF PUSH1 0x64 CALLDATALOAD SWAP2 PUSH1 0x60 SHR AND PUSH2 0x149E JUMP JUMPDEST DUP4 SLOAD PUSH4 0xFFFFFFFF PUSH1 0x60 SHL NOT AND PUSH1 0x60 SWAP2 SWAP1 SWAP2 SHL PUSH4 0xFFFFFFFF PUSH1 0x60 SHL AND OR DUP4 SSTORE JUMP JUMPDEST PUSH2 0x353 PUSH2 0x333 PUSH1 0x84 CALLDATALOAD PUSH4 0xFFFFFFFF DUP6 SLOAD PUSH1 0x80 SHR AND PUSH2 0x149E JUMP JUMPDEST DUP4 SLOAD PUSH4 0xFFFFFFFF PUSH1 0x80 SHL NOT AND PUSH1 0x80 SWAP2 SWAP1 SWAP2 SHL PUSH4 0xFFFFFFFF PUSH1 0x80 SHL AND OR DUP4 SSTORE JUMP JUMPDEST PUSH2 0x3A9 JUMPI JUMPDEST POP PUSH1 0x40 MLOAD PUSH1 0x1 PUSH1 0x1 PUSH1 0xA0 SHL SUB SWAP1 SWAP2 AND SWAP1 PUSH1 0x4 CALLDATALOAD SWAP1 PUSH32 0x33595B97D9534AD768A7D3EE9A34E23BE3C0C6DD3E52C78C96C3C6032798D99C SWAP1 DUP1 PUSH2 0x3A4 PUSH1 0xA4 CALLDATALOAD PUSH1 0x84 CALLDATALOAD PUSH1 0x64 CALLDATALOAD PUSH1 0x44 CALLDATALOAD DUP6 PUSH2 0x1336 JUMP JUMPDEST SUB SWAP1 LOG3 STOP JUMPDEST PUSH2 0x428 SWAP1 PUSH1 0x4 CALLDATALOAD PUSH1 0x0 MSTORE PUSH1 0x5 PUSH1 0x20 MSTORE PUSH1 0x40 PUSH1 0x0 KECCAK256 PUSH1 0x1 DUP1 PUSH1 0xA0 SHL SUB DUP5 AND PUSH1 0x0 MSTORE PUSH1 0x20 MSTORE PUSH1 0x40 PUSH1 0x0 KECCAK256 PUSH1 0x1 PUSH1 0xFF NOT DUP3 SLOAD AND OR SWAP1 SSTORE PUSH1 0x4 CALLDATALOAD PUSH1 0x0 MSTORE PUSH1 0x4 PUSH1 0x20 MSTORE PUSH2 0x3F5 DUP4 PUSH1 0x40 PUSH1 0x0 KECCAK256 PUSH2 0x14B6 JUMP JUMPDEST PUSH2 0x408 PUSH4 0xFFFFFFFF DUP3 SLOAD PUSH1 0xA0 SHR AND PUSH2 0x150C JUMP JUMPDEST DUP2 SLOAD PUSH4 0xFFFFFFFF PUSH1 0xA0 SHL NOT AND PUSH1 0xA0 SWAP2 SWAP1 SWAP2 SHL PUSH4 0xFFFFFFFF PUSH1 0xA0 SHL AND OR SWAP1 SSTORE JUMP JUMPDEST CODESIZE PUSH2 0x358 JUMP JUMPDEST POP PUSH1 0x0 SLOAD PUSH1 0x1 PUSH1 0x1 PUSH1 0xA0 SHL SUB AND CALLER EQ PUSH2 0x169 JUMP JUMPDEST PUSH1 0x0 DUP1 REVERT JUMPDEST CALLVALUE PUSH2 0x442 JUMPI PUSH1 0x20 CALLDATASIZE PUSH1 0x3 NOT ADD SLT PUSH2 0x442 JUMPI PUSH2 0x460 PUSH2 0x127E JUMP JUMPDEST PUSH2 0x468 PUSH2 0x1366 JUMP JUMPDEST PUSH1 0x1 PUSH1 0x1 PUSH1 0xA0 SHL SUB SWAP1 DUP2 AND SWAP1 DUP2 ISZERO PUSH2 0x4B7 JUMPI PUSH1 0x0 SLOAD DUP3 PUSH1 0x1 PUSH1 0x1 PUSH1 0x60 SHL SUB PUSH1 0xA0 SHL DUP3 AND OR PUSH1 0x0 SSTORE AND PUSH32 0x8BE0079C531659141344CD1FD0A4F28419497F9722A3DAAFE3B4186F6B6457E0 PUSH1 0x0 DUP1 LOG3 STOP JUMPDEST PUSH1 0x40 MLOAD PUSH4 0x1E4FBDF7 PUSH1 0xE0 SHL DUP2 MSTORE PUSH1 0x0 PUSH1 0x4 DUP3 ADD MSTORE PUSH1 0x24 SWAP1 REVERT JUMPDEST CALLVALUE PUSH2 0x442 JUMPI PUSH1 0x20 CALLDATASIZE PUSH1 0x3 NOT ADD SLT PUSH2 0x442 JUMPI PUSH1 0x4 CALLDATALOAD PUSH1 0x0 MSTORE PUSH1 0x3 PUSH1 0x20 MSTORE PUSH2 0x523 PUSH1 0x40 PUSH1 0x0 KECCAK256 SLOAD PUSH1 0x40 MLOAD SWAP2 DUP3 SWAP2 PUSH4 0xFFFFFFFF DUP1 DUP3 PUSH1 0xA0 SHR AND SWAP2 PUSH1 0x1 PUSH1 0x1 PUSH1 0x60 SHL SUB DUP3 DUP3 PUSH1 0x80 SHR AND SWAP3 DUP3 PUSH1 0x60 SHR AND SWAP2 AND DUP6 PUSH2 0x1336 JUMP JUMPDEST SUB SWAP1 RETURN JUMPDEST CALLVALUE PUSH2 0x442 JUMPI PUSH1 0x40 CALLDATASIZE PUSH1 0x3 NOT ADD SLT PUSH2 0x442 JUMPI PUSH2 0x540 PUSH2 0x1268 JUMP JUMPDEST PUSH1 0x4 CALLDATALOAD PUSH1 0x0 MSTORE PUSH1 0x5 PUSH1 0x20 MSTORE PUSH1 0x40 PUSH1 0x0 KECCAK256 SWAP1 PUSH1 0x1 DUP1 PUSH1 0xA0 SHL SUB AND PUSH1 0x0 MSTORE PUSH1 0x20 MSTORE PUSH1 0x20 PUSH1 0xFF PUSH1 0x40 PUSH1 0x0 KECCAK256 SLOAD AND PUSH1 0x40 MLOAD SWAP1 ISZERO ISZERO DUP2 MSTORE RETURN JUMPDEST CALLVALUE PUSH2 0x442 JUMPI PUSH1 0x40 CALLDATASIZE PUSH1 0x3 NOT ADD SLT PUSH2 0x442 JUMPI PUSH1 0x20 PUSH2 0x59A PUSH2 0x592 PUSH2 0x1268 JUMP JUMPDEST PUSH1 0x4 CALLDATALOAD PUSH2 0x164B JUMP JUMPDEST PUSH1 0x40 MLOAD SWAP1 DUP2 MSTORE RETURN JUMPDEST CALLVALUE PUSH2 0x442 JUMPI PUSH1 0x20 CALLDATASIZE PUSH1 0x3 NOT ADD SLT PUSH2 0x442 JUMPI PUSH1 0x0 PUSH1 0x60 PUSH1 0x40 MLOAD PUSH2 0x5C3 DUP2 PUSH2 0x15B6 JUMP JUMPDEST DUP3 DUP2 MSTORE DUP3 PUSH1 0x20 DUP3 ADD MSTORE DUP3 PUSH1 0x40 DUP3 ADD MSTORE ADD MSTORE PUSH1 0x4 CALLDATALOAD PUSH1 0x0 MSTORE PUSH1 0x3 PUSH1 0x20 MSTORE PUSH1 0x80 PUSH1 0x40 PUSH1 0x0 KECCAK256 PUSH1 0x40 MLOAD SWAP1 PUSH2 0x5F3 DUP3 PUSH2 0x15B6 JUMP JUMPDEST SLOAD SWAP1 PUSH1 0x1 PUSH1 0x1 PUSH1 0x60 SHL SUB DUP3 AND SWAP2 DUP3 DUP3 MSTORE PUSH1 0x20 DUP3 ADD PUSH4 0xFFFFFFFF SWAP3 DUP4 DUP1 SWAP3 DUP2 DUP6 PUSH1 0x60 SHR AND DUP2 MSTORE DUP2 PUSH1 0x60 PUSH1 0x40 DUP6 ADD SWAP5 DUP3 DUP9 DUP13 SHR AND DUP7 MSTORE ADD SWAP6 PUSH1 0xA0 SHR AND DUP6 MSTORE PUSH1 0x40 MLOAD SWAP7 DUP8 MSTORE MLOAD AND PUSH1 0x20 DUP7 ADD MSTORE MLOAD AND PUSH1 0x40 DUP5 ADD MSTORE MLOAD AND PUSH1 0x60 DUP3 ADD MSTORE RETURN JUMPDEST CALLVALUE PUSH2 0x442 JUMPI PUSH1 0x0 CALLDATASIZE PUSH1 0x3 NOT ADD SLT PUSH2 0x442 JUMPI PUSH1 0x0 SLOAD PUSH1 0x40 MLOAD PUSH1 0x1 PUSH1 0x1 PUSH1 0xA0 SHL SUB SWAP1 SWAP2 AND DUP2 MSTORE PUSH1 0x20 SWAP1 RETURN JUMPDEST CALLVALUE PUSH2 0x442 JUMPI PUSH1 0x0 CALLDATASIZE PUSH1 0x3 NOT ADD SLT PUSH2 0x442 JUMPI PUSH2 0x68E PUSH2 0x1366 JUMP JUMPDEST PUSH2 0x696 PUSH2 0x1521 JUMP JUMPDEST PUSH1 0x0 DUP1 SLOAD PUSH1 0xFF PUSH1 0xA0 SHL NOT AND PUSH1 0x1 PUSH1 0xA0 SHL OR SWAP1 SSTORE PUSH1 0x40 MLOAD CALLER DUP2 MSTORE PUSH32 0x62E78CEA01BEE320CD4E420270B5EA74000D11B0C9F74754EBDBFC544B05A258 SWAP1 PUSH1 0x20 SWAP1 LOG1 STOP JUMPDEST CALLVALUE PUSH2 0x442 JUMPI PUSH1 0x20 DUP1 PUSH1 0x3 NOT CALLDATASIZE ADD SLT PUSH2 0x442 JUMPI PUSH1 0x4 CALLDATALOAD PUSH1 0x0 MSTORE PUSH1 0x4 DUP2 MSTORE PUSH1 0x40 PUSH1 0x0 KECCAK256 PUSH1 0x40 MLOAD SWAP1 DUP2 DUP4 DUP3 SLOAD SWAP2 DUP3 DUP2 MSTORE ADD SWAP1 DUP2 SWAP3 PUSH1 0x0 MSTORE DUP5 PUSH1 0x0 KECCAK256 SWAP1 PUSH1 0x0 JUMPDEST DUP7 DUP3 DUP3 LT PUSH2 0x772 JUMPI DUP7 DUP7 PUSH2 0x729 DUP3 DUP9 SUB DUP4 PUSH2 0x15D2 JUMP JUMPDEST PUSH1 0x40 MLOAD SWAP3 DUP4 SWAP3 DUP2 DUP5 ADD SWAP1 DUP3 DUP6 MSTORE MLOAD DUP1 SWAP2 MSTORE PUSH1 0x40 DUP5 ADD SWAP3 SWAP2 PUSH1 0x0 JUMPDEST DUP3 DUP2 LT PUSH2 0x752 JUMPI POP POP POP POP SUB SWAP1 RETURN JUMPDEST DUP4 MLOAD PUSH1 0x1 PUSH1 0x1 PUSH1 0xA0 SHL SUB AND DUP6 MSTORE DUP7 SWAP6 POP SWAP4 DUP2 ADD SWAP4 SWAP3 DUP2 ADD SWAP3 PUSH1 0x1 ADD PUSH2 0x743 JUMP JUMPDEST DUP4 SLOAD PUSH1 0x1 PUSH1 0x1 PUSH1 0xA0 SHL SUB AND DUP6 MSTORE SWAP1 SWAP4 ADD SWAP3 PUSH1 0x1 SWAP3 DUP4 ADD SWAP3 ADD PUSH2 0x713 JUMP JUMPDEST CALLVALUE PUSH2 0x442 JUMPI PUSH1 0x0 CALLDATASIZE PUSH1 0x3 NOT ADD SLT PUSH2 0x442 JUMPI PUSH2 0x7A8 PUSH2 0x1366 JUMP JUMPDEST PUSH1 0x0 DUP1 SLOAD PUSH1 0x1 PUSH1 0x1 PUSH1 0xA0 SHL SUB NOT DUP2 AND DUP3 SSTORE PUSH1 0x1 PUSH1 0x1 PUSH1 0xA0 SHL SUB AND PUSH32 0x8BE0079C531659141344CD1FD0A4F28419497F9722A3DAAFE3B4186F6B6457E0 DUP3 DUP1 LOG3 STOP JUMPDEST CALLVALUE PUSH2 0x442 JUMPI PUSH1 0x20 CALLDATASIZE PUSH1 0x3 NOT ADD SLT PUSH2 0x442 JUMPI PUSH1 0x1 PUSH1 0x1 PUSH1 0xA0 SHL SUB PUSH2 0x809 PUSH2 0x127E JUMP JUMPDEST AND PUSH1 0x0 MSTORE PUSH1 0x6 PUSH1 0x20 MSTORE PUSH1 0x20 PUSH1 0xFF PUSH1 0x40 PUSH1 0x0 KECCAK256 SLOAD AND PUSH1 0x40 MLOAD SWAP1 ISZERO ISZERO DUP2 MSTORE RETURN JUMPDEST CALLVALUE PUSH2 0x442 JUMPI PUSH1 0x40 CALLDATASIZE PUSH1 0x3 NOT ADD SLT PUSH2 0x442 JUMPI PUSH2 0x840 PUSH2 0x1268 JUMP JUMPDEST PUSH2 0x848 PUSH2 0x15F4 JUMP JUMPDEST POP PUSH1 0x4 CALLDATALOAD PUSH1 0x0 MSTORE PUSH1 0x2 PUSH1 0x20 MSTORE PUSH1 0x40 PUSH1 0x0 KECCAK256 SWAP1 PUSH1 0x1 DUP1 PUSH1 0xA0 SHL SUB AND PUSH1 0x0 MSTORE PUSH1 0x20 MSTORE PUSH1 0xA0 PUSH1 0x40 PUSH1 0x0 KECCAK256 PUSH1 0x40 MLOAD SWAP1 PUSH2 0x87C DUP3 PUSH2 0x159A JUMP JUMPDEST PUSH1 0x1 DUP2 SLOAD SWAP2 PUSH1 0x1 PUSH1 0x1 PUSH1 0x60 SHL SUB SWAP3 DUP4 DUP2 AND DUP6 MSTORE PUSH4 0xFFFFFFFF SWAP1 DUP2 DUP2 PUSH1 0x60 SHR AND PUSH1 0x20 DUP8 ADD MSTORE DUP2 DUP2 PUSH1 0x80 SHR AND PUSH1 0x40 DUP8 ADD MSTORE DUP7 SHR AND PUSH1 0x60 DUP6 ADD MSTORE ADD SLOAD AND PUSH1 0x80 DUP3 ADD MSTORE PUSH2 0x8C8 PUSH1 0x40 MLOAD DUP1 SWAP3 PUSH2 0x12F3 JUMP JUMPDEST RETURN JUMPDEST CALLVALUE PUSH2 0x442 JUMPI PUSH1 0x0 CALLDATASIZE PUSH1 0x3 NOT ADD SLT PUSH2 0x442 JUMPI PUSH1 0x20 PUSH1 0xFF PUSH1 0x0 SLOAD PUSH1 0xA0 SHR AND PUSH1 0x40 MLOAD SWAP1 ISZERO ISZERO DUP2 MSTORE RETURN JUMPDEST CALLVALUE PUSH2 0x442 JUMPI PUSH1 0x40 CALLDATASIZE PUSH1 0x3 NOT ADD SLT PUSH2 0x442 JUMPI PUSH1 0x4 CALLDATALOAD PUSH1 0x24 CALLDATALOAD PUSH8 0xFFFFFFFFFFFFFFFF DUP2 GT PUSH2 0x442 JUMPI PUSH2 0x924 SWAP1 CALLDATASIZE SWAP1 PUSH1 0x4 ADD PUSH2 0x12C2 JUMP JUMPDEST SWAP2 SWAP1 PUSH2 0x92F DUP4 PUSH2 0x161F JUMP JUMPDEST SWAP3 PUSH2 0x93D PUSH1 0x40 MLOAD SWAP5 DUP6 PUSH2 0x15D2 JUMP JUMPDEST DUP1 DUP5 MSTORE PUSH1 0x1F NOT PUSH2 0x94C DUP3 PUSH2 0x161F JUMP JUMPDEST ADD PUSH1 0x0 JUMPDEST DUP2 DUP2 LT PUSH2 0xA53 JUMPI POP POP PUSH1 0x0 JUMPDEST DUP2 DUP2 LT PUSH2 0x9AE JUMPI PUSH1 0x40 DUP1 MLOAD PUSH1 0x20 DUP1 DUP3 MSTORE DUP8 MLOAD DUP2 DUP4 ADD DUP2 SWAP1 MSTORE DUP2 DUP10 ADD SWAP4 DUP4 ADD SWAP2 PUSH1 0x0 JUMPDEST DUP3 DUP2 LT PUSH2 0x98B JUMPI DUP5 DUP5 SUB DUP6 RETURN JUMPDEST SWAP1 SWAP2 SWAP3 DUP3 PUSH1 0xA0 DUP3 PUSH2 0x99F PUSH1 0x1 SWAP5 DUP11 MLOAD PUSH2 0x12F3 JUMP JUMPDEST ADD SWAP7 ADD SWAP2 ADD SWAP5 SWAP3 SWAP2 SWAP1 SWAP5 PUSH2 0x97E JUMP JUMPDEST PUSH2 0xA4E SWAP1 DUP5 PUSH1 0x0 MSTORE PUSH1 0x20 PUSH1 0x2 DUP2 MSTORE PUSH1 0x40 PUSH1 0x0 KECCAK256 PUSH1 0x1 DUP1 PUSH1 0xA0 SHL SUB PUSH2 0x9DB PUSH2 0x9D6 DUP6 DUP9 DUP11 PUSH2 0x1551 JUMP JUMPDEST PUSH2 0x1561 JUMP JUMPDEST AND PUSH1 0x0 MSTORE DUP2 MSTORE PUSH1 0x40 PUSH1 0x0 KECCAK256 PUSH1 0x40 MLOAD SWAP2 PUSH2 0x9F3 DUP4 PUSH2 0x159A JUMP JUMPDEST PUSH1 0x1 DUP3 SLOAD SWAP3 PUSH1 0x1 PUSH1 0x1 PUSH1 0x60 SHL SUB SWAP3 DUP4 DUP6 AND DUP7 MSTORE PUSH4 0xFFFFFFFF PUSH1 0x60 SWAP2 DUP2 DUP8 DUP5 SHR AND SWAP1 DUP9 ADD MSTORE PUSH1 0x80 SWAP6 DUP2 DUP2 DUP9 SHR AND PUSH1 0x40 DUP10 ADD MSTORE PUSH1 0xA0 SHR AND SWAP1 DUP7 ADD MSTORE ADD SLOAD AND SWAP1 DUP3 ADD MSTORE PUSH2 0xA3D DUP3 DUP9 PUSH2 0x1637 JUMP JUMPDEST MSTORE PUSH2 0xA48 DUP2 DUP8 PUSH2 0x1637 JUMP JUMPDEST POP PUSH2 0x1542 JUMP JUMPDEST PUSH2 0x95C JUMP JUMPDEST PUSH1 0x20 SWAP1 PUSH2 0xA5E PUSH2 0x15F4 JUMP JUMPDEST DUP3 DUP3 DUP10 ADD ADD MSTORE ADD PUSH2 0x950 JUMP JUMPDEST CALLVALUE PUSH2 0x442 JUMPI PUSH1 0x40 CALLDATASIZE PUSH1 0x3 NOT ADD SLT PUSH2 0x442 JUMPI PUSH2 0xA83 PUSH2 0x127E JUMP JUMPDEST PUSH1 0x24 CALLDATALOAD SWAP1 DUP2 ISZERO ISZERO DUP1 SWAP3 SUB PUSH2 0x442 JUMPI PUSH2 0xA99 PUSH2 0x1366 JUMP JUMPDEST PUSH1 0x1 PUSH1 0x1 PUSH1 0xA0 SHL SUB AND SWAP1 DUP2 ISZERO PUSH2 0xAF0 JUMPI PUSH1 0x20 PUSH32 0xA755B73CA9AB5908508AEF0B2CDE25FFC1CAF1B79F4833E57436D517461CA6BE SWAP2 DUP4 PUSH1 0x0 MSTORE PUSH1 0x6 DUP3 MSTORE PUSH1 0x40 PUSH1 0x0 KECCAK256 PUSH1 0xFF NOT DUP2 SLOAD AND PUSH1 0xFF DUP4 AND OR SWAP1 SSTORE PUSH1 0x40 MLOAD SWAP1 DUP2 MSTORE LOG2 STOP JUMPDEST PUSH1 0x40 MLOAD PUSH3 0x461BCD PUSH1 0xE5 SHL DUP2 MSTORE PUSH1 0x20 PUSH1 0x4 DUP3 ADD MSTORE PUSH1 0x1B PUSH1 0x24 DUP3 ADD MSTORE PUSH32 0x496E76616C696420636F6F7264696E61746F7220616464726573730000000000 PUSH1 0x44 DUP3 ADD MSTORE PUSH1 0x64 SWAP1 REVERT JUMPDEST CALLVALUE PUSH2 0x442 JUMPI PUSH1 0xC0 CALLDATASIZE PUSH1 0x3 NOT ADD SLT PUSH2 0x442 JUMPI PUSH8 0xFFFFFFFFFFFFFFFF PUSH1 0x24 CALLDATALOAD DUP2 DUP2 GT PUSH2 0x442 JUMPI PUSH2 0xB67 SWAP1 CALLDATASIZE SWAP1 PUSH1 0x4 ADD PUSH2 0x12C2 JUMP JUMPDEST SWAP1 SWAP2 PUSH1 0x44 CALLDATALOAD DUP2 DUP2 GT PUSH2 0x442 JUMPI PUSH2 0xB81 SWAP1 CALLDATASIZE SWAP1 PUSH1 0x4 ADD PUSH2 0x12C2 JUMP JUMPDEST SWAP2 SWAP1 PUSH1 0x64 CALLDATALOAD DUP3 DUP2 GT PUSH2 0x442 JUMPI PUSH2 0xB9B SWAP1 CALLDATASIZE SWAP1 PUSH1 0x4 ADD PUSH2 0x12C2 JUMP JUMPDEST SWAP2 SWAP1 SWAP3 PUSH1 0x84 CALLDATALOAD DUP2 DUP2 GT PUSH2 0x442 JUMPI PUSH2 0xBB6 SWAP1 CALLDATASIZE SWAP1 PUSH1 0x4 ADD PUSH2 0x12C2 JUMP JUMPDEST SWAP5 SWAP1 SWAP2 PUSH1 0xA4 CALLDATALOAD SWAP1 DUP2 GT PUSH2 0x442 JUMPI PUSH2 0xBD1 SWAP1 CALLDATASIZE SWAP1 PUSH1 0x4 ADD PUSH2 0x12C2 JUMP JUMPDEST SWAP7 SWAP1 SWAP4 CALLER PUSH1 0x0 MSTORE PUSH1 0x6 PUSH1 0x20 MSTORE PUSH1 0xFF PUSH1 0x40 PUSH1 0x0 KECCAK256 SLOAD AND DUP1 ISZERO PUSH2 0x110E JUMPI JUMPDEST PUSH2 0xBF6 SWAP1 PUSH2 0x1392 JUMP JUMPDEST PUSH2 0xBFE PUSH2 0x1521 JUMP JUMPDEST PUSH1 0x2 PUSH1 0x1 SLOAD EQ PUSH2 0x10FC JUMPI PUSH1 0x2 PUSH1 0x1 SSTORE DUP9 ISZERO PUSH2 0x10C8 JUMPI DUP2 DUP10 EQ DUP1 PUSH2 0x10BF JUMPI JUMPDEST DUP1 PUSH2 0x10B6 JUMPI JUMPDEST DUP1 PUSH2 0x10AD JUMPI JUMPDEST ISZERO PUSH2 0x1070 JUMPI PUSH1 0x4 CALLDATALOAD PUSH1 0x0 MSTORE PUSH1 0x3 PUSH1 0x20 MSTORE PUSH1 0x40 PUSH1 0x0 KECCAK256 PUSH1 0x0 JUMPDEST DUP11 DUP2 LT PUSH2 0xC8B JUMPI DUP11 PUSH1 0x40 MLOAD SWAP1 DUP2 MSTORE PUSH1 0x1 PUSH1 0x1 PUSH1 0x60 SHL SUB TIMESTAMP AND PUSH1 0x20 DUP3 ADD MSTORE PUSH32 0xAB19893044184827BA83C537699C1ADFE2BD41731886BFFB842EAFAFD107AE68 PUSH1 0x40 PUSH1 0x4 CALLDATALOAD SWAP3 LOG2 PUSH1 0x1 DUP1 SSTORE STOP JUMPDEST DUP1 DUP1 DUP1 DUP10 DUP16 DUP16 DUP16 SWAP2 DUP16 SWAP2 DUP16 SWAP1 DUP7 DUP16 DUP16 SWAP3 DUP16 DUP16 SWAP3 PUSH2 0xCAC DUP6 DUP1 SWAP10 SWAP5 DUP2 SWAP6 PUSH2 0x1551 JUMP JUMPDEST PUSH2 0xCB5 SWAP1 PUSH2 0x1561 JUMP JUMPDEST SWAP11 PUSH2 0xCCA PUSH1 0x1 PUSH1 0x1 PUSH1 0xA0 SHL SUB DUP14 AND ISZERO ISZERO PUSH2 0x13DE JUMP JUMPDEST PUSH2 0xCD5 DUP5 DUP13 DUP4 PUSH2 0x1551 JUMP JUMPDEST PUSH2 0xCDE SWAP1 PUSH2 0x1575 JUMP JUMPDEST PUSH4 0xFFFFFFFF AND PUSH2 0x2710 LT ISZERO PUSH2 0xCF2 SWAP1 PUSH2 0x1421 JUMP JUMPDEST PUSH1 0x4 CALLDATALOAD PUSH1 0x0 MSTORE PUSH1 0x5 PUSH1 0x20 MSTORE PUSH1 0x40 PUSH1 0x0 KECCAK256 PUSH1 0x1 PUSH1 0xA0 SHL PUSH1 0x1 SWAP1 SUB DUP14 AND PUSH1 0x0 MSTORE PUSH1 0x20 MSTORE DUP4 PUSH1 0x40 PUSH1 0x0 KECCAK256 SLOAD PUSH1 0xFF AND ISZERO SWAP12 PUSH1 0x4 CALLDATALOAD PUSH1 0x0 MSTORE PUSH1 0x2 PUSH1 0x20 MSTORE DUP14 PUSH1 0x40 PUSH1 0x0 KECCAK256 SWAP1 PUSH1 0x1 PUSH1 0xA0 SHL PUSH1 0x1 SWAP1 SUB AND PUSH1 0x0 MSTORE PUSH1 0x20 MSTORE PUSH1 0x40 PUSH1 0x0 KECCAK256 SWAP4 DUP3 DUP14 PUSH2 0xD54 DUP3 DUP10 DUP13 PUSH2 0x1551 JUMP JUMPDEST PUSH2 0xD5D SWAP1 PUSH2 0x1586 JUMP JUMPDEST DUP14 DUP14 DUP5 DUP11 SLOAD SWAP4 PUSH1 0x1 PUSH1 0x1 PUSH1 0x60 SHL SUB DUP6 AND SWAP1 PUSH2 0xD77 SWAP2 PUSH2 0x146D JUMP JUMPDEST PUSH1 0x1 PUSH1 0x1 PUSH1 0x60 SHL SUB AND SWAP3 DUP4 PUSH1 0x1 PUSH1 0x1 PUSH1 0x60 SHL SUB NOT DUP7 AND OR DUP13 SSTORE PUSH2 0xD99 SWAP3 PUSH2 0x1551 JUMP JUMPDEST PUSH2 0xDA2 SWAP1 PUSH2 0x1575 JUMP JUMPDEST SWAP2 PUSH1 0x1 PUSH1 0x1 PUSH1 0x60 SHL SUB NOT AND OR PUSH1 0x60 SHR PUSH4 0xFFFFFFFF AND SWAP1 PUSH2 0xDC1 SWAP2 PUSH2 0x149E JUMP JUMPDEST DUP8 SLOAD PUSH4 0xFFFFFFFF PUSH1 0x60 SHL NOT AND PUSH1 0x60 SWAP2 SWAP1 SWAP2 SHL PUSH4 0xFFFFFFFF PUSH1 0x60 SHL AND OR DUP8 SSTORE PUSH2 0xDE8 SWAP3 PUSH2 0x1551 JUMP JUMPDEST PUSH2 0xDF1 SWAP1 PUSH2 0x1575 JUMP JUMPDEST DUP5 SLOAD PUSH1 0x80 SHR PUSH4 0xFFFFFFFF AND SWAP1 PUSH2 0xE06 SWAP2 PUSH2 0x149E JUMP JUMPDEST DUP5 SLOAD PUSH4 0xFFFFFFFF PUSH1 0x80 SHL NOT AND PUSH1 0x80 SWAP2 SWAP1 SWAP2 SHL PUSH4 0xFFFFFFFF PUSH1 0x80 SHL AND OR DUP5 SSTORE PUSH2 0xE2D SWAP3 PUSH2 0x1551 JUMP JUMPDEST PUSH2 0xE36 SWAP1 PUSH2 0x1575 JUMP JUMPDEST DUP2 SLOAD PUSH4 0xFFFFFFFF PUSH1 0xA0 SHL NOT AND PUSH1 0xA0 SWAP2 SWAP1 SWAP2 SHL PUSH4 0xFFFFFFFF PUSH1 0xA0 SHL AND OR DUP2 SSTORE PUSH1 0x1 ADD DUP1 SLOAD PUSH12 0xFFFFFFFFFFFFFFFFFFFFFFFF NOT AND PUSH1 0x1 PUSH1 0x1 PUSH1 0x60 SHL SUB TIMESTAMP AND OR SWAP1 SSTORE PUSH2 0xE7E SWAP3 PUSH2 0x1551 JUMP JUMPDEST PUSH2 0xE87 SWAP1 PUSH2 0x1586 JUMP JUMPDEST DUP13 SLOAD SWAP1 PUSH2 0xE9D SWAP1 PUSH1 0x1 PUSH1 0x1 PUSH1 0x60 SHL SUB DUP4 AND PUSH2 0x146D JUMP JUMPDEST PUSH1 0x1 PUSH1 0x1 PUSH1 0x60 SHL SUB AND SWAP1 PUSH1 0x1 PUSH1 0x1 PUSH1 0x60 SHL SUB NOT AND OR SWAP3 DUP4 DUP14 SSTORE PUSH2 0xEBF SWAP3 PUSH2 0x1551 JUMP JUMPDEST PUSH2 0xEC8 SWAP1 PUSH2 0x1575 JUMP JUMPDEST SWAP1 PUSH1 0x60 SHR PUSH4 0xFFFFFFFF AND SWAP1 PUSH2 0xEDC SWAP2 PUSH2 0x149E JUMP JUMPDEST DUP10 SLOAD PUSH4 0xFFFFFFFF PUSH1 0x60 SHL NOT AND PUSH1 0x60 SWAP2 SWAP1 SWAP2 SHL PUSH4 0xFFFFFFFF PUSH1 0x60 SHL AND OR DUP10 SSTORE PUSH2 0xF04 SWAP2 DUP14 PUSH2 0x1551 JUMP JUMPDEST PUSH2 0xF0D SWAP1 PUSH2 0x1575 JUMP JUMPDEST DUP8 SLOAD PUSH1 0x80 SHR PUSH4 0xFFFFFFFF AND SWAP1 PUSH2 0xF22 SWAP2 PUSH2 0x149E JUMP JUMPDEST DUP8 SLOAD PUSH4 0xFFFFFFFF PUSH1 0x80 SHL NOT AND PUSH1 0x80 SWAP2 SWAP1 SWAP2 SHL PUSH4 0xFFFFFFFF PUSH1 0x80 SHL AND OR DUP8 SSTORE PUSH2 0xFED JUMPI JUMPDEST DUP14 DUP14 DUP14 PUSH2 0xF53 DUP6 DUP13 DUP13 PUSH2 0x1551 JUMP JUMPDEST PUSH2 0xF5C SWAP1 PUSH2 0x1586 JUMP JUMPDEST SWAP5 PUSH2 0xF67 SWAP2 DUP14 PUSH2 0x1551 JUMP JUMPDEST PUSH2 0xF70 SWAP1 PUSH2 0x1575 JUMP JUMPDEST SWAP5 PUSH2 0xF7B SWAP2 DUP14 PUSH2 0x1551 JUMP JUMPDEST PUSH2 0xF84 SWAP1 PUSH2 0x1575 JUMP JUMPDEST SWAP5 PUSH2 0xF8F SWAP2 DUP14 PUSH2 0x1551 JUMP JUMPDEST PUSH2 0xF98 SWAP1 PUSH2 0x1575 JUMP JUMPDEST PUSH1 0x40 MLOAD PUSH1 0x1 PUSH1 0x1 PUSH1 0xA0 SHL SUB SWAP1 SWAP3 AND SWAP5 PUSH1 0x4 CALLDATALOAD SWAP5 SWAP3 SWAP4 DUP5 SWAP4 PUSH2 0xFBB SWAP4 SWAP3 SWAP2 DUP6 PUSH2 0x1336 JUMP JUMPDEST SUB PUSH32 0x33595B97D9534AD768A7D3EE9A34E23BE3C0C6DD3E52C78C96C3C6032798D99C SWAP2 LOG3 PUSH2 0xFE8 SWAP1 PUSH2 0x1542 JUMP JUMPDEST PUSH2 0xC40 JUMP JUMPDEST PUSH1 0x4 CALLDATALOAD PUSH1 0x0 MSTORE PUSH1 0x5 PUSH1 0x20 MSTORE PUSH1 0x40 PUSH1 0x0 KECCAK256 PUSH1 0x1 DUP1 PUSH1 0xA0 SHL SUB DUP3 AND PUSH1 0x0 MSTORE PUSH1 0x20 MSTORE PUSH1 0x40 PUSH1 0x0 KECCAK256 PUSH1 0x1 PUSH1 0xFF NOT DUP3 SLOAD AND OR SWAP1 SSTORE PUSH1 0x4 CALLDATALOAD PUSH1 0x0 MSTORE PUSH1 0x4 PUSH1 0x20 MSTORE PUSH2 0x1035 DUP2 PUSH1 0x40 PUSH1 0x0 KECCAK256 PUSH2 0x14B6 JUMP JUMPDEST PUSH2 0x106B PUSH2 0x104B PUSH4 0xFFFFFFFF DUP9 SLOAD PUSH1 0xA0 SHR AND PUSH2 0x150C JUMP JUMPDEST DUP8 SLOAD PUSH4 0xFFFFFFFF PUSH1 0xA0 SHL NOT AND PUSH1 0xA0 SWAP2 SWAP1 SWAP2 SHL PUSH4 0xFFFFFFFF PUSH1 0xA0 SHL AND OR DUP8 SSTORE JUMP JUMPDEST PUSH2 0xF45 JUMP JUMPDEST PUSH1 0x40 MLOAD PUSH3 0x461BCD PUSH1 0xE5 SHL DUP2 MSTORE PUSH1 0x20 PUSH1 0x4 DUP3 ADD MSTORE PUSH1 0x15 PUSH1 0x24 DUP3 ADD MSTORE PUSH21 0x82E4E4C2F240D8CADCCEE8D040DAD2E6DAC2E8C6D PUSH1 0x5B SHL PUSH1 0x44 DUP3 ADD MSTORE PUSH1 0x64 SWAP1 REVERT JUMPDEST POP DUP8 DUP10 EQ PUSH2 0xC28 JUMP JUMPDEST POP DUP7 DUP10 EQ PUSH2 0xC22 JUMP JUMPDEST POP DUP6 DUP10 EQ PUSH2 0xC1C JUMP JUMPDEST PUSH1 0x40 MLOAD PUSH3 0x461BCD PUSH1 0xE5 SHL DUP2 MSTORE PUSH1 0x20 PUSH1 0x4 DUP3 ADD MSTORE PUSH1 0xC PUSH1 0x24 DUP3 ADD MSTORE PUSH12 0x456D70747920617272617973 PUSH1 0xA0 SHL PUSH1 0x44 DUP3 ADD MSTORE PUSH1 0x64 SWAP1 REVERT JUMPDEST PUSH1 0x40 MLOAD PUSH4 0x3EE5AEB5 PUSH1 0xE0 SHL DUP2 MSTORE PUSH1 0x4 SWAP1 REVERT JUMPDEST POP PUSH1 0x0 SLOAD PUSH1 0x1 PUSH1 0x1 PUSH1 0xA0 SHL SUB AND CALLER EQ PUSH2 0xBED JUMP JUMPDEST CALLVALUE PUSH2 0x442 JUMPI PUSH1 0x40 CALLDATASIZE PUSH1 0x3 NOT ADD SLT PUSH2 0x442 JUMPI PUSH1 0x24 CALLDATALOAD PUSH1 0x4 CALLDATALOAD PUSH1 0x0 MSTORE PUSH1 0x4 PUSH1 0x20 MSTORE PUSH1 0x40 PUSH1 0x0 KECCAK256 DUP1 SLOAD DUP3 LT ISZERO PUSH2 0x442 JUMPI PUSH1 0x20 SWAP2 PUSH2 0x115B SWAP2 PUSH2 0x1294 JUMP JUMPDEST SWAP1 SLOAD PUSH1 0x40 MLOAD PUSH1 0x3 SWAP3 SWAP1 SWAP3 SHL SHR PUSH1 0x1 PUSH1 0x1 PUSH1 0xA0 SHL SUB AND DUP2 MSTORE RETURN JUMPDEST CALLVALUE PUSH2 0x442 JUMPI PUSH1 0x0 CALLDATASIZE PUSH1 0x3 NOT ADD SLT PUSH2 0x442 JUMPI PUSH2 0x118D PUSH2 0x1366 JUMP JUMPDEST PUSH1 0x0 SLOAD PUSH1 0xFF DUP2 PUSH1 0xA0 SHR AND ISZERO PUSH2 0x11D4 JUMPI PUSH1 0xFF PUSH1 0xA0 SHL NOT AND PUSH1 0x0 SSTORE PUSH1 0x40 MLOAD CALLER DUP2 MSTORE PUSH32 0x5DB9EE0A495BF2E6FF9C91A7834C1BA4FDD244A5E8AA4E537BD38AEAE4B073AA SWAP1 PUSH1 0x20 SWAP1 LOG1 STOP JUMPDEST PUSH1 0x40 MLOAD PUSH4 0x8DFC202B PUSH1 0xE0 SHL DUP2 MSTORE PUSH1 0x4 SWAP1 REVERT JUMPDEST CALLVALUE PUSH2 0x442 JUMPI PUSH1 0x40 CALLDATASIZE PUSH1 0x3 NOT ADD SLT PUSH2 0x442 JUMPI PUSH1 0xA0 SWAP1 PUSH2 0x1202 PUSH2 0x1268 JUMP JUMPDEST PUSH1 0x4 CALLDATALOAD PUSH1 0x0 MSTORE PUSH1 0x2 PUSH1 0x20 MSTORE PUSH1 0x40 PUSH1 0x0 KECCAK256 SWAP1 PUSH1 0x1 DUP1 DUP6 SHL SUB AND PUSH1 0x0 MSTORE PUSH1 0x20 MSTORE PUSH1 0x1 PUSH1 0x40 PUSH1 0x0 KECCAK256 DUP1 SLOAD SWAP1 PUSH1 0x1 PUSH1 0x1 PUSH1 0x60 SHL SUB SWAP3 DUP4 SWAP2 ADD SLOAD AND SWAP2 DUP2 AND DUP4 MSTORE PUSH4 0xFFFFFFFF SWAP1 DUP2 DUP2 PUSH1 0x60 SHR AND PUSH1 0x20 DUP6 ADD MSTORE DUP2 DUP2 PUSH1 0x80 SHR AND PUSH1 0x40 DUP6 ADD MSTORE DUP5 SHR AND PUSH1 0x60 DUP4 ADD MSTORE PUSH1 0x80 DUP3 ADD MSTORE RETURN JUMPDEST PUSH1 0x24 CALLDATALOAD SWAP1 PUSH1 0x1 PUSH1 0x1 PUSH1 0xA0 SHL SUB DUP3 AND DUP3 SUB PUSH2 0x442 JUMPI JUMP JUMPDEST PUSH1 0x4 CALLDATALOAD SWAP1 PUSH1 0x1 PUSH1 0x1 PUSH1 0xA0 SHL SUB DUP3 AND DUP3 SUB PUSH2 0x442 JUMPI JUMP JUMPDEST DUP1 SLOAD DUP3 LT ISZERO PUSH2 0x12AC JUMPI PUSH1 0x0 MSTORE PUSH1 0x20 PUSH1 0x0 KECCAK256 ADD SWAP1 PUSH1 0x0 SWAP1 JUMP JUMPDEST PUSH4 0x4E487B71 PUSH1 0xE0 SHL PUSH1 0x0 MSTORE PUSH1 0x32 PUSH1 0x4 MSTORE PUSH1 0x24 PUSH1 0x0 REVERT JUMPDEST SWAP2 DUP2 PUSH1 0x1F DUP5 ADD SLT ISZERO PUSH2 0x442 JUMPI DUP3 CALLDATALOAD SWAP2 PUSH8 0xFFFFFFFFFFFFFFFF DUP4 GT PUSH2 0x442 JUMPI PUSH1 0x20 DUP1 DUP6 ADD SWAP5 DUP5 PUSH1 0x5 SHL ADD ADD GT PUSH2 0x442 JUMPI JUMP JUMPDEST PUSH1 0x80 SWAP1 DUP2 PUSH1 0x1 PUSH1 0x1 PUSH1 0x60 SHL SUB SWAP2 DUP3 DUP2 MLOAD AND DUP6 MSTORE PUSH4 0xFFFFFFFF DUP1 PUSH1 0x20 DUP4 ADD MLOAD AND PUSH1 0x20 DUP8 ADD MSTORE DUP1 PUSH1 0x40 DUP4 ADD MLOAD AND PUSH1 0x40 DUP8 ADD MSTORE PUSH1 0x60 DUP3 ADD MLOAD AND PUSH1 0x60 DUP7 ADD MSTORE ADD MLOAD AND SWAP2 ADD MSTORE JUMP JUMPDEST PUSH1 0x1 PUSH1 0x1 PUSH1 0x60 SHL SUB SWAP1 SWAP2 AND DUP2 MSTORE PUSH4 0xFFFFFFFF SWAP2 DUP3 AND PUSH1 0x20 DUP3 ADD MSTORE SWAP2 DUP2 AND PUSH1 0x40 DUP4 ADD MSTORE SWAP1 SWAP2 AND PUSH1 0x60 DUP3 ADD MSTORE PUSH1 0x80 ADD SWAP1 JUMP JUMPDEST PUSH1 0x0 SLOAD PUSH1 0x1 PUSH1 0x1 PUSH1 0xA0 SHL SUB AND CALLER SUB PUSH2 0x137A JUMPI JUMP JUMPDEST PUSH1 0x40 MLOAD PUSH4 0x118CDAA7 PUSH1 0xE0 SHL DUP2 MSTORE CALLER PUSH1 0x4 DUP3 ADD MSTORE PUSH1 0x24 SWAP1 REVERT JUMPDEST ISZERO PUSH2 0x1399 JUMPI JUMP JUMPDEST PUSH1 0x40 MLOAD PUSH3 0x461BCD PUSH1 0xE5 SHL DUP2 MSTORE PUSH1 0x20 PUSH1 0x4 DUP3 ADD MSTORE PUSH1 0x1A PUSH1 0x24 DUP3 ADD MSTORE PUSH32 0x4E6F7420617574686F72697A656420636F6F7264696E61746F72000000000000 PUSH1 0x44 DUP3 ADD MSTORE PUSH1 0x64 SWAP1 REVERT JUMPDEST ISZERO PUSH2 0x13E5 JUMPI JUMP JUMPDEST PUSH1 0x40 MLOAD PUSH3 0x461BCD PUSH1 0xE5 SHL DUP2 MSTORE PUSH1 0x20 PUSH1 0x4 DUP3 ADD MSTORE PUSH1 0x14 PUSH1 0x24 DUP3 ADD MSTORE PUSH20 0x496E76616C6964206E6F64652061646472657373 PUSH1 0x60 SHL PUSH1 0x44 DUP3 ADD MSTORE PUSH1 0x64 SWAP1 REVERT JUMPDEST ISZERO PUSH2 0x1428 JUMPI JUMP JUMPDEST PUSH1 0x40 MLOAD PUSH3 0x461BCD PUSH1 0xE5 SHL DUP2 MSTORE PUSH1 0x20 PUSH1 0x4 DUP3 ADD MSTORE PUSH1 0x1A PUSH1 0x24 DUP3 ADD MSTORE PUSH32 0x5175616C6974792073636F7265206F7574206F662072616E6765000000000000 PUSH1 0x44 DUP3 ADD MSTORE PUSH1 0x64 SWAP1 REVERT JUMPDEST SWAP2 SWAP1 SWAP2 PUSH1 0x1 PUSH1 0x1 PUSH1 0x60 SHL SUB DUP1 DUP1 SWAP5 AND SWAP2 AND ADD SWAP2 DUP3 GT PUSH2 0x1488 JUMPI JUMP JUMPDEST PUSH4 0x4E487B71 PUSH1 0xE0 SHL PUSH1 0x0 MSTORE PUSH1 0x11 PUSH1 0x4 MSTORE PUSH1 0x24 PUSH1 0x0 REVERT JUMPDEST SWAP2 SWAP1 SWAP2 PUSH4 0xFFFFFFFF DUP1 DUP1 SWAP5 AND SWAP2 AND ADD SWAP2 DUP3 GT PUSH2 0x1488 JUMPI JUMP JUMPDEST DUP1 SLOAD PUSH9 0x10000000000000000 DUP2 LT ISZERO PUSH2 0x14F6 JUMPI PUSH2 0x14D8 SWAP2 PUSH1 0x1 DUP3 ADD DUP2 SSTORE PUSH2 0x1294 JUMP JUMPDEST DUP2 SWAP3 SWAP2 SLOAD SWAP1 PUSH1 0x3 SHL SWAP2 PUSH1 0x1 DUP1 PUSH1 0xA0 SHL SUB DUP1 SWAP2 AND DUP4 SHL SWAP3 SHL NOT AND OR SWAP1 SSTORE JUMP JUMPDEST PUSH4 0x4E487B71 PUSH1 0xE0 SHL PUSH1 0x0 MSTORE PUSH1 0x41 PUSH1 0x4 MSTORE PUSH1 0x24 PUSH1 0x0 REVERT JUMPDEST PUSH4 0xFFFFFFFF DUP1 SWAP2 AND SWAP1 DUP2 EQ PUSH2 0x1488 JUMPI PUSH1 0x1 ADD SWAP1 JUMP JUMPDEST PUSH1 0xFF PUSH1 0x0 SLOAD PUSH1 0xA0 SHR AND PUSH2 0x1530 JUMPI JUMP JUMPDEST PUSH1 0x40 MLOAD PUSH4 0xD93C0665 PUSH1 0xE0 SHL DUP2 MSTORE PUSH1 0x4 SWAP1 REVERT JUMPDEST PUSH1 0x0 NOT DUP2 EQ PUSH2 0x1488 JUMPI PUSH1 0x1 ADD SWAP1 JUMP JUMPDEST SWAP2 SWAP1 DUP2 LT ISZERO PUSH2 0x12AC JUMPI PUSH1 0x5 SHL ADD SWAP1 JUMP JUMPDEST CALLDATALOAD PUSH1 0x1 PUSH1 0x1 PUSH1 0xA0 SHL SUB DUP2 AND DUP2 SUB PUSH2 0x442 JUMPI SWAP1 JUMP JUMPDEST CALLDATALOAD PUSH4 0xFFFFFFFF DUP2 AND DUP2 SUB PUSH2 0x442 JUMPI SWAP1 JUMP JUMPDEST CALLDATALOAD PUSH1 0x1 PUSH1 0x1 PUSH1 0x60 SHL SUB DUP2 AND DUP2 SUB PUSH2 0x442 JUMPI SWAP1 JUMP JUMPDEST PUSH1 0xA0 DUP2 ADD SWAP1 DUP2 LT PUSH8 0xFFFFFFFFFFFFFFFF DUP3 GT OR PUSH2 0x14F6 JUMPI PUSH1 0x40 MSTORE JUMP JUMPDEST PUSH1 0x80 DUP2 ADD SWAP1 DUP2 LT PUSH8 0xFFFFFFFFFFFFFFFF DUP3 GT OR PUSH2 0x14F6 JUMPI PUSH1 0x40 MSTORE JUMP JUMPDEST SWAP1 PUSH1 0x1F DUP1 NOT SWAP2 ADD AND DUP2 ADD SWAP1 DUP2 LT PUSH8 0xFFFFFFFFFFFFFFFF DUP3 GT OR PUSH2 0x14F6 JUMPI PUSH1 0x40 MSTORE JUMP JUMPDEST PUSH1 0x40 MLOAD SWAP1 PUSH2 0x1601 DUP3 PUSH2 0x159A JUMP JUMPDEST PUSH1 0x0 PUSH1 0x80 DUP4 DUP3 DUP2 MSTORE DUP3 PUSH1 0x20 DUP3 ADD MSTORE DUP3 PUSH1 0x40 DUP3 ADD MSTORE DUP3 PUSH1 0x60 DUP3 ADD MSTORE ADD MSTORE JUMP JUMPDEST PUSH8 0xFFFFFFFFFFFFFFFF DUP2 GT PUSH2 0x14F6 JUMPI PUSH1 0x5 SHL PUSH1 0x20 ADD SWAP1 JUMP JUMPDEST DUP1 MLOAD DUP3 LT ISZERO PUSH2 0x12AC JUMPI PUSH1 0x20 SWAP2 PUSH1 0x5 SHL ADD ADD SWAP1 JUMP JUMPDEST SWAP1 PUSH1 0x0 SWAP2 DUP1 DUP4 MSTORE PUSH1 0x3 PUSH1 0x20 MSTORE PUSH1 0x40 SWAP2 DUP3 DUP5 KECCAK256 SWAP1 DUP4 MLOAD SWAP2 PUSH2 0x166A DUP4 PUSH2 0x15B6 JUMP JUMPDEST SLOAD SWAP1 PUSH1 0x1 PUSH1 0x1 PUSH1 0x60 SHL SUB SWAP4 DUP5 DUP4 AND DUP1 DUP6 MSTORE PUSH4 0xFFFFFFFF DUP5 DUP2 DUP1 SWAP7 PUSH1 0x60 SHR AND PUSH1 0x20 DUP9 ADD MSTORE DUP2 DUP2 PUSH1 0x80 SHR AND DUP10 DUP9 ADD MSTORE PUSH1 0xA0 SHR AND PUSH1 0x60 DUP7 ADD MSTORE ISZERO PUSH2 0x1747 JUMPI DUP7 MSTORE PUSH1 0x2 PUSH1 0x20 MSTORE DUP5 DUP7 KECCAK256 SWAP1 PUSH1 0x1 DUP1 PUSH1 0xA0 SHL SUB AND DUP7 MSTORE PUSH1 0x20 MSTORE PUSH1 0x80 DUP4 PUSH1 0x1 DUP7 DUP9 KECCAK256 DUP8 MLOAD SWAP5 PUSH2 0x16D1 DUP7 PUSH2 0x159A JUMP JUMPDEST DUP2 SLOAD DUP5 DUP2 AND SWAP10 DUP11 DUP9 MSTORE DUP3 DUP3 PUSH1 0x60 SHR AND PUSH1 0x20 DUP10 ADD MSTORE DUP3 DUP3 DUP9 SHR AND SWAP1 DUP9 ADD MSTORE PUSH1 0xA0 SHR AND PUSH1 0x60 DUP7 ADD MSTORE ADD SLOAD AND SWAP2 ADD MSTORE PUSH2 0x2710 SWAP3 DUP4 DUP2 MUL SWAP4 DUP2 DUP6 DIV EQ SWAP1 ISZERO OR ISZERO PUSH2 0x1733 JUMPI MLOAD AND SWAP2 DUP3 ISZERO PUSH2 0x171F JUMPI POP DIV SWAP1 JUMP JUMPDEST PUSH4 0x4E487B71 PUSH1 0xE0 SHL DUP2 MSTORE PUSH1 0x12 PUSH1 0x4 MSTORE PUSH1 0x24 SWAP1 REVERT JUMPDEST PUSH4 0x4E487B71 PUSH1 0xE0 SHL DUP5 MSTORE PUSH1 0x11 PUSH1 0x4 MSTORE PUSH1 0x24 DUP5 REVERT JUMPDEST POP POP POP POP POP POP SWAP1 JUMP INVALID LOG2 PUSH5 0x6970667358 0x22 SLT KECCAK256 0xDF 0xB9 SWAP15 PUSH31 0xD9D7FBD5FA7C93214736C0D2928DB8DD5D34178F3AF0B0DACF07C1F064736F PUSH13 0x63430008140033000000000000 "},"methodIdentifiers":{"authorizedCoordinators(address)":"674e1d45","contributions(bytes32,address)":"1ac44b95","getContribution(bytes32,address)":"6693643f","getContributionPercentage(bytes32,address)":"d57e39ef","getContributionsBatch(bytes32,address[])":"575adac9","getSessionContributors(bytes32)":"8042c16c","getSessionTotal(bytes32)":"cc5ec54a","hasContributed(bytes32,address)":"d8a3950e","owner()":"8da5cb5b","pause()":"8456cb59","paused()":"5c975abb","recordContribution(bytes32,address,uint96,uint32,uint32,uint32)":"f31922ee","recordContributionsBatch(bytes32,address[],uint96[],uint32[],uint32[],uint32[])":"531cc847","renounceOwnership()":"715018a6","sessionContributors(bytes32,uint256)":"52269f3a","sessionTotals(bytes32)":"e1e96745","setCoordinatorAuthorization(address,bool)":"5414c649","transferOwnership(address)":"f2fde38b","unpause()":"3f4ba83a"}}}}}