{"contracts/TrainingRegistry.sol":{"TrainingRegistry":{"abi":[{"inputs":[{"internalType":"address","name":"initialOwner","type":"address"}],"stateMutability":"nonpayable","type":"constructor"},{"inputs":[],"name":"EnforcedPause","type":"error"},{"inputs":[],"name":"ExpectedPause","type":"error"},{"inputs":[{"internalType":"address","name":"owner","type":"address"}],"name":"OwnableInvalidOwner","type":"error"},{"inputs":[{"internalType":"address","name":"account","type":"address"}],"name":"OwnableUnauthorizedAccount","type":"error"},{"inputs":[],"name":"ReentrancyGuardReentrantCall","type":"error"},{"anonymous":false,"inputs":[{"indexed":true,"internalType":"address","name":"coordinator","type":"address"},{"indexed":false,"internalType":"bool","name":"status","type":"bool"}],"name":"CoordinatorAuthorized","type":"event"},{"anonymous":false,"inputs":[{"indexed":true,"internalType":"bytes32","name":"sessionId","type":"bytes32"},{"indexed":true,"internalType":"address","name":"nodeAddress","type":"address"},{"indexed":false,"internalType":"uint96","name":"timestamp","type":"uint96"}],"name":"NodeDeactivated","type":"event"},{"anonymous":false,"inputs":[{"indexed":true,"internalType":"bytes32","name":"sessionId","type":"bytes32"},{"indexed":true,"internalType":"address","name":"nodeAddress","type":"address"},{"indexed":false,"internalType":"string","name":"nodeId","type":"string"},{"indexed":false,"internalType":"uint96","name":"timestamp","type":"uint96"}],"name":"NodeRegistered","type":"event"},{"anonymous":false,"inputs":[{"indexed":true,"internalType":"address","name":"previousOwner","type":"address"},{"indexed":true,"internalType":"address","name":"newOwner","type":"address"}],"name":"OwnershipTransferred","type":"event"},{"anonymous":false,"inputs":[{"indexed":false,"internalType":"address","name":"account","type":"address"}],"name":"Paused","type":"event"},{"anonymous":false,"inputs":[{"indexed":true,"internalType":"bytes32","name":"sessionId","type":"bytes32"},{"indexed":false,"internalType":"uint96","name":"cancelledAt","type":"uint96"}],"name":"SessionCancelled","type":"event"},{"anonymous":false,"inputs":[{"indexed":true,"internalType":"bytes32","name":"sessionId","type":"bytes32"},{"indexed":false,"internalType":"uint96","name":"endTime","type":"uint96"},{"indexed":false,"internalType":"uint32","name":"nodeCount","type":"uint32"}],"name":"SessionCompleted","type":"event"},{"anonymous":false,"inputs":[{"indexed":true,"internalType":"bytes32","name":"sessionId","type":"bytes32"},{"indexed":true,"internalType":"address","name":"coordinator","type":"address"},{"indexed":false,"internalType":"bytes32","name":"modelHash","type":"bytes32"},{"indexed":false,"internalType":"uint96","name":"startTime","type":"uint96"}],"name":"SessionCreated","type":"event"},{"anonymous":false,"inputs":[{"indexed":false,"internalType":"address","name":"account","type":"address"}],"name":"Unpaused","type":"event"},{"inputs":[{"internalType":"uint256","name":"","type":"uint256"}],"name":"allSessions","outputs":[{"internalType":"bytes32","name":"","type":"bytes32"}],"stateMutability":"view","type":"function"},{"inputs":[{"internalType":"address","name":"","type":"address"}],"name":"authorizedCoordinators","outputs":[{"internalType":"bool","name":"","type":"bool"}],"stateMutability":"view","type":"function"},{"inputs":[{"internalType":"bytes32","name":"_sessionId","type":"bytes32"}],"name":"cancelSession","outputs":[],"stateMutability":"nonpayable","type":"function"},{"inputs":[{"internalType":"bytes32","name":"_sessionId","type":"bytes32"}],"name":"completeSession","outputs":[],"stateMutability":"nonpayable","type":"function"},{"inputs":[{"internalType":"bytes32","name":"_sessionId","type":"bytes32"},{"internalType":"bytes32","name":"_modelHash","type":"bytes32"}],"name":"createSession","outputs":[],"stateMutability":"nonpayable","type":"function"},{"inputs":[{"internalType":"bytes32","name":"_sessionId","type":"bytes32"},{"internalType":"address","name":"_nodeAddress","type":"address"}],"name":"deactivateNode","outputs":[],"stateMutability":"nonpayable","type":"function"},{"inputs":[{"internalType":"bytes32","name":"_sessionId","type":"bytes32"},{"internalType":"address","name":"_nodeAddress","type":"address"}],"name":"getNodeRegistration","outputs":[{"components":[{"internalType":"address","name":"nodeAddress","type":"address"},{"internalType":"string","name":"nodeId","type":"string"},{"internalType":"uint96","name":"registeredAt","type":"uint96"},{"internalType":"bool","name":"isActive","type":"bool"}],"internalType":"struct TrainingRegistry.NodeRegistration","name":"","type":"tuple"}],"stateMutability":"view","type":"function"},{"inputs":[{"internalType":"bytes32","name":"_sessionId","type":"bytes32"}],"name":"getSession","outputs":[{"components":[{"internalType":"bytes32","name":"sessionId","type":"bytes32"},{"internalType":"uint96","name":"startTime","type":"uint96"},{"internalType":"uint96","name":"endTime","type":"uint96"},{"internalType":"bytes32","name":"modelHash","type":"bytes32"},{"internalType":"enum TrainingRegistry.SessionStatus","name":"status","type":"uint8"},{"internalType":"uint32","name":"nodeCount","type":"uint32"},{"internalType":"address","name":"coordinator","type":"address"}],"internalType":"struct TrainingRegistry.TrainingSession","name":"","type":"tuple"}],"stateMutability":"view","type":"function"},{"inputs":[{"internalType":"bytes32","name":"_sessionId","type":"bytes32"}],"name":"getSessionNodes","outputs":[{"internalType":"address[]","name":"","type":"address[]"}],"stateMutability":"view","type":"function"},{"inputs":[],"name":"getTotalSessions","outputs":[{"internalType":"uint256","name":"","type":"uint256"}],"stateMutability":"view","type":"function"},{"inputs":[],"name":"owner","outputs":[{"internalType":"address","name":"","type":"address"}],"stateMutability":"view","type":"function"},{"inputs":[],"name":"pause","outputs":[],"stateMutability":"nonpayable","type":"function"},{"inputs":[],"name":"paused","outputs":[{"internalType":"bool","name":"","type":"bool"}],"stateMutability":"view","type":"function"},{"inputs":[{"internalType":"bytes32","name":"_sessionId","type":"bytes32"},{"internalType":"address","name":"_nodeAddress","type":"address"},{"internalType":"string","name":"_nodeId","type":"string"}],"name":"registerNode","outputs":[],"stateMutability":"nonpayable","type":"function"},{"inputs":[{"internalType":"bytes32","name":"_sessionId","type":"bytes32"},{"internalType":"address[]","name":"_nodeAddresses","type":"address[]"},{"internalType":"string[]","name":"_nodeIds","type":"string[]"}],"name":"registerNodesBatch","outputs":[],"stateMutability":"nonpayable","type":"function"},{"inputs":[],"name":"renounceOwnership","outputs":[],"stateMutability":"nonpayable","type":"function"},{"inputs":[{"internalType":"bytes32","name":"","type":"bytes32"},{"internalType":"uint256","name":"","type":"uint256"}],"name":"sessionNodeList","outputs":[{"internalType":"address","name":"","type":"address"}],"stateMutability":"view","type":"function"},{"inputs":[{"internalType":"bytes32","name":"","type":"bytes32"},{"internalType":"address","name":"","type":"address"}],"name":"sessionNodes","outputs":[{"internalType":"address","name":"nodeAddress","type":"address"},{"internalType":"string","name":"nodeId","type":"string"},{"internalType":"uint96","name":"registeredAt","type":"uint96"},{"internalType":"bool","name":"isActive","type":"bool"}],"stateMutability":"view","type":"function"},{"inputs":[{"internalType":"bytes32","name":"","type":"bytes32"}],"name":"sessions","outputs":[{"internalType":"bytes32","name":"sessionId","type":"bytes32"},{"internalType":"uint96","name":"startTime","type":"uint96"},{"internalType":"uint96","name":"endTime","type":"uint96"},{"internalType":"bytes32","name":"modelHash","type":"bytes32"},{"internalType":"enum TrainingRegistry.SessionStatus","name":"status","type":"uint8"},{"internalType":"uint32","name":"nodeCount","type":"uint32"},{"internalType":"address","name":"coordinator","type":"address"}],"stateMutability":"view","type":"function"},{"inputs":[{"internalType":"address","name":"_coordinator","type":"address"},{"internalType":"bool","name":"_status","type":"bool"}],"name":"setCoordinatorAuthorization","outputs":[],"stateMutability":"nonpayable","type":"function"},{"inputs":[{"internalType":"address","name":"newOwner","type":"address"}],"name":"transferOwnership","outputs":[],"stateMutability":"nonpayable","type":"function"},{"inputs":[],"name":"unpause","outputs":[],"stateMutability":"nonpayable","type":"function"}],"evm":{"bytecode":{"linkReferences":{},"object":"6080346100d657601f611d3438819003918201601f19168301916001600160401b038311848410176100db578084926020946040528339810103126100d657516001600160a01b0390818116908190036100d65780156100bd57600080546001600160a01b03198116831782556040805194909391167f8be0079c531659141344cd1fd0a4f28419497f9722a3daafe3b4186f6b6457e08380a360018055338152600660205220600160ff19825416179055611c4290816100f28239f35b604051631e4fbdf760e01b815260006004820152602490fd5b600080fd5b634e487b7160e01b600052604160045260246000fdfe6080604052600436101561001257600080fd5b60003560e01c80631d764ed5146112645780632aeafccd1461113057806339b240bd1461101f5780633f4ba83a14610fad578063410ece4e14610ef55780634d21398214610de2578063535ef13b14610cfd5780635414c64914610c325780635c975abb14610c0c5780636073e4b714610bee578063674e1d4514610baf578063715018a614610b5657806376592bee146109455780637dbd2832146108b6578063821ca6971461047c5780638456cb591461041a5780638a060754146102de5780638da5cb5b146102b5578063af453f9514610263578063c3f3e9b7146101d3578063d9cc134c1461019c5763f2fde38b1461010e57600080fd5b34610197576020366003190112610197576101276117af565b61012f61199b565b6001600160a01b0390811690811561017e57600054826001600160601b0360a01b821617600055167f8be0079c531659141344cd1fd0a4f28419497f9722a3daafe3b4186f6b6457e0600080a3005b604051631e4fbdf760e01b815260006004820152602490fd5b600080fd5b3461019757602036600319011261019757600435600554811015610197576101c5602091611812565b90546040519160031b1c8152f35b34610197576040366003190112610197576101ec611799565b6004356000526003602052604060002060018060a01b038092166000526020526040600020908154166002610223600184016118f5565b92015460ff61024460405194859485526080602086015260808501906117d2565b916001600160601b038116604085015260601c16151560608301520390f35b34610197576040366003190112610197576024356004356000526004602052604060002080548210156101975760209161029c91611849565b905460405160039290921b1c6001600160a01b03168152f35b34610197576000366003190112610197576000546040516001600160a01b039091168152602090f35b34610197576020806003193601126101975760043590336000526006815260ff604060002054168015610406575b610315906119c7565b81600052600281526001600160601b0361033a81600160406000200154161515611a34565b826000526002825260ff600360406000200154169060038210156103f0577f6ce9facd3559bd7c93877063d63e12b0d69a2c7888618b225dbf6dd83be395949263ffffffff60019261038e60409515611a79565b60008781526002845285902060038101805460ff191686178155940180546bffffffffffffffffffffffff60601b191642909216606081901b6bffffffffffffffffffffffff60601b16929092179055925460081c16908351928352820152a2005b634e487b7160e01b600052602160045260246000fd5b506000546001600160a01b0316331461030c565b346101975760003660031901126101975761043361199b565b61043b611a13565b6000805460ff60a01b1916600160a01b1790556040513381527f62e78cea01bee320cd4e420270b5ea74000d11b0c9f74754ebdbfc544b05a25890602090a1005b3461019757606036600319011261019757610495611799565b60443567ffffffffffffffff811161019757366023820112156101975767ffffffffffffffff816004013511610197573660248260040135830101116101975733600052600660205260ff6040600020541680156108a2575b6104f7906119c7565b600435600052600260205261051e6001600160601b03600160406000200154161515611a34565b600435600052600260205260ff6003604060002001541660038110156103f0576105489015611a79565b610550611a13565b6105646001600160a01b0383161515611aba565b61057381600401351515611afd565b6004356000526003602052604060002060018060a01b03831660005260205260ff60026040600020015460601c1661085d576040516105b18161189b565b6001600160a01b03831681526105cf36600484013560248501611b3b565b6020828101918252426001600160601b0316604080850191909152600160608501526004356000908152600383528181206001600160a01b038881168352935220835181546001600160a01b0319169216919091178155905180519067ffffffffffffffff8211610847576106476001840154611861565b601f8111610800575b50602090601f83116001146107875792826060936002936106ca979660009261077c575b50508160011b916000199060031b1c19161760018201555b60408401519101805492909301516cffffffffffffffffffffffffff199092166001600160601b03919091161790151560601b60ff60601b16179055565b60043560005260046020526106e3826040600020611b82565b6004356000526002602052610727600360406000200161070c63ffffffff825460081c16611bbd565b64ffffffff0082549160081b169064ffffffff001916179055565b7f87a4055667778b9ceaf7a004e7a548a62f0ea37007956ddf2b3dceb3fc917ef96040519260018060a01b03169280610777600435946001600160601b0342169060248160040135910184611bd2565b0390a3005b015190508980610674565b906001840160005260206000209160005b601f19851681106107e85750836002936106ca979693600193606097601f198116106107cf575b505050811b01600182015561068c565b015160001960f88460031b161c191690558980806107bf565b91926020600181928685015181550194019201610798565b600184016000526020600020601f840160051c810160208510610840575b601f830160051c82018110610834575050610650565b6000815560010161081e565b508061081e565b634e487b7160e01b600052604160045260246000fd5b60405162461bcd60e51b815260206004820152601760248201527f4e6f646520616c726561647920726567697374657265640000000000000000006044820152606490fd5b506000546001600160a01b031633146104ee565b3461019757602036600319011261019757600435600052600260205260e0604060002080549060018101549060036002820154910154916040519384526001600160601b0390818116602086015260601c16604084015260608301526109226080830160ff83166117c5565b600881901c63ffffffff1660a083015260281c6001600160a01b031660c0820152f35b3461019757604036600319011261019757600435602435903360005260206006815260ff604060002054168015610b42575b610980906119c7565b610988611a13565b81600052600281526001600160601b03908160016040600020015416610b0557814216916040516109b8816118b7565b84815282810191848352600360408301926000845260608101898152610a4160808301966000885260a08401956000875260c08501973389528c60005260028b5260406000209551865581600187019351166001600160601b031984541617835551168154906001600160601b0360601b9060601b16906001600160601b0360601b1916179055565b51600282015501925160038110156103f0578354915164ffffffffff1990921660ff9091161760089190911b64ffffffff001617825551815465010000000000600160c81b03191660289190911b65010000000000600160c81b0316179055600554600160401b81101561084757806001610abf9201600555611812565b81549060031b9085821b91600019901b19161790556040519384528301527f78b1c5cda95b0467176618a3ee95da5b5a84abd9cce45109a81d465b76b9dbd460403393a3005b6064906040519062461bcd60e51b82526004820152601660248201527553657373696f6e20616c72656164792065786973747360501b6044820152fd5b506000546001600160a01b03163314610977565b3461019757600036600319011261019757610b6f61199b565b600080546001600160a01b0319811682556001600160a01b03167f8be0079c531659141344cd1fd0a4f28419497f9722a3daafe3b4186f6b6457e08280a3005b34610197576020366003190112610197576001600160a01b03610bd06117af565b166000526006602052602060ff604060002054166040519015158152f35b34610197576000366003190112610197576020600554604051908152f35b3461019757600036600319011261019757602060ff60005460a01c166040519015158152f35b3461019757604036600319011261019757610c4b6117af565b6024359081151580920361019757610c6161199b565b6001600160a01b0316908115610cb85760207fa755b73ca9ab5908508aef0b2cde25ffc1caf1b79f4833e57436d517461ca6be918360005260068252604060002060ff1981541660ff8316179055604051908152a2005b60405162461bcd60e51b815260206004820152601b60248201527f496e76616c696420636f6f7264696e61746f72206164647265737300000000006044820152606490fd5b3461019757604036600319011261019757610d16611799565b604051610d228161189b565b60008152600060606020928184820152826040820152015260043560005260038152604060002060018060a01b038093166000528152604060002060405191610d6a8361189b565b8382541683526002610d7e600184016118f5565b92828501938452015490610dce60408501936001600160601b0392838516865260ff606088019560601c1615158552604051978897828952511690870152516080604087015260a08601906117d2565b925116606084015251151560808301520390f35b34610197576020806003193601126101975760043590336000526006815260ff604060002054168015610ee1575b610e19906119c7565b81600052600281526001600160601b0390610e3f82600160406000200154161515611a34565b826000526002815260ff600360406000200154169160038310156103f057610ed8600191610e8e7f4ada0ad1918d982abd72b58925b80347571c19a9d8cd7b2f86c28c7b9f06b55a9515611a79565b856000526002845260406000209060038201600260ff19825416179055421692839101908154906001600160601b0360601b9060601b16906001600160601b0360601b1916179055565b604051908152a2005b506000546001600160a01b03163314610e10565b34610197576020806003193601126101975760043560005260048152604060002060405190818382549182815201908192600052846000209060005b86828210610f90578686610f47828803836118d3565b604051928392818401908285525180915260408401929160005b828110610f7057505050500390f35b83516001600160a01b031685528695509381019392810192600101610f61565b83546001600160a01b031685529093019260019283019201610f31565b3461019757600036600319011261019757610fc661199b565b60005460ff8160a01c161561100d5760ff60a01b19166000556040513381527f5db9ee0a495bf2e6ff9c91a7834c1ba4fdd244a5e8aa4e537bd38aeae4b073aa90602090a1005b604051638dfc202b60e01b8152600490fd5b3461019757602036600319011261019757600060c0604051611040816118b7565b8281528260208201528260408201528260608201528260808201528260a082015201526004356000526002602052604060002060405161107f816118b7565b815481526001820154602082016001600160601b0391828116825282604085019160601c16815260036002860154956060860196875201549260ff84166080860160038210156103f05760e09761112092825260a088019363ffffffff95868960081c1686528160c08b019860018060a01b03809b60281c168a526040519b518c52511660208b0152511660408901525160608801525160808701906117c5565b511660a0840152511660c0820152f35b346101975760403660031901126101975760043561114c611799565b903360005260206006815260ff604060002054168015611250575b611170906119c7565b81600052600281526001600160601b0361119581600160406000200154161515611a34565b60008381526003835260408082206001600160a01b0390961680835295845290206002015460601c60ff161561121957907f6e10c3cc2633d30ec458e3f871bc7b2d36501151e91e16d82b868a81c6c019439183600052600382526040600020856000528252600260406000200160ff60601b1981541690556040519042168152a3005b60405162461bcd60e51b815260048101839052600f60248201526e4e6f6465206e6f742061637469766560881b6044820152606490fd5b506000546001600160a01b03163314611167565b346101975760603660031901126101975760243567ffffffffffffffff811161019757611295903690600401611768565b9060443567ffffffffffffffff8111610197576112b6903690600401611768565b33600052600660205260ff604060002054168015611754575b6112d8906119c7565b60043560005260026020526112ff6001600160601b03600160406000200154161515611a34565b600435600052600260205260ff6003604060002001541660038110156103f0576113299015611a79565b611331611a13565b8084036117175783156116e35760005b84811061134a57005b600581901b8401356001600160a01b038116900361019757818110156116cd578060051b830135601e198436030181121561019757830167ffffffffffffffff81351161019757803536036020820113610197576113b9600583901b8601356001600160a01b03161515611aba565b6113c581351515611afd565b6004356000526003602052604060002060018060a01b038360051b8701351660005260205260ff60026040600020015460601c1615611427575b50600019811461141157600101611341565b634e487b7160e01b600052601160045260246000fd5b6040516114338161189b565b600583901b8601356001600160a01b0316815261145536833560208501611b3b565b60208201526001600160601b0342166040820152600160608201526004356000526003602052604060002060018060a01b038460051b88013516600052602052604060002060018060a01b038251166001600160601b0360a01b825416178155602082015180519067ffffffffffffffff8211610847576114d96001840154611861565b601f8111611686575b50602090601f831160011461160e57928260609360029361155a97966000926116035750508160011b916000199060031b1c191617600182015560408401519101805492909301516cffffffffffffffffffffffffff199092166001600160601b03919091161790151560601b60ff60601b16179055565b60043560005260046020526115798260051b8601356040600020611b82565b60043560005260026020526115a2600360406000200161070c63ffffffff825460081c16611bbd565b604051600583901b8601356001600160a01b031691600435917f87a4055667778b9ceaf7a004e7a548a62f0ea37007956ddf2b3dceb3fc917ef99181906115fa90426001600160601b03169080359060200184611bd2565b0390a3856113ff565b015190508d80610674565b906001840160005260206000209160005b601f198516811061166e57508360029361155a979693600193606097601f1981161061165557505050811b01600182015561068c565b015160001960f88460031b161c191690558d80806107bf565b9192602060018192868501518155019401920161161f565b600184016000526020600020601f840160051c8101602085106116c6575b601f830160051c820181106116ba5750506114e2565b600081556001016116a4565b50806116a4565b634e487b7160e01b600052603260045260246000fd5b60405162461bcd60e51b815260206004820152600c60248201526b456d7074792061727261797360a01b6044820152606490fd5b60405162461bcd60e51b8152602060048201526015602482015274082e4e4c2f240d8cadccee8d040dad2e6dac2e8c6d605b1b6044820152606490fd5b506000546001600160a01b031633146112cf565b9181601f840112156101975782359167ffffffffffffffff8311610197576020808501948460051b01011161019757565b602435906001600160a01b038216820361019757565b600435906001600160a01b038216820361019757565b9060038210156103f05752565b919082519283825260005b8481106117fe575050826000602080949584010152601f8019910116010190565b6020818301810151848301820152016117dd565b6005548110156116cd5760056000527f036b6384b5eca791c62761152d0c79bb0604c104a5fb6f4eb0703f3154bb3db00190600090565b80548210156116cd5760005260206000200190600090565b90600182811c92168015611891575b602083101461187b57565b634e487b7160e01b600052602260045260246000fd5b91607f1691611870565b6080810190811067ffffffffffffffff82111761084757604052565b60e0810190811067ffffffffffffffff82111761084757604052565b90601f8019910116810190811067ffffffffffffffff82111761084757604052565b906040519182600082549261190984611861565b9081845260019485811690816000146119785750600114611935575b5050611933925003836118d3565b565b9093915060005260209081600020936000915b81831061196057505061193393508201013880611925565b85548884018501529485019487945091830191611948565b91505061193394506020925060ff191682840152151560051b8201013880611925565b6000546001600160a01b031633036119af57565b60405163118cdaa760e01b8152336004820152602490fd5b156119ce57565b60405162461bcd60e51b815260206004820152601a60248201527f4e6f7420617574686f72697a656420636f6f7264696e61746f720000000000006044820152606490fd5b60ff60005460a01c16611a2257565b60405163d93c066560e01b8152600490fd5b15611a3b57565b60405162461bcd60e51b815260206004820152601660248201527514d95cdcda5bdb88191bd95cc81b9bdd08195e1a5cdd60521b6044820152606490fd5b15611a8057565b60405162461bcd60e51b815260206004820152601260248201527153657373696f6e206e6f742061637469766560701b6044820152606490fd5b15611ac157565b60405162461bcd60e51b8152602060048201526014602482015273496e76616c6964206e6f6465206164647265737360601b6044820152606490fd5b15611b0457565b60405162461bcd60e51b815260206004820152600f60248201526e125b9d985b1a59081b9bd919481251608a1b6044820152606490fd5b92919267ffffffffffffffff82116108475760405191611b65601f8201601f1916602001846118d3565b829481845281830111610197578281602093846000960137010152565b8054600160401b81101561084757611b9f91600182018155611849565b819291549060031b9160018060a01b03809116831b921b1916179055565b63ffffffff8091169081146114115760010190565b916060816001600160601b039260209497969760408752816040880152838701376000828287010152601f8019910116840101941691015256fea26469706673582212204dd9b28d502cf7091e73ebf72891f65904efb81595dffc3e967a53b5c0e156fa64736f6c63430008140033","opcodes":"PUSH1 0x80 CALLVALUE PUSH2 0xD6 JUMPI PUSH1 0x1F PUSH2 0x1D34 CODESIZE DUP2 SWAP1 SUB SWAP2 DUP3 ADD PUSH1 0x1F NOT AND DUP4 ADD SWAP2 PUSH1 0x1 PUSH1 0x1 PUSH1 0x40 SHL SUB DUP4 GT DUP5 DUP5 LT OR PUSH2 0xDB JUMPI DUP1 DUP5 SWAP3 PUSH1 0x20 SWAP5 PUSH1 0x40 MSTORE DUP4 CODECOPY DUP2 ADD SUB SLT PUSH2 0xD6 JUMPI MLOAD PUSH1 0x1 PUSH1 0x1 PUSH1 0xA0 SHL SUB SWAP1 DUP2 DUP2 AND SWAP1 DUP2 SWAP1 SUB PUSH2 0xD6 JUMPI DUP1 ISZERO PUSH2 0xBD JUMPI PUSH1 0x0 DUP1 SLOAD PUSH1 0x1 PUSH1 0x1 PUSH1 0xA0 SHL SUB NOT DUP2 AND DUP4 OR DUP3 SSTORE PUSH1 0x40 DUP1 MLOAD SWAP5 SWAP1 SWAP4 SWAP2 AND PUSH32 0x8BE0079C531659141344CD1FD0A4F28419497F9722A3DAAFE3B4186F6B6457E0 DUP4 DUP1 LOG3 PUSH1 0x1 DUP1 SSTORE CALLER DUP2 MSTORE PUSH1 0x6 PUSH1 0x20 MSTORE KECCAK256 PUSH1 0x1 PUSH1 0xFF NOT DUP3 SLOAD AND OR SWAP1 SSTORE PUSH2 0x1C42 SWAP1 DUP2 PUSH2 0xF2 DUP3 CODECOPY RETURN JUMPDEST PUSH1 0x40 MLOAD PUSH4 0x1E4FBDF7 PUSH1 0xE0 SHL DUP2 MSTORE PUSH1 0x0 PUSH1 0x4 DUP3 ADD MSTORE PUSH1 0x24 SWAP1 REVERT JUMPDEST PUSH1 0x0 DUP1 REVERT JUMPDEST PUSH4 0x4E487B71 PUSH1 0xE0 SHL PUSH1 0x0 MSTORE PUSH1 0x41 PUSH1 0x4 MSTORE PUSH1 0x24 PUSH1 0x0 REVERT INVALID PUSH1 0x80 PUSH1 0x40 MSTORE PUSH1 0x4 CALLDATASIZE LT ISZERO PUSH2 0x12 JUMPI PUSH1 0x0 DUP1 REVERT JUMPDEST PUSH1 0x0 CALLDATALOAD PUSH1 0xE0 SHR DUP1 PUSH4 0x1D764ED5 EQ PUSH2 0x1264 JUMPI DUP1 PUSH4 0x2AEAFCCD EQ PUSH2 0x1130 JUMPI DUP1 PUSH4 0x39B240BD EQ PUSH2 0x101F JUMPI DUP1 PUSH4 0x3F4BA83A EQ PUSH2 0xFAD JUMPI DUP1 PUSH4 0x410ECE4E EQ PUSH2 0xEF5 JUMPI DUP1 PUSH4 0x4D213982 EQ PUSH2 0xDE2 JUMPI DUP1 PUSH4 0x535EF13B EQ PUSH2 0xCFD JUMPI DUP1 PUSH4 0x5414C649 EQ PUSH2 0xC32 JUMPI DUP1 PUSH4 0x5C975ABB EQ PUSH2 0xC0C JUMPI DUP1 PUSH4 0x6073E4B7 EQ PUSH2 0xBEE JUMPI DUP1 PUSH4 0x674E1D45 EQ PUSH2 0xBAF JUMPI DUP1 PUSH4 0x715018A6 EQ PUSH2 0xB56 JUMPI DUP1 PUSH4 0x76592BEE EQ PUSH2 0x945 JUMPI DUP1 PUSH4 0x7DBD2832 EQ PUSH2 0x8B6 JUMPI DUP1 PUSH4 0x821CA697 EQ PUSH2 0x47C JUMPI DUP1 PUSH4 0x8456CB59 EQ PUSH2 0x41A JUMPI DUP1 PUSH4 0x8A060754 EQ PUSH2 0x2DE JUMPI DUP1 PUSH4 0x8DA5CB5B EQ PUSH2 0x2B5 JUMPI DUP1 PUSH4 0xAF453F95 EQ PUSH2 0x263 JUMPI DUP1 PUSH4 0xC3F3E9B7 EQ PUSH2 0x1D3 JUMPI DUP1 PUSH4 0xD9CC134C EQ PUSH2 0x19C JUMPI PUSH4 0xF2FDE38B EQ PUSH2 0x10E JUMPI PUSH1 0x0 DUP1 REVERT JUMPDEST CALLVALUE PUSH2 0x197 JUMPI PUSH1 0x20 CALLDATASIZE PUSH1 0x3 NOT ADD SLT PUSH2 0x197 JUMPI PUSH2 0x127 PUSH2 0x17AF JUMP JUMPDEST PUSH2 0x12F PUSH2 0x199B JUMP JUMPDEST PUSH1 0x1 PUSH1 0x1 PUSH1 0xA0 SHL SUB SWAP1 DUP2 AND SWAP1 DUP2 ISZERO PUSH2 0x17E JUMPI PUSH1 0x0 SLOAD DUP3 PUSH1 0x1 PUSH1 0x1 PUSH1 0x60 SHL SUB PUSH1 0xA0 SHL DUP3 AND OR PUSH1 0x0 SSTORE AND PUSH32 0x8BE0079C531659141344CD1FD0A4F28419497F9722A3DAAFE3B4186F6B6457E0 PUSH1 0x0 DUP1 LOG3 STOP JUMPDEST PUSH1 0x40 MLOAD PUSH4 0x1E4FBDF7 PUSH1 0xE0 SHL DUP2 MSTORE PUSH1 0x0 PUSH1 0x4 DUP3 ADD MSTORE PUSH1 0x24 SWAP1 REVERT JUMPDEST PUSH1 0x0 DUP1 REVERT JUMPDEST CALLVALUE PUSH2 0x197 JUMPI PUSH1 0x20 CALLDATASIZE PUSH1 0x3 NOT ADD SLT PUSH2 0x197 JUMPI PUSH1 0x4 CALLDATALOAD PUSH1 0x5 SLOAD DUP2 LT ISZERO PUSH2 0x197 JUMPI PUSH2 0x1C5 PUSH1 0x20 SWAP2 PUSH2 0x1812 JUMP JUMPDEST SWAP1 SLOAD PUSH1 0x40 MLOAD SWAP2 PUSH1 0x3 SHL SHR DUP2 MSTORE RETURN JUMPDEST CALLVALUE PUSH2 0x197 JUMPI PUSH1 0x40 CALLDATASIZE PUSH1 0x3 NOT ADD SLT PUSH2 0x197 JUMPI PUSH2 0x1EC PUSH2 0x1799 JUMP JUMPDEST PUSH1 0x4 CALLDATALOAD PUSH1 0x0 MSTORE PUSH1 0x3 PUSH1 0x20 MSTORE PUSH1 0x40 PUSH1 0x0 KECCAK256 PUSH1 0x1 DUP1 PUSH1 0xA0 SHL SUB DUP1 SWAP3 AND PUSH1 0x0 MSTORE PUSH1 0x20 MSTORE PUSH1 0x40 PUSH1 0x0 KECCAK256 SWAP1 DUP2 SLOAD AND PUSH1 0x2 PUSH2 0x223 PUSH1 0x1 DUP5 ADD PUSH2 0x18F5 JUMP JUMPDEST SWAP3 ADD SLOAD PUSH1 0xFF PUSH2 0x244 PUSH1 0x40 MLOAD SWAP5 DUP6 SWAP5 DUP6 MSTORE PUSH1 0x80 PUSH1 0x20 DUP7 ADD MSTORE PUSH1 0x80 DUP6 ADD SWAP1 PUSH2 0x17D2 JUMP JUMPDEST SWAP2 PUSH1 0x1 PUSH1 0x1 PUSH1 0x60 SHL SUB DUP2 AND PUSH1 0x40 DUP6 ADD MSTORE PUSH1 0x60 SHR AND ISZERO ISZERO PUSH1 0x60 DUP4 ADD MSTORE SUB SWAP1 RETURN JUMPDEST CALLVALUE PUSH2 0x197 JUMPI PUSH1 0x40 CALLDATASIZE PUSH1 0x3 NOT ADD SLT PUSH2 0x197 JUMPI PUSH1 0x24 CALLDATALOAD PUSH1 0x4 CALLDATALOAD PUSH1 0x0 MSTORE PUSH1 0x4 PUSH1 0x20 MSTORE PUSH1 0x40 PUSH1 0x0 KECCAK256 DUP1 SLOAD DUP3 LT ISZERO PUSH2 0x197 JUMPI PUSH1 0x20 SWAP2 PUSH2 0x29C SWAP2 PUSH2 0x1849 JUMP JUMPDEST SWAP1 SLOAD PUSH1 0x40 MLOAD PUSH1 0x3 SWAP3 SWAP1 SWAP3 SHL SHR PUSH1 0x1 PUSH1 0x1 PUSH1 0xA0 SHL SUB AND DUP2 MSTORE RETURN JUMPDEST CALLVALUE PUSH2 0x197 JUMPI PUSH1 0x0 CALLDATASIZE PUSH1 0x3 NOT ADD SLT PUSH2 0x197 JUMPI PUSH1 0x0 SLOAD PUSH1 0x40 MLOAD PUSH1 0x1 PUSH1 0x1 PUSH1 0xA0 SHL SUB SWAP1 SWAP2 AND DUP2 MSTORE PUSH1 0x20 SWAP1 RETURN JUMPDEST CALLVALUE PUSH2 0x197 JUMPI PUSH1 0x20 DUP1 PUSH1 0x3 NOT CALLDATASIZE ADD SLT PUSH2 0x197 JUMPI PUSH1 0x4 CALLDATALOAD SWAP1 CALLER PUSH1 0x0 MSTORE PUSH1 0x6 DUP2 MSTORE PUSH1 0xFF PUSH1 0x40 PUSH1 0x0 KECCAK256 SLOAD AND DUP1 ISZERO PUSH2 0x406 JUMPI JUMPDEST PUSH2 0x315 SWAP1 PUSH2 0x19C7 JUMP JUMPDEST DUP2 PUSH1 0x0 MSTORE PUSH1 0x2 DUP2 MSTORE PUSH1 0x1 PUSH1 0x1 PUSH1 0x60 SHL SUB PUSH2 0x33A DUP2 PUSH1 0x1 PUSH1 0x40 PUSH1 0x0 KECCAK256 ADD SLOAD AND ISZERO ISZERO PUSH2 0x1A34 JUMP JUMPDEST DUP3 PUSH1 0x0 MSTORE PUSH1 0x2 DUP3 MSTORE PUSH1 0xFF PUSH1 0x3 PUSH1 0x40 PUSH1 0x0 KECCAK256 ADD SLOAD AND SWAP1 PUSH1 0x3 DUP3 LT ISZERO PUSH2 0x3F0 JUMPI PUSH32 0x6CE9FACD3559BD7C93877063D63E12B0D69A2C7888618B225DBF6DD83BE39594 SWAP3 PUSH4 0xFFFFFFFF PUSH1 0x1 SWAP3 PUSH2 0x38E PUSH1 0x40 SWAP6 ISZERO PUSH2 0x1A79 JUMP JUMPDEST PUSH1 0x0 DUP8 DUP2 MSTORE PUSH1 0x2 DUP5 MSTORE DUP6 SWAP1 KECCAK256 PUSH1 0x3 DUP2 ADD DUP1 SLOAD PUSH1 0xFF NOT AND DUP7 OR DUP2 SSTORE SWAP5 ADD DUP1 SLOAD PUSH12 0xFFFFFFFFFFFFFFFFFFFFFFFF PUSH1 0x60 SHL NOT AND TIMESTAMP SWAP1 SWAP3 AND PUSH1 0x60 DUP2 SWAP1 SHL PUSH12 0xFFFFFFFFFFFFFFFFFFFFFFFF PUSH1 0x60 SHL AND SWAP3 SWAP1 SWAP3 OR SWAP1 SSTORE SWAP3 SLOAD PUSH1 0x8 SHR AND SWAP1 DUP4 MLOAD SWAP3 DUP4 MSTORE DUP3 ADD MSTORE LOG2 STOP JUMPDEST PUSH4 0x4E487B71 PUSH1 0xE0 SHL PUSH1 0x0 MSTORE PUSH1 0x21 PUSH1 0x4 MSTORE PUSH1 0x24 PUSH1 0x0 REVERT JUMPDEST POP PUSH1 0x0 SLOAD PUSH1 0x1 PUSH1 0x1 PUSH1 0xA0 SHL SUB AND CALLER EQ PUSH2 0x30C JUMP JUMPDEST CALLVALUE PUSH2 0x197 JUMPI PUSH1 0x0 CALLDATASIZE PUSH1 0x3 NOT ADD SLT PUSH2 0x197 JUMPI PUSH2 0x433 PUSH2 0x199B JUMP JUMPDEST PUSH2 0x43B PUSH2 0x1A13 JUMP JUMPDEST PUSH1 0x0 DUP1 SLOAD PUSH1 0xFF PUSH1 0xA0 SHL NOT AND PUSH1 0x1 PUSH1 0xA0 SHL OR SWAP1 SSTORE PUSH1 0x40 MLOAD CALLER DUP2 MSTORE PUSH32 0x62E78CEA01BEE320CD4E420270B5EA74000D11B0C9F74754EBDBFC544B05A258 SWAP1 PUSH1 0x20 SWAP1 LOG1 STOP JUMPDEST CALLVALUE PUSH2 0x197 JUMPI PUSH1 0x60 CALLDATASIZE PUSH1 0x3 NOT ADD SLT PUSH2 0x197 JUMPI PUSH2 0x495 PUSH2 0x1799 JUMP JUMPDEST PUSH1 0x44 CALLDATALOAD PUSH8 0xFFFFFFFFFFFFFFFF DUP2 GT PUSH2 0x197 JUMPI CALLDATASIZE PUSH1 0x23 DUP3 ADD SLT ISZERO PUSH2 0x197 JUMPI PUSH8 0xFFFFFFFFFFFFFFFF DUP2 PUSH1 0x4 ADD CALLDATALOAD GT PUSH2 0x197 JUMPI CALLDATASIZE PUSH1 0x24 DUP3 PUSH1 0x4 ADD CALLDATALOAD DUP4 ADD ADD GT PUSH2 0x197 JUMPI CALLER PUSH1 0x0 MSTORE PUSH1 0x6 PUSH1 0x20 MSTORE PUSH1 0xFF PUSH1 0x40 PUSH1 0x0 KECCAK256 SLOAD AND DUP1 ISZERO PUSH2 0x8A2 JUMPI JUMPDEST PUSH2 0x4F7 SWAP1 PUSH2 0x19C7 JUMP JUMPDEST PUSH1 0x4 CALLDATALOAD PUSH1 0x0 MSTORE PUSH1 0x2 PUSH1 0x20 MSTORE PUSH2 0x51E PUSH1 0x1 PUSH1 0x1 PUSH1 0x60 SHL SUB PUSH1 0x1 PUSH1 0x40 PUSH1 0x0 KECCAK256 ADD SLOAD AND ISZERO ISZERO PUSH2 0x1A34 JUMP JUMPDEST PUSH1 0x4 CALLDATALOAD PUSH1 0x0 MSTORE PUSH1 0x2 PUSH1 0x20 MSTORE PUSH1 0xFF PUSH1 0x3 PUSH1 0x40 PUSH1 0x0 KECCAK256 ADD SLOAD AND PUSH1 0x3 DUP2 LT ISZERO PUSH2 0x3F0 JUMPI PUSH2 0x548 SWAP1 ISZERO PUSH2 0x1A79 JUMP JUMPDEST PUSH2 0x550 PUSH2 0x1A13 JUMP JUMPDEST PUSH2 0x564 PUSH1 0x1 PUSH1 0x1 PUSH1 0xA0 SHL SUB DUP4 AND ISZERO ISZERO PUSH2 0x1ABA JUMP JUMPDEST PUSH2 0x573 DUP2 PUSH1 0x4 ADD CALLDATALOAD ISZERO ISZERO PUSH2 0x1AFD JUMP JUMPDEST PUSH1 0x4 CALLDATALOAD PUSH1 0x0 MSTORE PUSH1 0x3 PUSH1 0x20 MSTORE PUSH1 0x40 PUSH1 0x0 KECCAK256 PUSH1 0x1 DUP1 PUSH1 0xA0 SHL SUB DUP4 AND PUSH1 0x0 MSTORE PUSH1 0x20 MSTORE PUSH1 0xFF PUSH1 0x2 PUSH1 0x40 PUSH1 0x0 KECCAK256 ADD SLOAD PUSH1 0x60 SHR AND PUSH2 0x85D JUMPI PUSH1 0x40 MLOAD PUSH2 0x5B1 DUP2 PUSH2 0x189B JUMP JUMPDEST PUSH1 0x1 PUSH1 0x1 PUSH1 0xA0 SHL SUB DUP4 AND DUP2 MSTORE PUSH2 0x5CF CALLDATASIZE PUSH1 0x4 DUP5 ADD CALLDATALOAD PUSH1 0x24 DUP6 ADD PUSH2 0x1B3B JUMP JUMPDEST PUSH1 0x20 DUP3 DUP2 ADD SWAP2 DUP3 MSTORE TIMESTAMP PUSH1 0x1 PUSH1 0x1 PUSH1 0x60 SHL SUB AND PUSH1 0x40 DUP1 DUP6 ADD SWAP2 SWAP1 SWAP2 MSTORE PUSH1 0x1 PUSH1 0x60 DUP6 ADD MSTORE PUSH1 0x4 CALLDATALOAD PUSH1 0x0 SWAP1 DUP2 MSTORE PUSH1 0x3 DUP4 MSTORE DUP2 DUP2 KECCAK256 PUSH1 0x1 PUSH1 0x1 PUSH1 0xA0 SHL SUB DUP9 DUP2 AND DUP4 MSTORE SWAP4 MSTORE KECCAK256 DUP4 MLOAD DUP2 SLOAD PUSH1 0x1 PUSH1 0x1 PUSH1 0xA0 SHL SUB NOT AND SWAP3 AND SWAP2 SWAP1 SWAP2 OR DUP2 SSTORE SWAP1 MLOAD DUP1 MLOAD SWAP1 PUSH8 0xFFFFFFFFFFFFFFFF DUP3 GT PUSH2 0x847 JUMPI PUSH2 0x647 PUSH1 0x1 DUP5 ADD SLOAD PUSH2 0x1861 JUMP JUMPDEST PUSH1 0x1F DUP2 GT PUSH2 0x800 JUMPI JUMPDEST POP PUSH1 0x20 SWAP1 PUSH1 0x1F DUP4 GT PUSH1 0x1 EQ PUSH2 0x787 JUMPI SWAP3 DUP3 PUSH1 0x60 SWAP4 PUSH1 0x2 SWAP4 PUSH2 0x6CA SWAP8 SWAP7 PUSH1 0x0 SWAP3 PUSH2 0x77C JUMPI JUMPDEST POP POP DUP2 PUSH1 0x1 SHL SWAP2 PUSH1 0x0 NOT SWAP1 PUSH1 0x3 SHL SHR NOT AND OR PUSH1 0x1 DUP3 ADD SSTORE JUMPDEST PUSH1 0x40 DUP5 ADD MLOAD SWAP2 ADD DUP1 SLOAD SWAP3 SWAP1 SWAP4 ADD MLOAD PUSH13 0xFFFFFFFFFFFFFFFFFFFFFFFFFF NOT SWAP1 SWAP3 AND PUSH1 0x1 PUSH1 0x1 PUSH1 0x60 SHL SUB SWAP2 SWAP1 SWAP2 AND OR SWAP1 ISZERO ISZERO PUSH1 0x60 SHL PUSH1 0xFF PUSH1 0x60 SHL AND OR SWAP1 SSTORE JUMP JUMPDEST PUSH1 0x4 CALLDATALOAD PUSH1 0x0 MSTORE PUSH1 0x4 PUSH1 0x20 MSTORE PUSH2 0x6E3 DUP3 PUSH1 0x40 PUSH1 0x0 KECCAK256 PUSH2 0x1B82 JUMP JUMPDEST PUSH1 0x4 CALLDATALOAD PUSH1 0x0 MSTORE PUSH1 0x2 PUSH1 0x20 MSTORE PUSH2 0x727 PUSH1 0x3 PUSH1 0x40 PUSH1 0x0 KECCAK256 ADD PUSH2 0x70C PUSH4 0xFFFFFFFF DUP3 SLOAD PUSH1 0x8 SHR AND PUSH2 0x1BBD JUMP JUMPDEST PUSH5 0xFFFFFFFF00 DUP3 SLOAD SWAP2 PUSH1 0x8 SHL AND SWAP1 PUSH5 0xFFFFFFFF00 NOT AND OR SWAP1 SSTORE JUMP JUMPDEST PUSH32 0x87A4055667778B9CEAF7A004E7A548A62F0EA37007956DDF2B3DCEB3FC917EF9 PUSH1 0x40 MLOAD SWAP3 PUSH1 0x1 DUP1 PUSH1 0xA0 SHL SUB AND SWAP3 DUP1 PUSH2 0x777 PUSH1 0x4 CALLDATALOAD SWAP5 PUSH1 0x1 PUSH1 0x1 PUSH1 0x60 SHL SUB TIMESTAMP AND SWAP1 PUSH1 0x24 DUP2 PUSH1 0x4 ADD CALLDATALOAD SWAP2 ADD DUP5 PUSH2 0x1BD2 JUMP JUMPDEST SUB SWAP1 LOG3 STOP JUMPDEST ADD MLOAD SWAP1 POP DUP10 DUP1 PUSH2 0x674 JUMP JUMPDEST SWAP1 PUSH1 0x1 DUP5 ADD PUSH1 0x0 MSTORE PUSH1 0x20 PUSH1 0x0 KECCAK256 SWAP2 PUSH1 0x0 JUMPDEST PUSH1 0x1F NOT DUP6 AND DUP2 LT PUSH2 0x7E8 JUMPI POP DUP4 PUSH1 0x2 SWAP4 PUSH2 0x6CA SWAP8 SWAP7 SWAP4 PUSH1 0x1 SWAP4 PUSH1 0x60 SWAP8 PUSH1 0x1F NOT DUP2 AND LT PUSH2 0x7CF JUMPI JUMPDEST POP POP POP DUP2 SHL ADD PUSH1 0x1 DUP3 ADD SSTORE PUSH2 0x68C JUMP JUMPDEST ADD MLOAD PUSH1 0x0 NOT PUSH1 0xF8 DUP5 PUSH1 0x3 SHL AND SHR NOT AND SWAP1 SSTORE DUP10 DUP1 DUP1 PUSH2 0x7BF JUMP JUMPDEST SWAP2 SWAP3 PUSH1 0x20 PUSH1 0x1 DUP2 SWAP3 DUP7 DUP6 ADD MLOAD DUP2 SSTORE ADD SWAP5 ADD SWAP3 ADD PUSH2 0x798 JUMP JUMPDEST PUSH1 0x1 DUP5 ADD PUSH1 0x0 MSTORE PUSH1 0x20 PUSH1 0x0 KECCAK256 PUSH1 0x1F DUP5 ADD PUSH1 0x5 SHR DUP2 ADD PUSH1 0x20 DUP6 LT PUSH2 0x840 JUMPI JUMPDEST PUSH1 0x1F DUP4 ADD PUSH1 0x5 SHR DUP3 ADD DUP2 LT PUSH2 0x834 JUMPI POP POP PUSH2 0x650 JUMP JUMPDEST PUSH1 0x0 DUP2 SSTORE PUSH1 0x1 ADD PUSH2 0x81E JUMP JUMPDEST POP DUP1 PUSH2 0x81E JUMP JUMPDEST PUSH4 0x4E487B71 PUSH1 0xE0 SHL PUSH1 0x0 MSTORE PUSH1 0x41 PUSH1 0x4 MSTORE PUSH1 0x24 PUSH1 0x0 REVERT JUMPDEST PUSH1 0x40 MLOAD PUSH3 0x461BCD PUSH1 0xE5 SHL DUP2 MSTORE PUSH1 0x20 PUSH1 0x4 DUP3 ADD MSTORE PUSH1 0x17 PUSH1 0x24 DUP3 ADD MSTORE PUSH32 0x4E6F646520616C72656164792072656769737465726564000000000000000000 PUSH1 0x44 DUP3 ADD MSTORE PUSH1 0x64 SWAP1 REVERT JUMPDEST POP PUSH1 0x0 SLOAD PUSH1 0x1 PUSH1 0x1 PUSH1 0xA0 SHL SUB AND CALLER EQ PUSH2 0x4EE JUMP JUMPDEST CALLVALUE PUSH2 0x197 JUMPI PUSH1 0x20 CALLDATASIZE PUSH1 0x3 NOT ADD SLT PUSH2 0x197 JUMPI PUSH1 0x4 CALLDATALOAD PUSH1 0x0 MSTORE PUSH1 0x2 PUSH1 0x20 MSTORE PUSH1 0xE0 PUSH1 0x40 PUSH1 0x0 KECCAK256 DUP1 SLOAD SWAP1 PUSH1 0x1 DUP2 ADD SLOAD SWAP1 PUSH1 0x3 PUSH1 0x2 DUP3 ADD SLOAD SWAP2 ADD SLOAD SWAP2 PUSH1 0x40 MLOAD SWAP4 DUP5 MSTORE PUSH1 0x1 PUSH1 0x1 PUSH1 0x60 SHL SUB SWAP1 DUP2 DUP2 AND PUSH1 0x20 DUP7 ADD MSTORE PUSH1 0x60 SHR AND PUSH1 0x40 DUP5 ADD MSTORE PUSH1 0x60 DUP4 ADD MSTORE PUSH2 0x922 PUSH1 0x80 DUP4 ADD PUSH1 0xFF DUP4 AND PUSH2 0x17C5 JUMP JUMPDEST PUSH1 0x8 DUP2 SWAP1 SHR PUSH4 0xFFFFFFFF AND PUSH1 0xA0 DUP4 ADD MSTORE PUSH1 0x28 SHR PUSH1 0x1 PUSH1 0x1 PUSH1 0xA0 SHL SUB AND PUSH1 0xC0 DUP3 ADD MSTORE RETURN JUMPDEST CALLVALUE PUSH2 0x197 JUMPI PUSH1 0x40 CALLDATASIZE PUSH1 0x3 NOT ADD SLT PUSH2 0x197 JUMPI PUSH1 0x4 CALLDATALOAD PUSH1 0x24 CALLDATALOAD SWAP1 CALLER PUSH1 0x0 MSTORE PUSH1 0x20 PUSH1 0x6 DUP2 MSTORE PUSH1 0xFF PUSH1 0x40 PUSH1 0x0 KECCAK256 SLOAD AND DUP1 ISZERO PUSH2 0xB42 JUMPI JUMPDEST PUSH2 0x980 SWAP1 PUSH2 0x19C7 JUMP JUMPDEST PUSH2 0x988 PUSH2 0x1A13 JUMP JUMPDEST DUP2 PUSH1 0x0 MSTORE PUSH1 0x2 DUP2 MSTORE PUSH1 0x1 PUSH1 0x1 PUSH1 0x60 SHL SUB SWAP1 DUP2 PUSH1 0x1 PUSH1 0x40 PUSH1 0x0 KECCAK256 ADD SLOAD AND PUSH2 0xB05 JUMPI DUP2 TIMESTAMP AND SWAP2 PUSH1 0x40 MLOAD PUSH2 0x9B8 DUP2 PUSH2 0x18B7 JUMP JUMPDEST DUP5 DUP2 MSTORE DUP3 DUP2 ADD SWAP2 DUP5 DUP4 MSTORE PUSH1 0x3 PUSH1 0x40 DUP4 ADD SWAP3 PUSH1 0x0 DUP5 MSTORE PUSH1 0x60 DUP2 ADD DUP10 DUP2 MSTORE PUSH2 0xA41 PUSH1 0x80 DUP4 ADD SWAP7 PUSH1 0x0 DUP9 MSTORE PUSH1 0xA0 DUP5 ADD SWAP6 PUSH1 0x0 DUP8 MSTORE PUSH1 0xC0 DUP6 ADD SWAP8 CALLER DUP10 MSTORE DUP13 PUSH1 0x0 MSTORE PUSH1 0x2 DUP12 MSTORE PUSH1 0x40 PUSH1 0x0 KECCAK256 SWAP6 MLOAD DUP7 SSTORE DUP2 PUSH1 0x1 DUP8 ADD SWAP4 MLOAD AND PUSH1 0x1 PUSH1 0x1 PUSH1 0x60 SHL SUB NOT DUP5 SLOAD AND OR DUP4 SSTORE MLOAD AND DUP2 SLOAD SWAP1 PUSH1 0x1 PUSH1 0x1 PUSH1 0x60 SHL SUB PUSH1 0x60 SHL SWAP1 PUSH1 0x60 SHL AND SWAP1 PUSH1 0x1 PUSH1 0x1 PUSH1 0x60 SHL SUB PUSH1 0x60 SHL NOT AND OR SWAP1 SSTORE JUMP JUMPDEST MLOAD PUSH1 0x2 DUP3 ADD SSTORE ADD SWAP3 MLOAD PUSH1 0x3 DUP2 LT ISZERO PUSH2 0x3F0 JUMPI DUP4 SLOAD SWAP2 MLOAD PUSH5 0xFFFFFFFFFF NOT SWAP1 SWAP3 AND PUSH1 0xFF SWAP1 SWAP2 AND OR PUSH1 0x8 SWAP2 SWAP1 SWAP2 SHL PUSH5 0xFFFFFFFF00 AND OR DUP3 SSTORE MLOAD DUP2 SLOAD PUSH6 0x10000000000 PUSH1 0x1 PUSH1 0xC8 SHL SUB NOT AND PUSH1 0x28 SWAP2 SWAP1 SWAP2 SHL PUSH6 0x10000000000 PUSH1 0x1 PUSH1 0xC8 SHL SUB AND OR SWAP1 SSTORE PUSH1 0x5 SLOAD PUSH1 0x1 PUSH1 0x40 SHL DUP2 LT ISZERO PUSH2 0x847 JUMPI DUP1 PUSH1 0x1 PUSH2 0xABF SWAP3 ADD PUSH1 0x5 SSTORE PUSH2 0x1812 JUMP JUMPDEST DUP2 SLOAD SWAP1 PUSH1 0x3 SHL SWAP1 DUP6 DUP3 SHL SWAP2 PUSH1 0x0 NOT SWAP1 SHL NOT AND OR SWAP1 SSTORE PUSH1 0x40 MLOAD SWAP4 DUP5 MSTORE DUP4 ADD MSTORE PUSH32 0x78B1C5CDA95B0467176618A3EE95DA5B5A84ABD9CCE45109A81D465B76B9DBD4 PUSH1 0x40 CALLER SWAP4 LOG3 STOP JUMPDEST PUSH1 0x64 SWAP1 PUSH1 0x40 MLOAD SWAP1 PUSH3 0x461BCD PUSH1 0xE5 SHL DUP3 MSTORE PUSH1 0x4 DUP3 ADD MSTORE PUSH1 0x16 PUSH1 0x24 DUP3 ADD MSTORE PUSH22 0x53657373696F6E20616C726561647920657869737473 PUSH1 0x50 SHL PUSH1 0x44 DUP3 ADD MSTORE REVERT JUMPDEST POP PUSH1 0x0 SLOAD PUSH1 0x1 PUSH1 0x1 PUSH1 0xA0 SHL SUB AND CALLER EQ PUSH2 0x977 JUMP JUMPDEST CALLVALUE PUSH2 0x197 JUMPI PUSH1 0x0 CALLDATASIZE PUSH1 0x3 NOT ADD SLT PUSH2 0x197 JUMPI PUSH2 0xB6F PUSH2 0x199B JUMP JUMPDEST PUSH1 0x0 DUP1 SLOAD PUSH1 0x1 PUSH1 0x1 PUSH1 0xA0 SHL SUB NOT DUP2 AND DUP3 SSTORE PUSH1 0x1 PUSH1 0x1 PUSH1 0xA0 SHL SUB AND PUSH32 0x8BE0079C531659141344CD1FD0A4F28419497F9722A3DAAFE3B4186F6B6457E0 DUP3 DUP1 LOG3 STOP JUMPDEST CALLVALUE PUSH2 0x197 JUMPI PUSH1 0x20 CALLDATASIZE PUSH1 0x3 NOT ADD SLT PUSH2 0x197 JUMPI PUSH1 0x1 PUSH1 0x1 PUSH1 0xA0 SHL SUB PUSH2 0xBD0 PUSH2 0x17AF JUMP JUMPDEST AND PUSH1 0x0 MSTORE PUSH1 0x6 PUSH1 0x20 MSTORE PUSH1 0x20 PUSH1 0xFF PUSH1 0x40 PUSH1 0x0 KECCAK256 SLOAD AND PUSH1 0x40 MLOAD SWAP1 ISZERO ISZERO DUP2 MSTORE RETURN JUMPDEST CALLVALUE PUSH2 0x197 JUMPI PUSH1 0x0 CALLDATASIZE PUSH1 0x3 NOT ADD SLT PUSH2 0x197 JUMPI PUSH1 0x20 PUSH1 0x5 SLOAD PUSH1 0x40 MLOAD SWAP1 DUP2 MSTORE RETURN JUMPDEST CALLVALUE PUSH2 0x197 JUMPI PUSH1 0x0 CALLDATASIZE PUSH1 0x3 NOT ADD SLT PUSH2 0x197 JUMPI PUSH1 0x20 PUSH1 0xFF PUSH1 0x0 SLOAD PUSH1 0xA0 SHR AND PUSH1 0x40 MLOAD SWAP1 ISZERO ISZERO DUP2 MSTORE RETURN JUMPDEST CALLVALUE PUSH2 0x197 JUMPI PUSH1 0x40 CALLDATASIZE PUSH1 0x3 NOT ADD SLT PUSH2 0x197 JUMPI PUSH2 0xC4B PUSH2 0x17AF JUMP JUMPDEST PUSH1 0x24 CALLDATALOAD SWAP1 DUP2 ISZERO ISZERO DUP1 SWAP3 SUB PUSH2 0x197 JUMPI PUSH2 0xC61 PUSH2 0x199B JUMP JUMPDEST PUSH1 0x1 PUSH1 0x1 PUSH1 0xA0 SHL SUB AND SWAP1 DUP2 ISZERO PUSH2 0xCB8 JUMPI PUSH1 0x20 PUSH32 0xA755B73CA9AB5908508AEF0B2CDE25FFC1CAF1B79F4833E57436D517461CA6BE SWAP2 DUP4 PUSH1 0x0 MSTORE PUSH1 0x6 DUP3 MSTORE PUSH1 0x40 PUSH1 0x0 KECCAK256 PUSH1 0xFF NOT DUP2 SLOAD AND PUSH1 0xFF DUP4 AND OR SWAP1 SSTORE PUSH1 0x40 MLOAD SWAP1 DUP2 MSTORE LOG2 STOP JUMPDEST PUSH1 0x40 MLOAD PUSH3 0x461BCD PUSH1 0xE5 SHL DUP2 MSTORE PUSH1 0x20 PUSH1 0x4 DUP3 ADD MSTORE PUSH1 0x1B PUSH1 0x24 DUP3 ADD MSTORE PUSH32 0x496E76616C696420636F6F7264696E61746F7220616464726573730000000000 PUSH1 0x44 DUP3 ADD MSTORE PUSH1 0x64 SWAP1 REVERT JUMPDEST CALLVALUE PUSH2 0x197 JUMPI PUSH1 0x40 CALLDATASIZE PUSH1 0x3 NOT ADD SLT PUSH2 0x197 JUMPI PUSH2 0xD16 PUSH2 0x1799 JUMP JUMPDEST PUSH1 0x40 MLOAD PUSH2 0xD22 DUP2 PUSH2 0x189B JUMP JUMPDEST PUSH1 0x0 DUP2 MSTORE PUSH1 0x0 PUSH1 0x60 PUSH1 0x20 SWAP3 DUP2 DUP5 DUP3 ADD MSTORE DUP3 PUSH1 0x40 DUP3 ADD MSTORE ADD MSTORE PUSH1 0x4 CALLDATALOAD PUSH1 0x0 MSTORE PUSH1 0x3 DUP2 MSTORE PUSH1 0x40 PUSH1 0x0 KECCAK256 PUSH1 0x1 DUP1 PUSH1 0xA0 SHL SUB DUP1 SWAP4 AND PUSH1 0x0 MSTORE DUP2 MSTORE PUSH1 0x40 PUSH1 0x0 KECCAK256 PUSH1 0x40 MLOAD SWAP2 PUSH2 0xD6A DUP4 PUSH2 0x189B JUMP JUMPDEST DUP4 DUP3 SLOAD AND DUP4 MSTORE PUSH1 0x2 PUSH2 0xD7E PUSH1 0x1 DUP5 ADD PUSH2 0x18F5 JUMP JUMPDEST SWAP3 DUP3 DUP6 ADD SWAP4 DUP5 MSTORE ADD SLOAD SWAP1 PUSH2 0xDCE PUSH1 0x40 DUP6 ADD SWAP4 PUSH1 0x1 PUSH1 0x1 PUSH1 0x60 SHL SUB SWAP3 DUP4 DUP6 AND DUP7 MSTORE PUSH1 0xFF PUSH1 0x60 DUP9 ADD SWAP6 PUSH1 0x60 SHR AND ISZERO ISZERO DUP6 MSTORE PUSH1 0x40 MLOAD SWAP8 DUP9 SWAP8 DUP3 DUP10 MSTORE MLOAD AND SWAP1 DUP8 ADD MSTORE MLOAD PUSH1 0x80 PUSH1 0x40 DUP8 ADD MSTORE PUSH1 0xA0 DUP7 ADD SWAP1 PUSH2 0x17D2 JUMP JUMPDEST SWAP3 MLOAD AND PUSH1 0x60 DUP5 ADD MSTORE MLOAD ISZERO ISZERO PUSH1 0x80 DUP4 ADD MSTORE SUB SWAP1 RETURN JUMPDEST CALLVALUE PUSH2 0x197 JUMPI PUSH1 0x20 DUP1 PUSH1 0x3 NOT CALLDATASIZE ADD SLT PUSH2 0x197 JUMPI PUSH1 0x4 CALLDATALOAD SWAP1 CALLER PUSH1 0x0 MSTORE PUSH1 0x6 DUP2 MSTORE PUSH1 0xFF PUSH1 0x40 PUSH1 0x0 KECCAK256 SLOAD AND DUP1 ISZERO PUSH2 0xEE1 JUMPI JUMPDEST PUSH2 0xE19 SWAP1 PUSH2 0x19C7 JUMP JUMPDEST DUP2 PUSH1 0x0 MSTORE PUSH1 0x2 DUP2 MSTORE PUSH1 0x1 PUSH1 0x1 PUSH1 0x60 SHL SUB SWAP1 PUSH2 0xE3F DUP3 PUSH1 0x1 PUSH1 0x40 PUSH1 0x0 KECCAK256 ADD SLOAD AND ISZERO ISZERO PUSH2 0x1A34 JUMP JUMPDEST DUP3 PUSH1 0x0 MSTORE PUSH1 0x2 DUP2 MSTORE PUSH1 0xFF PUSH1 0x3 PUSH1 0x40 PUSH1 0x0 KECCAK256 ADD SLOAD AND SWAP2 PUSH1 0x3 DUP4 LT ISZERO PUSH2 0x3F0 JUMPI PUSH2 0xED8 PUSH1 0x1 SWAP2 PUSH2 0xE8E PUSH32 0x4ADA0AD1918D982ABD72B58925B80347571C19A9D8CD7B2F86C28C7B9F06B55A SWAP6 ISZERO PUSH2 0x1A79 JUMP JUMPDEST DUP6 PUSH1 0x0 MSTORE PUSH1 0x2 DUP5 MSTORE PUSH1 0x40 PUSH1 0x0 KECCAK256 SWAP1 PUSH1 0x3 DUP3 ADD PUSH1 0x2 PUSH1 0xFF NOT DUP3 SLOAD AND OR SWAP1 SSTORE TIMESTAMP AND SWAP3 DUP4 SWAP2 ADD SWAP1 DUP2 SLOAD SWAP1 PUSH1 0x1 PUSH1 0x1 PUSH1 0x60 SHL SUB PUSH1 0x60 SHL SWAP1 PUSH1 0x60 SHL AND SWAP1 PUSH1 0x1 PUSH1 0x1 PUSH1 0x60 SHL SUB PUSH1 0x60 SHL NOT AND OR SWAP1 SSTORE JUMP JUMPDEST PUSH1 0x40 MLOAD SWAP1 DUP2 MSTORE LOG2 STOP JUMPDEST POP PUSH1 0x0 SLOAD PUSH1 0x1 PUSH1 0x1 PUSH1 0xA0 SHL SUB AND CALLER EQ PUSH2 0xE10 JUMP JUMPDEST CALLVALUE PUSH2 0x197 JUMPI PUSH1 0x20 DUP1 PUSH1 0x3 NOT CALLDATASIZE ADD SLT PUSH2 0x197 JUMPI PUSH1 0x4 CALLDATALOAD PUSH1 0x0 MSTORE PUSH1 0x4 DUP2 MSTORE PUSH1 0x40 PUSH1 0x0 KECCAK256 PUSH1 0x40 MLOAD SWAP1 DUP2 DUP4 DUP3 SLOAD SWAP2 DUP3 DUP2 MSTORE ADD SWAP1 DUP2 SWAP3 PUSH1 0x0 MSTORE DUP5 PUSH1 0x0 KECCAK256 SWAP1 PUSH1 0x0 JUMPDEST DUP7 DUP3 DUP3 LT PUSH2 0xF90 JUMPI DUP7 DUP7 PUSH2 0xF47 DUP3 DUP9 SUB DUP4 PUSH2 0x18D3 JUMP JUMPDEST PUSH1 0x40 MLOAD SWAP3 DUP4 SWAP3 DUP2 DUP5 ADD SWAP1 DUP3 DUP6 MSTORE MLOAD DUP1 SWAP2 MSTORE PUSH1 0x40 DUP5 ADD SWAP3 SWAP2 PUSH1 0x0 JUMPDEST DUP3 DUP2 LT PUSH2 0xF70 JUMPI POP POP POP POP SUB SWAP1 RETURN JUMPDEST DUP4 MLOAD PUSH1 0x1 PUSH1 0x1 PUSH1 0xA0 SHL SUB AND DUP6 MSTORE DUP7 SWAP6 POP SWAP4 DUP2 ADD SWAP4 SWAP3 DUP2 ADD SWAP3 PUSH1 0x1 ADD PUSH2 0xF61 JUMP JUMPDEST DUP4 SLOAD PUSH1 0x1 PUSH1 0x1 PUSH1 0xA0 SHL SUB AND DUP6 MSTORE SWAP1 SWAP4 ADD SWAP3 PUSH1 0x1 SWAP3 DUP4 ADD SWAP3 ADD PUSH2 0xF31 JUMP JUMPDEST CALLVALUE PUSH2 0x197 JUMPI PUSH1 0x0 CALLDATASIZE PUSH1 0x3 NOT ADD SLT PUSH2 0x197 JUMPI PUSH2 0xFC6 PUSH2 0x199B JUMP JUMPDEST PUSH1 0x0 SLOAD PUSH1 0xFF DUP2 PUSH1 0xA0 SHR AND ISZERO PUSH2 0x100D JUMPI PUSH1 0xFF PUSH1 0xA0 SHL NOT AND PUSH1 0x0 SSTORE PUSH1 0x40 MLOAD CALLER DUP2 MSTORE PUSH32 0x5DB9EE0A495BF2E6FF9C91A7834C1BA4FDD244A5E8AA4E537BD38AEAE4B073AA SWAP1 PUSH1 0x20 SWAP1 LOG1 STOP JUMPDEST PUSH1 0x40 MLOAD PUSH4 0x8DFC202B PUSH1 0xE0 SHL DUP2 MSTORE PUSH1 0x4 SWAP1 REVERT JUMPDEST CALLVALUE PUSH2 0x197 JUMPI PUSH1 0x20 CALLDATASIZE PUSH1 0x3 NOT ADD SLT PUSH2 0x197 JUMPI PUSH1 0x0 PUSH1 0xC0 PUSH1 0x40 MLOAD PUSH2 0x1040 DUP2 PUSH2 0x18B7 JUMP JUMPDEST DUP3 DUP2 MSTORE DUP3 PUSH1 0x20 DUP3 ADD MSTORE DUP3 PUSH1 0x40 DUP3 ADD MSTORE DUP3 PUSH1 0x60 DUP3 ADD MSTORE DUP3 PUSH1 0x80 DUP3 ADD MSTORE DUP3 PUSH1 0xA0 DUP3 ADD MSTORE ADD MSTORE PUSH1 0x4 CALLDATALOAD PUSH1 0x0 MSTORE PUSH1 0x2 PUSH1 0x20 MSTORE PUSH1 0x40 PUSH1 0x0 KECCAK256 PUSH1 0x40 MLOAD PUSH2 0x107F DUP2 PUSH2 0x18B7 JUMP JUMPDEST DUP2 SLOAD DUP2 MSTORE PUSH1 0x1 DUP3 ADD SLOAD PUSH1 0x20 DUP3 ADD PUSH1 0x1 PUSH1 0x1 PUSH1 0x60 SHL SUB SWAP2 DUP3 DUP2 AND DUP3 MSTORE DUP3 PUSH1 0x40 DUP6 ADD SWAP2 PUSH1 0x60 SHR AND DUP2 MSTORE PUSH1 0x3 PUSH1 0x2 DUP7 ADD SLOAD SWAP6 PUSH1 0x60 DUP7 ADD SWAP7 DUP8 MSTORE ADD SLOAD SWAP3 PUSH1 0xFF DUP5 AND PUSH1 0x80 DUP7 ADD PUSH1 0x3 DUP3 LT ISZERO PUSH2 0x3F0 JUMPI PUSH1 0xE0 SWAP8 PUSH2 0x1120 SWAP3 DUP3 MSTORE PUSH1 0xA0 DUP9 ADD SWAP4 PUSH4 0xFFFFFFFF SWAP6 DUP7 DUP10 PUSH1 0x8 SHR AND DUP7 MSTORE DUP2 PUSH1 0xC0 DUP12 ADD SWAP9 PUSH1 0x1 DUP1 PUSH1 0xA0 SHL SUB DUP1 SWAP12 PUSH1 0x28 SHR AND DUP11 MSTORE PUSH1 0x40 MLOAD SWAP12 MLOAD DUP13 MSTORE MLOAD AND PUSH1 0x20 DUP12 ADD MSTORE MLOAD AND PUSH1 0x40 DUP10 ADD MSTORE MLOAD PUSH1 0x60 DUP9 ADD MSTORE MLOAD PUSH1 0x80 DUP8 ADD SWAP1 PUSH2 0x17C5 JUMP JUMPDEST MLOAD AND PUSH1 0xA0 DUP5 ADD MSTORE MLOAD AND PUSH1 0xC0 DUP3 ADD MSTORE RETURN JUMPDEST CALLVALUE PUSH2 0x197 JUMPI PUSH1 0x40 CALLDATASIZE PUSH1 0x3 NOT ADD SLT PUSH2 0x197 JUMPI PUSH1 0x4 CALLDATALOAD PUSH2 0x114C PUSH2 0x1799 JUMP JUMPDEST SWAP1 CALLER PUSH1 0x0 MSTORE PUSH1 0x20 PUSH1 0x6 DUP2 MSTORE PUSH1 0xFF PUSH1 0x40 PUSH1 0x0 KECCAK256 SLOAD AND DUP1 ISZERO PUSH2 0x1250 JUMPI JUMPDEST PUSH2 0x1170 SWAP1 PUSH2 0x19C7 JUMP JUMPDEST DUP2 PUSH1 0x0 MSTORE PUSH1 0x2 DUP2 MSTORE PUSH1 0x1 PUSH1 0x1 PUSH1 0x60 SHL SUB PUSH2 0x1195 DUP2 PUSH1 0x1 PUSH1 0x40 PUSH1 0x0 KECCAK256 ADD SLOAD AND ISZERO ISZERO PUSH2 0x1A34 JUMP JUMPDEST PUSH1 0x0 DUP4 DUP2 MSTORE PUSH1 0x3 DUP4 MSTORE PUSH1 0x40 DUP1 DUP3 KECCAK256 PUSH1 0x1 PUSH1 0x1 PUSH1 0xA0 SHL SUB SWAP1 SWAP7 AND DUP1 DUP4 MSTORE SWAP6 DUP5 MSTORE SWAP1 KECCAK256 PUSH1 0x2 ADD SLOAD PUSH1 0x60 SHR PUSH1 0xFF AND ISZERO PUSH2 0x1219 JUMPI SWAP1 PUSH32 0x6E10C3CC2633D30EC458E3F871BC7B2D36501151E91E16D82B868A81C6C01943 SWAP2 DUP4 PUSH1 0x0 MSTORE PUSH1 0x3 DUP3 MSTORE PUSH1 0x40 PUSH1 0x0 KECCAK256 DUP6 PUSH1 0x0 MSTORE DUP3 MSTORE PUSH1 0x2 PUSH1 0x40 PUSH1 0x0 KECCAK256 ADD PUSH1 0xFF PUSH1 0x60 SHL NOT DUP2 SLOAD AND SWAP1 SSTORE PUSH1 0x40 MLOAD SWAP1 TIMESTAMP AND DUP2 MSTORE LOG3 STOP JUMPDEST PUSH1 0x40 MLOAD PUSH3 0x461BCD PUSH1 0xE5 SHL DUP2 MSTORE PUSH1 0x4 DUP2 ADD DUP4 SWAP1 MSTORE PUSH1 0xF PUSH1 0x24 DUP3 ADD MSTORE PUSH15 0x4E6F6465206E6F7420616374697665 PUSH1 0x88 SHL PUSH1 0x44 DUP3 ADD MSTORE PUSH1 0x64 SWAP1 REVERT JUMPDEST POP PUSH1 0x0 SLOAD PUSH1 0x1 PUSH1 0x1 PUSH1 0xA0 SHL SUB AND CALLER EQ PUSH2 0x1167 JUMP JUMPDEST CALLVALUE PUSH2 0x197 JUMPI PUSH1 0x60 CALLDATASIZE PUSH1 0x3 NOT ADD SLT PUSH2 0x197 JUMPI PUSH1 0x24 CALLDATALOAD PUSH8 0xFFFFFFFFFFFFFFFF DUP2 GT PUSH2 0x197 JUMPI PUSH2 0x1295 SWAP1 CALLDATASIZE SWAP1 PUSH1 0x4 ADD PUSH2 0x1768 JUMP JUMPDEST SWAP1 PUSH1 0x44 CALLDATALOAD PUSH8 0xFFFFFFFFFFFFFFFF DUP2 GT PUSH2 0x197 JUMPI PUSH2 0x12B6 SWAP1 CALLDATASIZE SWAP1 PUSH1 0x4 ADD PUSH2 0x1768 JUMP JUMPDEST CALLER PUSH1 0x0 MSTORE PUSH1 0x6 PUSH1 0x20 MSTORE PUSH1 0xFF PUSH1 0x40 PUSH1 0x0 KECCAK256 SLOAD AND DUP1 ISZERO PUSH2 0x1754 JUMPI JUMPDEST PUSH2 0x12D8 SWAP1 PUSH2 0x19C7 JUMP JUMPDEST PUSH1 0x4 CALLDATALOAD PUSH1 0x0 MSTORE PUSH1 0x2 PUSH1 0x20 MSTORE PUSH2 0x12FF PUSH1 0x1 PUSH1 0x1 PUSH1 0x60 SHL SUB PUSH1 0x1 PUSH1 0x40 PUSH1 0x0 KECCAK256 ADD SLOAD AND ISZERO ISZERO PUSH2 0x1A34 JUMP JUMPDEST PUSH1 0x4 CALLDATALOAD PUSH1 0x0 MSTORE PUSH1 0x2 PUSH1 0x20 MSTORE PUSH1 0xFF PUSH1 0x3 PUSH1 0x40 PUSH1 0x0 KECCAK256 ADD SLOAD AND PUSH1 0x3 DUP2 LT ISZERO PUSH2 0x3F0 JUMPI PUSH2 0x1329 SWAP1 ISZERO PUSH2 0x1A79 JUMP JUMPDEST PUSH2 0x1331 PUSH2 0x1A13 JUMP JUMPDEST DUP1 DUP5 SUB PUSH2 0x1717 JUMPI DUP4 ISZERO PUSH2 0x16E3 JUMPI PUSH1 0x0 JUMPDEST DUP5 DUP2 LT PUSH2 0x134A JUMPI STOP JUMPDEST PUSH1 0x5 DUP2 SWAP1 SHL DUP5 ADD CALLDATALOAD PUSH1 0x1 PUSH1 0x1 PUSH1 0xA0 SHL SUB DUP2 AND SWAP1 SUB PUSH2 0x197 JUMPI DUP2 DUP2 LT ISZERO PUSH2 0x16CD JUMPI DUP1 PUSH1 0x5 SHL DUP4 ADD CALLDATALOAD PUSH1 0x1E NOT DUP5 CALLDATASIZE SUB ADD DUP2 SLT ISZERO PUSH2 0x197 JUMPI DUP4 ADD PUSH8 0xFFFFFFFFFFFFFFFF DUP2 CALLDATALOAD GT PUSH2 0x197 JUMPI DUP1 CALLDATALOAD CALLDATASIZE SUB PUSH1 0x20 DUP3 ADD SGT PUSH2 0x197 JUMPI PUSH2 0x13B9 PUSH1 0x5 DUP4 SWAP1 SHL DUP7 ADD CALLDATALOAD PUSH1 0x1 PUSH1 0x1 PUSH1 0xA0 SHL SUB AND ISZERO ISZERO PUSH2 0x1ABA JUMP JUMPDEST PUSH2 0x13C5 DUP2 CALLDATALOAD ISZERO ISZERO PUSH2 0x1AFD JUMP JUMPDEST PUSH1 0x4 CALLDATALOAD PUSH1 0x0 MSTORE PUSH1 0x3 PUSH1 0x20 MSTORE PUSH1 0x40 PUSH1 0x0 KECCAK256 PUSH1 0x1 DUP1 PUSH1 0xA0 SHL SUB DUP4 PUSH1 0x5 SHL DUP8 ADD CALLDATALOAD AND PUSH1 0x0 MSTORE PUSH1 0x20 MSTORE PUSH1 0xFF PUSH1 0x2 PUSH1 0x40 PUSH1 0x0 KECCAK256 ADD SLOAD PUSH1 0x60 SHR AND ISZERO PUSH2 0x1427 JUMPI JUMPDEST POP PUSH1 0x0 NOT DUP2 EQ PUSH2 0x1411 JUMPI PUSH1 0x1 ADD PUSH2 0x1341 JUMP JUMPDEST PUSH4 0x4E487B71 PUSH1 0xE0 SHL PUSH1 0x0 MSTORE PUSH1 0x11 PUSH1 0x4 MSTORE PUSH1 0x24 PUSH1 0x0 REVERT JUMPDEST PUSH1 0x40 MLOAD PUSH2 0x1433 DUP2 PUSH2 0x189B JUMP JUMPDEST PUSH1 0x5 DUP4 SWAP1 SHL DUP7 ADD CALLDATALOAD PUSH1 0x1 PUSH1 0x1 PUSH1 0xA0 SHL SUB AND DUP2 MSTORE PUSH2 0x1455 CALLDATASIZE DUP4 CALLDATALOAD PUSH1 0x20 DUP6 ADD PUSH2 0x1B3B JUMP JUMPDEST PUSH1 0x20 DUP3 ADD MSTORE PUSH1 0x1 PUSH1 0x1 PUSH1 0x60 SHL SUB TIMESTAMP AND PUSH1 0x40 DUP3 ADD MSTORE PUSH1 0x1 PUSH1 0x60 DUP3 ADD MSTORE PUSH1 0x4 CALLDATALOAD PUSH1 0x0 MSTORE PUSH1 0x3 PUSH1 0x20 MSTORE PUSH1 0x40 PUSH1 0x0 KECCAK256 PUSH1 0x1 DUP1 PUSH1 0xA0 SHL SUB DUP5 PUSH1 0x5 SHL DUP9 ADD CALLDATALOAD AND PUSH1 0x0 MSTORE PUSH1 0x20 MSTORE PUSH1 0x40 PUSH1 0x0 KECCAK256 PUSH1 0x1 DUP1 PUSH1 0xA0 SHL SUB DUP3 MLOAD AND PUSH1 0x1 PUSH1 0x1 PUSH1 0x60 SHL SUB PUSH1 0xA0 SHL DUP3 SLOAD AND OR DUP2 SSTORE PUSH1 0x20 DUP3 ADD MLOAD DUP1 MLOAD SWAP1 PUSH8 0xFFFFFFFFFFFFFFFF DUP3 GT PUSH2 0x847 JUMPI PUSH2 0x14D9 PUSH1 0x1 DUP5 ADD SLOAD PUSH2 0x1861 JUMP JUMPDEST PUSH1 0x1F DUP2 GT PUSH2 0x1686 JUMPI JUMPDEST POP PUSH1 0x20 SWAP1 PUSH1 0x1F DUP4 GT PUSH1 0x1 EQ PUSH2 0x160E JUMPI SWAP3 DUP3 PUSH1 0x60 SWAP4 PUSH1 0x2 SWAP4 PUSH2 0x155A SWAP8 SWAP7 PUSH1 0x0 SWAP3 PUSH2 0x1603 JUMPI POP POP DUP2 PUSH1 0x1 SHL SWAP2 PUSH1 0x0 NOT SWAP1 PUSH1 0x3 SHL SHR NOT AND OR PUSH1 0x1 DUP3 ADD SSTORE PUSH1 0x40 DUP5 ADD MLOAD SWAP2 ADD DUP1 SLOAD SWAP3 SWAP1 SWAP4 ADD MLOAD PUSH13 0xFFFFFFFFFFFFFFFFFFFFFFFFFF NOT SWAP1 SWAP3 AND PUSH1 0x1 PUSH1 0x1 PUSH1 0x60 SHL SUB SWAP2 SWAP1 SWAP2 AND OR SWAP1 ISZERO ISZERO PUSH1 0x60 SHL PUSH1 0xFF PUSH1 0x60 SHL AND OR SWAP1 SSTORE JUMP JUMPDEST PUSH1 0x4 CALLDATALOAD PUSH1 0x0 MSTORE PUSH1 0x4 PUSH1 0x20 MSTORE PUSH2 0x1579 DUP3 PUSH1 0x5 SHL DUP7 ADD CALLDATALOAD PUSH1 0x40 PUSH1 0x0 KECCAK256 PUSH2 0x1B82 JUMP JUMPDEST PUSH1 0x4 CALLDATALOAD PUSH1 0x0 MSTORE PUSH1 0x2 PUSH1 0x20 MSTORE PUSH2 0x15A2 PUSH1 0x3 PUSH1 0x40 PUSH1 0x0 KECCAK256 ADD PUSH2 0x70C PUSH4 0xFFFFFFFF DUP3 SLOAD PUSH1 0x8 SHR AND PUSH2 0x1BBD JUMP JUMPDEST PUSH1 0x40 MLOAD PUSH1 0x5 DUP4 SWAP1 SHL DUP7 ADD CALLDATALOAD PUSH1 0x1 PUSH1 0x1 PUSH1 0xA0 SHL SUB AND SWAP2 PUSH1 0x4 CALLDATALOAD SWAP2 PUSH32 0x87A4055667778B9CEAF7A004E7A548A62F0EA37007956DDF2B3DCEB3FC917EF9 SWAP2 DUP2 SWAP1 PUSH2 0x15FA SWAP1 TIMESTAMP PUSH1 0x1 PUSH1 0x1 PUSH1 0x60 SHL SUB AND SWAP1 DUP1 CALLDATALOAD SWAP1 PUSH1 0x20 ADD DUP5 PUSH2 0x1BD2 JUMP JUMPDEST SUB SWAP1 LOG3 DUP6 PUSH2 0x13FF JUMP JUMPDEST ADD MLOAD SWAP1 POP DUP14 DUP1 PUSH2 0x674 JUMP JUMPDEST SWAP1 PUSH1 0x1 DUP5 ADD PUSH1 0x0 MSTORE PUSH1 0x20 PUSH1 0x0 KECCAK256 SWAP2 PUSH1 0x0 JUMPDEST PUSH1 0x1F NOT DUP6 AND DUP2 LT PUSH2 0x166E JUMPI POP DUP4 PUSH1 0x2 SWAP4 PUSH2 0x155A SWAP8 SWAP7 SWAP4 PUSH1 0x1 SWAP4 PUSH1 0x60 SWAP8 PUSH1 0x1F NOT DUP2 AND LT PUSH2 0x1655 JUMPI POP POP POP DUP2 SHL ADD PUSH1 0x1 DUP3 ADD SSTORE PUSH2 0x68C JUMP JUMPDEST ADD MLOAD PUSH1 0x0 NOT PUSH1 0xF8 DUP5 PUSH1 0x3 SHL AND SHR NOT AND SWAP1 SSTORE DUP14 DUP1 DUP1 PUSH2 0x7BF JUMP JUMPDEST SWAP2 SWAP3 PUSH1 0x20 PUSH1 0x1 DUP2 SWAP3 DUP7 DUP6 ADD MLOAD DUP2 SSTORE ADD SWAP5 ADD SWAP3 ADD PUSH2 0x161F JUMP JUMPDEST PUSH1 0x1 DUP5 ADD PUSH1 0x0 MSTORE PUSH1 0x20 PUSH1 0x0 KECCAK256 PUSH1 0x1F DUP5 ADD PUSH1 0x5 SHR DUP2 ADD PUSH1 0x20 DUP6 LT PUSH2 0x16C6 JUMPI JUMPDEST PUSH1 0x1F DUP4 ADD PUSH1 0x5 SHR DUP3 ADD DUP2 LT PUSH2 0x16BA JUMPI POP POP PUSH2 0x14E2 JUMP JUMPDEST PUSH1 0x0 DUP2 SSTORE PUSH1 0x1 ADD PUSH2 0x16A4 JUMP JUMPDEST POP DUP1 PUSH2 0x16A4 JUMP JUMPDEST PUSH4 0x4E487B71 PUSH1 0xE0 SHL PUSH1 0x0 MSTORE PUSH1 0x32 PUSH1 0x4 MSTORE PUSH1 0x24 PUSH1 0x0 REVERT JUMPDEST PUSH1 0x40 MLOAD PUSH3 0x461BCD PUSH1 0xE5 SHL DUP2 MSTORE PUSH1 0x20 PUSH1 0x4 DUP3 ADD MSTORE PUSH1 0xC PUSH1 0x24 DUP3 ADD MSTORE PUSH12 0x456D70747920617272617973 PUSH1 0xA0 SHL PUSH1 0x44 DUP3 ADD MSTORE PUSH1 0x64 SWAP1 REVERT JUMPDEST PUSH1 0x40 MLOAD PUSH3 0x461BCD PUSH1 0xE5 SHL DUP2 MSTORE PUSH1 0x20 PUSH1 0x4 DUP3 ADD MSTORE PUSH1 0x15 PUSH1 0x24 DUP3 ADD MSTORE PUSH21 0x82E4E4C2F240D8CADCCEE8D040DAD2E6DAC2E8C6D PUSH1 0x5B SHL PUSH1 0x44 DUP3 ADD MSTORE PUSH1 0x64 SWAP1 REVERT JUMPDEST POP PUSH1 0x0 SLOAD PUSH1 0x1 PUSH1 0x1 PUSH1 0xA0 SHL SUB AND CALLER EQ PUSH2 0x12CF JUMP JUMPDEST SWAP2 DUP2 PUSH1 0x1F DUP5 ADD SLT ISZERO PUSH2 0x197 JUMPI DUP3 CALLDATALOAD SWAP2 PUSH8 0xFFFFFFFFFFFFFFFF DUP4 GT PUSH2 0x197 JUMPI PUSH1 0x20 DUP1 DUP6 ADD SWAP5 DUP5 PUSH1 0x5 SHL ADD ADD GT PUSH2 0x197 JUMPI JUMP JUMPDEST PUSH1 0x24 CALLDATALOAD SWAP1 PUSH1 0x1 PUSH1 0x1 PUSH1 0xA0 SHL SUB DUP3 AND DUP3 SUB PUSH2 0x197 JUMPI JUMP JUMPDEST PUSH1 0x4 CALLDATALOAD SWAP1 PUSH1 0x1 PUSH1 0x1 PUSH1 0xA0 SHL SUB DUP3 AND DUP3 SUB PUSH2 0x197 JUMPI JUMP JUMPDEST SWAP1 PUSH1 0x3 DUP3 LT ISZERO PUSH2 0x3F0 JUMPI MSTORE JUMP JUMPDEST SWAP2 SWAP1 DUP3 MLOAD SWAP3 DUP4 DUP3 MSTORE PUSH1 0x0 JUMPDEST DUP5 DUP2 LT PUSH2 0x17FE JUMPI POP POP DUP3 PUSH1 0x0 PUSH1 0x20 DUP1 SWAP5 SWAP6 DUP5 ADD ADD MSTORE PUSH1 0x1F DUP1 NOT SWAP2 ADD AND ADD ADD SWAP1 JUMP JUMPDEST PUSH1 0x20 DUP2 DUP4 ADD DUP2 ADD MLOAD DUP5 DUP4 ADD DUP3 ADD MSTORE ADD PUSH2 0x17DD JUMP JUMPDEST PUSH1 0x5 SLOAD DUP2 LT ISZERO PUSH2 0x16CD JUMPI PUSH1 0x5 PUSH1 0x0 MSTORE PUSH32 0x36B6384B5ECA791C62761152D0C79BB0604C104A5FB6F4EB0703F3154BB3DB0 ADD SWAP1 PUSH1 0x0 SWAP1 JUMP JUMPDEST DUP1 SLOAD DUP3 LT ISZERO PUSH2 0x16CD JUMPI PUSH1 0x0 MSTORE PUSH1 0x20 PUSH1 0x0 KECCAK256 ADD SWAP1 PUSH1 0x0 SWAP1 JUMP JUMPDEST SWAP1 PUSH1 0x1 DUP3 DUP2 SHR SWAP3 AND DUP1 ISZERO PUSH2 0x1891 JUMPI JUMPDEST PUSH1 0x20 DUP4 LT EQ PUSH2 0x187B JUMPI JUMP JUMPDEST PUSH4 0x4E487B71 PUSH1 0xE0 SHL PUSH1 0x0 MSTORE PUSH1 0x22 PUSH1 0x4 MSTORE PUSH1 0x24 PUSH1 0x0 REVERT JUMPDEST SWAP2 PUSH1 0x7F AND SWAP2 PUSH2 0x1870 JUMP JUMPDEST PUSH1 0x80 DUP2 ADD SWAP1 DUP2 LT PUSH8 0xFFFFFFFFFFFFFFFF DUP3 GT OR PUSH2 0x847 JUMPI PUSH1 0x40 MSTORE JUMP JUMPDEST PUSH1 0xE0 DUP2 ADD SWAP1 DUP2 LT PUSH8 0xFFFFFFFFFFFFFFFF DUP3 GT OR PUSH2 0x847 JUMPI PUSH1 0x40 MSTORE JUMP JUMPDEST SWAP1 PUSH1 0x1F DUP1 NOT SWAP2 ADD AND DUP2 ADD SWAP1 DUP2 LT PUSH8 0xFFFFFFFFFFFFFFFF DUP3 GT OR PUSH2 0x847 JUMPI PUSH1 0x40 MSTORE JUMP JUMPDEST SWAP1 PUSH1 0x40 MLOAD SWAP2 DUP3 PUSH1 0x0 DUP3 SLOAD SWAP3 PUSH2 0x1909 DUP5 PUSH2 0x1861 JUMP JUMPDEST SWAP1 DUP2 DUP5 MSTORE PUSH1 0x1 SWAP5 DUP6 DUP2 AND SWAP1 DUP2 PUSH1 0x0 EQ PUSH2 0x1978 JUMPI POP PUSH1 0x1 EQ PUSH2 0x1935 JUMPI JUMPDEST POP POP PUSH2 0x1933 SWAP3 POP SUB DUP4 PUSH2 0x18D3 JUMP JUMPDEST JUMP JUMPDEST SWAP1 SWAP4 SWAP2 POP PUSH1 0x0 MSTORE PUSH1 0x20 SWAP1 DUP2 PUSH1 0x0 KECCAK256 SWAP4 PUSH1 0x0 SWAP2 JUMPDEST DUP2 DUP4 LT PUSH2 0x1960 JUMPI POP POP PUSH2 0x1933 SWAP4 POP DUP3 ADD ADD CODESIZE DUP1 PUSH2 0x1925 JUMP JUMPDEST DUP6 SLOAD DUP9 DUP5 ADD DUP6 ADD MSTORE SWAP5 DUP6 ADD SWAP5 DUP8 SWAP5 POP SWAP2 DUP4 ADD SWAP2 PUSH2 0x1948 JUMP JUMPDEST SWAP2 POP POP PUSH2 0x1933 SWAP5 POP PUSH1 0x20 SWAP3 POP PUSH1 0xFF NOT AND DUP3 DUP5 ADD MSTORE ISZERO ISZERO PUSH1 0x5 SHL DUP3 ADD ADD CODESIZE DUP1 PUSH2 0x1925 JUMP JUMPDEST PUSH1 0x0 SLOAD PUSH1 0x1 PUSH1 0x1 PUSH1 0xA0 SHL SUB AND CALLER SUB PUSH2 0x19AF JUMPI JUMP JUMPDEST PUSH1 0x40 MLOAD PUSH4 0x118CDAA7 PUSH1 0xE0 SHL DUP2 MSTORE CALLER PUSH1 0x4 DUP3 ADD MSTORE PUSH1 0x24 SWAP1 REVERT JUMPDEST ISZERO PUSH2 0x19CE JUMPI JUMP JUMPDEST PUSH1 0x40 MLOAD PUSH3 0x461BCD PUSH1 0xE5 SHL DUP2 MSTORE PUSH1 0x20 PUSH1 0x4 DUP3 ADD MSTORE PUSH1 0x1A PUSH1 0x24 DUP3 ADD MSTORE PUSH32 0x4E6F7420617574686F72697A656420636F6F7264696E61746F72000000000000 PUSH1 0x44 DUP3 ADD MSTORE PUSH1 0x64 SWAP1 REVERT JUMPDEST PUSH1 0xFF PUSH1 0x0 SLOAD PUSH1 0xA0 SHR AND PUSH2 0x1A22 JUMPI JUMP JUMPDEST PUSH1 0x40 MLOAD PUSH4 0xD93C0665 PUSH1 0xE0 SHL DUP2 MSTORE PUSH1 0x4 SWAP1 REVERT JUMPDEST ISZERO PUSH2 0x1A3B JUMPI JUMP JUMPDEST PUSH1 0x40 MLOAD PUSH3 0x461BCD PUSH1 0xE5 SHL DUP2 MSTORE PUSH1 0x20 PUSH1 0x4 DUP3 ADD MSTORE PUSH1 0x16 PUSH1 0x24 DUP3 ADD MSTORE PUSH22 0x14D95CDCDA5BDB88191BD95CC81B9BDD08195E1A5CDD PUSH1 0x52 SHL PUSH1 0x44 DUP3 ADD MSTORE PUSH1 0x64 SWAP1 REVERT JUMPDEST ISZERO PUSH2 0x1A80 JUMPI JUMP JUMPDEST PUSH1 0x40 MLOAD PUSH3 0x461BCD PUSH1 0xE5 SHL DUP2 MSTORE PUSH1 0x20 PUSH1 0x4 DUP3 ADD MSTORE PUSH1 0x12 PUSH1 0x24 DUP3 ADD MSTORE PUSH18 0x53657373696F6E206E6F7420616374697665 PUSH1 0x70 SHL PUSH1 0x44 DUP3 ADD MSTORE PUSH1 0x64 SWAP1 REVERT JUMPDEST ISZERO PUSH2 0x1AC1 JUMPI JUMP JUMPDEST PUSH1 0x40 MLOAD PUSH3 0x461BCD PUSH1 0xE5 SHL DUP2 MSTORE PUSH1 0x20 PUSH1 0x4 DUP3 ADD MSTORE PUSH1 0x14 PUSH1 0x24 DUP3 ADD MSTORE PUSH20 0x496E76616C6964206E6F64652061646472657373 PUSH1 0x60 SHL PUSH1 0x44 DUP3 ADD MSTORE PUSH1 0x64 SWAP1 REVERT JUMPDEST ISZERO PUSH2 0x1B04 JUMPI JUMP JUMPDEST PUSH1 0x40 MLOAD PUSH3 0x461BCD PUSH1 0xE5 SHL DUP2 MSTORE PUSH1 0x20 PUSH1 0x4 DUP3 ADD MSTORE PUSH1 0xF PUSH1 0x24 DUP3 ADD MSTORE PUSH15 0x125B9D985B1A59081B9BD919481251 PUSH1 0x8A SHL PUSH1 0x44 DUP3 ADD MSTORE PUSH1 0x64 SWAP1 REVERT JUMPDEST SWAP3 SWAP2 SWAP3 PUSH8 0xFFFFFFFFFFFFFFFF DUP3 GT PUSH2 0x847 JUMPI PUSH1 0x40 MLOAD SWAP2 PUSH2 0x1B65 PUSH1 0x1F DUP3 ADD PUSH1 0x1F NOT AND PUSH1 0x20 ADD DUP5 PUSH2 0x18D3 JUMP JUMPDEST DUP3 SWAP5 DUP2 DUP5 MSTORE DUP2 DUP4 ADD GT PUSH2 0x197 JUMPI DUP3 DUP2 PUSH1 0x20 SWAP4 DUP5 PUSH1 0x0 SWAP7 ADD CALLDATACOPY ADD ADD MSTORE JUMP JUMPDEST DUP1 SLOAD PUSH1 0x1 PUSH1 0x40 SHL DUP2 LT ISZERO PUSH2 0x847 JUMPI PUSH2 0x1B9F SWAP2 PUSH1 0x1 DUP3 ADD DUP2 SSTORE PUSH2 0x1849 JUMP JUMPDEST DUP2 SWAP3 SWAP2 SLOAD SWAP1 PUSH1 0x3 SHL SWAP2 PUSH1 0x1 DUP1 PUSH1 0xA0 SHL SUB DUP1 SWAP2 AND DUP4 SHL SWAP3 SHL NOT AND OR SWAP1 SSTORE JUMP JUMPDEST PUSH4 0xFFFFFFFF DUP1 SWAP2 AND SWAP1 DUP2 EQ PUSH2 0x1411 JUMPI PUSH1 0x1 ADD SWAP1 JUMP JUMPDEST SWAP2 PUSH1 0x60 DUP2 PUSH1 0x1 PUSH1 0x1 PUSH1 0x60 SHL SUB SWAP3 PUSH1 0x20 SWAP5 SWAP8 SWAP7 SWAP8 PUSH1 0x40 DUP8 MSTORE DUP2 PUSH1 0x40 DUP9 ADD MSTORE DUP4 DUP8 ADD CALLDATACOPY PUSH1 0x0 DUP3 DUP3 DUP8 ADD ADD MSTORE PUSH1 0x1F DUP1 NOT SWAP2 ADD AND DUP5 ADD ADD SWAP5 AND SWAP2 ADD MSTORE JUMP INVALID LOG2 PUSH5 0x6970667358 0x22 SLT KECCAK256 0x4D 0xD9 0xB2 DUP14 POP 0x2C 0xF7 MULMOD 0x1E PUSH20 0xEBF72891F65904EFB81595DFFC3E967A53B5C0E1 JUMP STATICCALL PUSH5 0x736F6C6343 STOP ADDMOD EQ STOP CALLER "},"methodIdentifiers":{"allSessions(uint256)":"d9cc134c","authorizedCoordinators(address)":"674e1d45","cancelSession(bytes32)":"4d213982","completeSession(bytes32)":"8a060754","createSession(bytes32,bytes32)":"76592bee","deactivateNode(bytes32,address)":"2aeafccd","getNodeRegistration(bytes32,address)":"535ef13b","getSession(bytes32)":"39b240bd","getSessionNodes(bytes32)":"410ece4e","getTotalSessions()":"6073e4b7","owner()":"8da5cb5b","pause()":"8456cb59","paused()":"5c975abb","registerNode(bytes32,address,string)":"821ca697","registerNodesBatch(bytes32,address[],string[])":"1d764ed5","renounceOwnership()":"715018a6","sessionNodeList(bytes32,uint256)":"af453f95","sessionNodes(bytes32,address)":"c3f3e9b7","sessions(bytes32)":"7dbd2832","setCoordinatorAuthorization(address,bool)":"5414c649","transferOwnership(address)":"f2fde38b","unpause()":"3f4ba83a"}}}}}