{"contracts/RewardDistributor.sol":{"RewardDistributor":{"abi":[{"inputs":[{"internalType":"address","name":"initialOwner","type":"address"},{"internalType":"address","name":"_rewardToken","type":"address"},{"internalType":"bool","name":"_useNativeToken","type":"bool"}],"stateMutability":"nonpayable","type":"constructor"},{"inputs":[],"name":"EnforcedPause","type":"error"},{"inputs":[],"name":"ExpectedPause","type":"error"},{"inputs":[{"internalType":"address","name":"owner","type":"address"}],"name":"OwnableInvalidOwner","type":"error"},{"inputs":[{"internalType":"address","name":"account","type":"address"}],"name":"OwnableUnauthorizedAccount","type":"error"},{"inputs":[],"name":"ReentrancyGuardReentrantCall","type":"error"},{"inputs":[{"internalType":"address","name":"token","type":"address"}],"name":"SafeERC20FailedOperation","type":"error"},{"anonymous":false,"inputs":[{"indexed":true,"internalType":"address","name":"coordinator","type":"address"},{"indexed":false,"internalType":"bool","name":"status","type":"bool"}],"name":"CoordinatorAuthorized","type":"event"},{"anonymous":false,"inputs":[{"indexed":true,"internalType":"address","name":"previousOwner","type":"address"},{"indexed":true,"internalType":"address","name":"newOwner","type":"address"}],"name":"OwnershipTransferred","type":"event"},{"anonymous":false,"inputs":[{"indexed":false,"internalType":"address","name":"account","type":"address"}],"name":"Paused","type":"event"},{"anonymous":false,"inputs":[{"indexed":true,"internalType":"bytes32","name":"sessionId","type":"bytes32"},{"indexed":true,"internalType":"address","name":"nodeAddress","type":"address"},{"indexed":false,"internalType":"uint256","name":"amount","type":"uint256"},{"indexed":false,"internalType":"uint96","name":"timestamp","type":"uint96"}],"name":"RewardClaimed","type":"event"},{"anonymous":false,"inputs":[{"indexed":true,"internalType":"bytes32","name":"sessionId","type":"bytes32"},{"indexed":false,"internalType":"uint256","name":"totalPool","type":"uint256"},{"indexed":false,"internalType":"enum RewardDistributor.RewardStrategy","name":"strategy","type":"uint8"},{"indexed":false,"internalType":"uint96","name":"timestamp","type":"uint96"}],"name":"RewardPoolCreated","type":"event"},{"anonymous":false,"inputs":[{"indexed":true,"internalType":"bytes32","name":"sessionId","type":"bytes32"},{"indexed":false,"internalType":"uint256","name":"totalDistributed","type":"uint256"},{"indexed":false,"internalType":"uint256","name":"totalClaimed","type":"uint256"}],"name":"RewardPoolFinalized","type":"event"},{"anonymous":false,"inputs":[{"indexed":true,"internalType":"bytes32","name":"sessionId","type":"bytes32"},{"indexed":false,"internalType":"uint256","name":"nodeCount","type":"uint256"},{"indexed":false,"internalType":"uint256","name":"totalDistributed","type":"uint256"}],"name":"RewardsCalculated","type":"event"},{"anonymous":false,"inputs":[{"indexed":false,"internalType":"address","name":"account","type":"address"}],"name":"Unpaused","type":"event"},{"inputs":[],"name":"MIN_GUARANTEE_BPS","outputs":[{"internalType":"uint256","name":"","type":"uint256"}],"stateMutability":"view","type":"function"},{"inputs":[],"name":"TIER1_BONUS","outputs":[{"internalType":"uint256","name":"","type":"uint256"}],"stateMutability":"view","type":"function"},{"inputs":[],"name":"TIER1_THRESHOLD","outputs":[{"internalType":"uint256","name":"","type":"uint256"}],"stateMutability":"view","type":"function"},{"inputs":[],"name":"TIER2_BONUS","outputs":[{"internalType":"uint256","name":"","type":"uint256"}],"stateMutability":"view","type":"function"},{"inputs":[],"name":"TIER2_THRESHOLD","outputs":[{"internalType":"uint256","name":"","type":"uint256"}],"stateMutability":"view","type":"function"},{"inputs":[{"internalType":"address","name":"","type":"address"}],"name":"authorizedCoordinators","outputs":[{"internalType":"bool","name":"","type":"bool"}],"stateMutability":"view","type":"function"},{"inputs":[{"internalType":"bytes32","name":"_sessionId","type":"bytes32"},{"internalType":"address[]","name":"_nodeAddresses","type":"address[]"},{"internalType":"uint256[]","name":"_contributions","type":"uint256[]"}],"name":"calculateRewardsProportional","outputs":[],"stateMutability":"nonpayable","type":"function"},{"inputs":[{"internalType":"bytes32","name":"_sessionId","type":"bytes32"},{"internalType":"address[]","name":"_nodeAddresses","type":"address[]"},{"internalType":"uint256[]","name":"_contributions","type":"uint256[]"}],"name":"calculateRewardsTiered","outputs":[],"stateMutability":"nonpayable","type":"function"},{"inputs":[{"internalType":"bytes32","name":"_sessionId","type":"bytes32"},{"internalType":"address[]","name":"_nodeAddresses","type":"address[]"},{"internalType":"uint256[]","name":"_contributions","type":"uint256[]"}],"name":"calculateRewardsWithMinimum","outputs":[],"stateMutability":"nonpayable","type":"function"},{"inputs":[{"internalType":"bytes32","name":"_sessionId","type":"bytes32"}],"name":"claimReward","outputs":[],"stateMutability":"nonpayable","type":"function"},{"inputs":[{"internalType":"bytes32[]","name":"_sessionIds","type":"bytes32[]"}],"name":"claimRewardsBatch","outputs":[],"stateMutability":"nonpayable","type":"function"},{"inputs":[{"internalType":"bytes32","name":"_sessionId","type":"bytes32"},{"internalType":"uint256","name":"_totalPool","type":"uint256"},{"internalType":"enum RewardDistributor.RewardStrategy","name":"_strategy","type":"uint8"}],"name":"createRewardPool","outputs":[],"stateMutability":"payable","type":"function"},{"inputs":[{"internalType":"bytes32","name":"_sessionId","type":"bytes32"}],"name":"emergencyWithdraw","outputs":[],"stateMutability":"nonpayable","type":"function"},{"inputs":[{"internalType":"bytes32","name":"_sessionId","type":"bytes32"}],"name":"finalizeRewardPool","outputs":[],"stateMutability":"nonpayable","type":"function"},{"inputs":[{"internalType":"bytes32","name":"_sessionId","type":"bytes32"},{"internalType":"address","name":"_nodeAddress","type":"address"}],"name":"getPendingReward","outputs":[{"internalType":"uint256","name":"","type":"uint256"}],"stateMutability":"view","type":"function"},{"inputs":[{"internalType":"bytes32","name":"_sessionId","type":"bytes32"}],"name":"getRewardPool","outputs":[{"components":[{"internalType":"bytes32","name":"sessionId","type":"bytes32"},{"internalType":"uint256","name":"totalPool","type":"uint256"},{"internalType":"uint256","name":"distributed","type":"uint256"},{"internalType":"uint256","name":"claimed","type":"uint256"},{"internalType":"enum RewardDistributor.RewardStrategy","name":"strategy","type":"uint8"},{"internalType":"uint96","name":"calculatedAt","type":"uint96"},{"internalType":"bool","name":"finalized","type":"bool"}],"internalType":"struct RewardDistributor.RewardPool","name":"","type":"tuple"}],"stateMutability":"view","type":"function"},{"inputs":[{"internalType":"bytes32","name":"_sessionId","type":"bytes32"}],"name":"getSessionRewardees","outputs":[{"internalType":"address[]","name":"","type":"address[]"}],"stateMutability":"view","type":"function"},{"inputs":[{"internalType":"bytes32","name":"","type":"bytes32"},{"internalType":"address","name":"","type":"address"}],"name":"nodeRewards","outputs":[{"internalType":"address","name":"nodeAddress","type":"address"},{"internalType":"uint256","name":"rewardAmount","type":"uint256"},{"internalType":"uint96","name":"calculatedAt","type":"uint96"},{"internalType":"bool","name":"claimed","type":"bool"}],"stateMutability":"view","type":"function"},{"inputs":[],"name":"owner","outputs":[{"internalType":"address","name":"","type":"address"}],"stateMutability":"view","type":"function"},{"inputs":[],"name":"pause","outputs":[],"stateMutability":"nonpayable","type":"function"},{"inputs":[],"name":"paused","outputs":[{"internalType":"bool","name":"","type":"bool"}],"stateMutability":"view","type":"function"},{"inputs":[{"internalType":"address","name":"","type":"address"}],"name":"pendingWithdrawals","outputs":[{"internalType":"uint256","name":"","type":"uint256"}],"stateMutability":"view","type":"function"},{"inputs":[],"name":"renounceOwnership","outputs":[],"stateMutability":"nonpayable","type":"function"},{"inputs":[{"internalType":"bytes32","name":"","type":"bytes32"}],"name":"rewardPools","outputs":[{"internalType":"bytes32","name":"sessionId","type":"bytes32"},{"internalType":"uint256","name":"totalPool","type":"uint256"},{"internalType":"uint256","name":"distributed","type":"uint256"},{"internalType":"uint256","name":"claimed","type":"uint256"},{"internalType":"enum RewardDistributor.RewardStrategy","name":"strategy","type":"uint8"},{"internalType":"uint96","name":"calculatedAt","type":"uint96"},{"internalType":"bool","name":"finalized","type":"bool"}],"stateMutability":"view","type":"function"},{"inputs":[],"name":"rewardToken","outputs":[{"internalType":"contract IERC20","name":"","type":"address"}],"stateMutability":"view","type":"function"},{"inputs":[{"internalType":"bytes32","name":"","type":"bytes32"},{"internalType":"uint256","name":"","type":"uint256"}],"name":"sessionRewardees","outputs":[{"internalType":"address","name":"","type":"address"}],"stateMutability":"view","type":"function"},{"inputs":[{"internalType":"address","name":"_coordinator","type":"address"},{"internalType":"bool","name":"_status","type":"bool"}],"name":"setCoordinatorAuthorization","outputs":[],"stateMutability":"nonpayable","type":"function"},{"inputs":[{"internalType":"address","name":"newOwner","type":"address"}],"name":"transferOwnership","outputs":[],"stateMutability":"nonpayable","type":"function"},{"inputs":[],"name":"unpause","outputs":[],"stateMutability":"nonpayable","type":"function"},{"inputs":[],"name":"useNativeToken","outputs":[{"internalType":"bool","name":"","type":"bool"}],"stateMutability":"view","type":"function"},{"stateMutability":"payable","type":"receive"}],"evm":{"bytecode":{"linkReferences":{},"object":"6080346200018657601f620022f438819003918201601f1916830191906001600160401b038311848410176200018b57816060928592604095865283398101031262000186576200005082620001a1565b91816200006060208301620001a1565b910151801593841580920362000186576001600160a01b039081169081156200016e57600080546001600160a01b0319808216851783558751989296909490929184167f8be0079c531659141344cd1fd0a4f28419497f9722a3daafe3b4186f6b6457e08880a3600180556200010f575b6006805460ff60a01b191660a086901b60ff60a01b161790553385526007602052858520805460ff19166001179055855161213d9081620001b78239f35b169081156200012c578495506006541617600655388080620000d1565b62461bcd60e51b865260206004870152601560248701527f496e76616c696420746f6b656e206164647265737300000000000000000000006044870152606486fd5b8451631e4fbdf760e01b815260006004820152602490fd5b600080fd5b634e487b7160e01b600052604160045260246000fd5b51906001600160a01b0382168203620001865756fe608080604052600436101561001d575b50361561001b57600080fd5b005b60003560e01c908163086d2c8714611aea575080630b878aa6146119ea5780632073de5c146119695780632beaa07d1461160e578063396cde4c1461124b5780633a6f85b11461122e5780633c2fb9291461105e5780633e3ee1e214610f5f5780633f4ba83a14610eed5780635414c64914610e225780635c975abb14610dfc578063618e9de114610d83578063642ce35514610454578063674e1d4514610d4457806369608a3114610d16578063715018a614610cbd57806375870d6514610ba45780637711681414610aec5780637f792c791461081d5780638232697a146107f75780638456cb59146107955780638da5cb5b1461076c578063a571f40b1461071a578063c1927292146106fd578063c5856aa714610459578063dc29b8f814610454578063f2fde38b146103cb578063f3f4370314610391578063f5414023146101a25763f7c618c114610174573861000f565b3461019d57600036600319011261019d576006546040516001600160a01b039091168152602090f35b600080fd5b3461019d5760208060031936011261019d576004356101bf612055565b6101c7611d7c565b80600052600382526040600020336000528252604060002091600183015492831561035757600201805460ff8160601c1661032057336000526005835284604060002054106102e45760ff60601b1916600160601b17905533600090815260058252604090208054600292919061023f908690611f5a565b905582600052526003604060002001610259838254611e87565b90556006548260ff8260a01c166000146102cb576102899150600080808093335af1610283611f93565b50611fd3565b604080519283526001600160601b034216602084015233927fe3e7ff31fafbbcfbfa53d48ee00511265329ad66b8ea94efb4117f9e4e709de69190a360018055005b6102df9133906001600160a01b0316612015565b610289565b60405162461bcd60e51b8152600481018490526014602482015273496e73756666696369656e742062616c616e636560601b6044820152606490fd5b60405162461bcd60e51b815260048101849052600f60248201526e105b1c9958591e4818db185a5b5959608a1b6044820152606490fd5b60405162461bcd60e51b81526004810183905260126024820152714e6f2072657761726420746f20636c61696d60701b6044820152606490fd5b3461019d57602036600319011261019d576001600160a01b036103b2611ba9565b1660005260056020526020604060002054604051908152f35b3461019d57602036600319011261019d576103e4611ba9565b6103ec611c20565b6001600160a01b0390811690811561043b57600054826001600160601b0360a01b821617600055167f8be0079c531659141344cd1fd0a4f28419497f9722a3daafe3b4186f6b6457e0600080a3005b604051631e4fbdf760e01b815260006004820152602490fd5b611bd5565b3461019d5761046736611b59565b9290919233600052600760205260ff6040600020541680156106e9575b6104919093919293611c4c565b610499611d7c565b8460005260026020526040600020916104b760018401541515611d9d565b6104cb60ff600485015460681c1615611ddf565b6104d6818614611e24565b60009360005b8281106106bc57506104ef851515611e94565b6000946000935b8785106105485760028601879055600486018054610100600160681b0319164260081b610100600160681b0316179055886000805160206120e883398151915260408a8a5b82519182526020820152a2005b90919293956106ad6106b3916105778561057260018b015461056b8d8c8a611e77565b3590611ed3565b611ee6565b906106518a8d8d8a6105e9610593610598610593878686611e77565b611f06565b95604051966105a688611cca565b60018060a01b031687528960208801526001600160601b0342166040880152606087019560008752600052600360205260406000209460018060a01b0394611e77565b166000526020526001600160601b03604060028160002060018060a01b038651168460a01b8254161781556020860151600182015501930151166001600160601b031983541617825551151581549060ff60601b90151560601b169060ff60601b1916179055565b8b60005260046020526106778b6106716105938d6040600020938c611e77565b90611f1a565b6001600160a01b0361068d6105938c8e8b611e77565b16600052600560205260406000206106a6838254611e87565b9055611e87565b96611e68565b939291906104f6565b909192946106d96106df916106d284878a611e77565b3590611e87565b91611e68565b94929190946104dc565b506000546001600160a01b03163314610484565b3461019d57600036600319011261019d5760206040516105dc8152f35b3461019d57604036600319011261019d5760243560043560005260046020526040600020805482101561019d5760209161075391611bf2565b905460405160039290921b1c6001600160a01b03168152f35b3461019d57600036600319011261019d576000546040516001600160a01b039091168152602090f35b3461019d57600036600319011261019d576107ae611c20565b6107b6611d7c565b6000805460ff60a01b1916600160a01b1790556040513381527f62e78cea01bee320cd4e420270b5ea74000d11b0c9f74754ebdbfc544b05a25890602090a1005b3461019d57600036600319011261019d57602060ff60065460a01c166040519015158152f35b606036600319011261019d576004356024803590604435600481101561019d573360005260206007815260ff604060002054168015610ad8575b61086090611c4c565b610868611d7c565b8460005260028152600160406000200154610a9f578315610a665760065460ff8160a01c166000146109fa57508334036109c0575b6040516108a981611c98565b858152818101858152604082019460008652600460608401936000855260808101946108d58887611d08565b60a082019860008a5260c0830195600087528c600052600289526040600020935184555160018401555160028301555160038201550192519060048210156109ac575082549551915160ff60681b90151560681b166dffffffffffffffffffffffffffff1990961660ff9190911617610100600160681b0360089290921b9190911617939093179092556040519283527f46b79013b8e13b017e42c87777dc5bfd1158aeba1183af138afb1ffcca35acab9260609290916001600160601b03916109a29190840190611b05565b42166040820152a2005b634e487b7160e01b60009081526021600452fd5b6064906014846040519262461bcd60e51b8452600484015282015273125b98dbdc9c9958dd0811551208185b5bdd5b9d60621b6044820152fd5b6040516323b872dd60e01b838201523385820152306044820152606480820187905281529060a0820167ffffffffffffffff811183821017610a5157604052610a4c91906001600160a01b0316611d14565b61089d565b85634e487b7160e01b60005260416004526000fd5b6064906013846040519262461bcd60e51b8452600484015282015272125b9d985b1a59081c1bdbdb08185b5bdd5b9d606a1b6044820152fd5b6064906013846040519262461bcd60e51b8452600484015282015272506f6f6c20616c72656164792065786973747360681b6044820152fd5b506000546001600160a01b03163314610857565b3461019d5760208060031936011261019d5760043560005260048152604060002060405190818382549182815201908192600052846000209060005b86828210610b87578686610b3e82880383611ce6565b604051928392818401908285525180915260408401929160005b828110610b6757505050500390f35b83516001600160a01b031685528695509381019392810192600101610b58565b83546001600160a01b031685529093019260019283019201610b28565b3461019d57602036600319011261019d57610bbd611c20565b6004356000526002602052604060002060ff600482015460681c1615610c835760036002820154910190610bf2825482611f5a565b918215610c47575560065460ff8160a01c16600014610c2d57506000805461001b928291829182916001600160a01b03165af1610283611f93565b60005461001b92916001600160a01b039182169116612015565b60405162461bcd60e51b81526020600482015260146024820152734e6f20756e636c61696d6564207265776172647360601b6044820152606490fd5b60405162461bcd60e51b8152602060048201526012602482015271141bdbdb081b9bdd08199a5b985b1a5e995960721b6044820152606490fd5b3461019d57600036600319011261019d57610cd6611c20565b600080546001600160a01b0319811682556001600160a01b03167f8be0079c531659141344cd1fd0a4f28419497f9722a3daafe3b4186f6b6457e08280a3005b3461019d57604036600319011261019d576020610d3c610d34611bbf565b600435612078565b604051908152f35b3461019d57602036600319011261019d576001600160a01b03610d65611ba9565b166000526007602052602060ff604060002054166040519015158152f35b3461019d57604036600319011261019d576080610d9e611bbf565b6004356000526003602052604060002060018060a01b0380921660005260205260ff60406000209182541691600260018201549101549060405193845260208401526001600160601b038116604084015260601c1615156060820152f35b3461019d57600036600319011261019d57602060ff60005460a01c166040519015158152f35b3461019d57604036600319011261019d57610e3b611ba9565b6024359081151580920361019d57610e51611c20565b6001600160a01b0316908115610ea85760207fa755b73ca9ab5908508aef0b2cde25ffc1caf1b79f4833e57436d517461ca6be918360005260078252604060002060ff1981541660ff8316179055604051908152a2005b60405162461bcd60e51b815260206004820152601b60248201527f496e76616c696420636f6f7264696e61746f72206164647265737300000000006044820152606490fd5b3461019d57600036600319011261019d57610f06611c20565b60005460ff8160a01c1615610f4d5760ff60a01b19166000556040513381527f5db9ee0a495bf2e6ff9c91a7834c1ba4fdd244a5e8aa4e537bd38aeae4b073aa90602090a1005b604051638dfc202b60e01b8152600490fd5b3461019d57602036600319011261019d5760043533600052600760205260ff60406000205416801561104a575b610f9590611c4c565b8060005260026020526040600020610fb260018201541515611d9d565b600481019081549060ff8260681c16611011577f026993294d21da9a39c4b79f6a7a0eca9b79a3a37bb70eae271d40f34541d80a92604092600160681b9060ff60681b19161790556003600282015491015482519182526020820152a2005b60405162461bcd60e51b8152602060048201526011602482015270105b1c9958591e48199a5b985b1a5e9959607a1b6044820152606490fd5b506000546001600160a01b03163314610f8c565b3461019d5760208060031936011261019d5760043567ffffffffffffffff811161019d57611090903690600401611b28565b919061109a612055565b6110a2611d7c565b60009260005b8181106111395750505081156110ff575060065460ff8160a01c166000146110e5575060008080806110df94335af1610283611f93565b60018055005b6110fa919033906001600160a01b0316612015565b6110df565b6064906040519062461bcd60e51b8252600482015260136024820152724e6f207265776172647320746f20636c61696d60681b6044820152fd5b611144818385611e77565b3580600052600380865260406000203360005286526040600020906001820154918215158061121c575b611185575b5050505061118090611e68565b6110a8565b6111809493986111d49284926002809101600160601b60ff60601b1982541617905560058b5260406000206111bb858254611f5a565b90558b6000528a526040600020016106a6838254611e87565b604080519283526001600160601b03421660208401529097339290917fe3e7ff31fafbbcfbfa53d48ee00511265329ad66b8ea94efb4117f9e4e709de691a390868080611173565b5060ff600282015460601c161561116e565b3461019d57600036600319011261019d5760206040516101f48152f35b3461019d5761125936611b59565b9290919233600052600760205260ff6040600020541680156115fa575b61127f90611c4c565b611287611d7c565b8460005260026020526040600020916001830154936112a7851515611d9d565b6112bb60ff600486015460681c1615611ddf565b6112c6838714611e24565b60009260005b8781106115dc57506112df841515611e94565b6112e98787611ee6565b91611388928381029381850414901517156115c65761130788611f67565b946113156040519687611ce6565b888652601f196113248a611f67565b0136602088013760009760009360005b8b811061155957505050505060009580151560001461142f576113579088611f5a565b80156114235761136691611ee6565b9291905b6000935b8785106113bc5750505050509160409161053b6000805160206120e8833981519152945b600281018390556004018054610100600160681b0319164260081b610100600160681b0316179055565b90919293956106ad6114009161271085046113d78a89611f7f565b511015611409576127108504905b6106518a8d8d8a6105e9610593610598610593878686611e77565b9392919061136e565b61141d846114178b8a611f7f565b51611f5a565b906113e5565b5050600092919061136a565b50505094939291906000905b8482106114635750506000805160206120e88339815191529394509061053b60409392611392565b909261154d611553916114e061147d610593888a8d611e77565b6114878887611f7f565b516040519161149583611cca565b60018060a01b0316825260208201526001600160601b034216604082015260608101600081528a6000526003602052898c6105e96105938c60406000209460018060a01b0394611e77565b87600052600460205261150089610671610593898b604060002094611e77565b61150a8685611f7f565b516001600160a01b03611521610593898b8e611e77565b16600052600560205261153a6040600020918254611e87565b90556115468685611f7f565b5190611e87565b93611e68565b9061143b565b6115728461057261156b84868a611e77565b3586611ed3565b8061157d838c611f7f565b5261271088048110611599575b5061159490611e68565b611334565b9a61159491966115b96115ae6115bf93611e68565b9d6127108b04611f5a565b90611e87565b959061158a565b634e487b7160e01b600052601160045260246000fd5b936115ef6115f5916106d2878587611e77565b94611e68565b6112cc565b506000546001600160a01b03163314611276565b3461019d5761161c36611b59565b91929033600052600760205260ff604060002054168015611955575b61164190611c4c565b611649611d7c565b846000526002602052604060002091600183015490611669821515611d9d565b61167d60ff600486015460681c1615611ddf565b611688858714611e24565b60009260005b87811061193d57506116a1841515611e94565b61138890871591888181020481148317156115c657611f40928984810204841417156115c6576000978561213481020461213414861517156115c6576116f561271061213488979695949998020486611f5a565b906000975b8c8c8a106117435760028b018c905560048b018054610100600160681b0319164260081b610100600160681b03161790556000805160206120e883398151915260408e8e61053b565b8c90878b611776819f95969798999a9b9c610572819f8f9061213461176d8f928e61271094611e77565b35920204611ed3565b9360006127108883020483101561189b5750505050506105dc85818102048114861517156115c6576117b6906117ad8e878a611e77565b35908702611ed3565b908a612710810204612710148b1517156115c65761188e928f918f8f610593908f926117f28f956115b96118889a61271061068d980290611ee6565b9661185c61180461059385858a611e77565b6040519061181182611cca565b60018060a01b031681528960208201526001600160601b034216604082015260608101600081528360005260036020526040600020896105e9610593898960018060a01b0394611e77565b600052600460205261187a604060002061067161059385858a611e77565b6001600160a01b0394611e77565b9a611e68565b97969594939291906116fa565b90919293946127108c84020484106118c9575b61188e96936118889695936117f261068d9461059394611e87565b9450505050506101f485818102048114861517156115c6576118f0906117ad8e878a611e77565b908a612710810204612710148b1517156115c65761188e928f918f8f610593908f926117f28f9561192c6118889a61271061068d980290611ee6565b9550935050939596509396506118ae565b936115ef611950916106d2878a86611e77565b61168e565b506000546001600160a01b03163314611638565b3461019d57602036600319011261019d57600435600052600260205260e0604060002060ff815491600181015490600281015460046003830154920154926040519586526020860152604085015260608401526119cb60808401838316611b05565b6001600160601b038160081c1660a084015260681c16151560c0820152f35b3461019d57602036600319011261019d57600060c0604051611a0b81611c98565b8281528260208201528260408201528260608201528260808201528260a08201520152600435600052600260205260e0604060002060405190611a4d82611c98565b80548252600181015460208301908152600282015460408401908152611ad96004600385015494606087019586520154936080860190611a9060ff871683611d08565b60a08701936001600160601b0395868860081c16865260ff60c08a019860681c161515885260405198518952516020890152516040880152516060870152516080860190611b05565b511660a083015251151560c0820152f35b3461019d57600036600319011261019d5780611f4060209252f35b906004821015611b125752565b634e487b7160e01b600052602160045260246000fd5b9181601f8401121561019d5782359167ffffffffffffffff831161019d576020808501948460051b01011161019d57565b90606060031983011261019d576004359167ffffffffffffffff9160243583811161019d5782611b8b91600401611b28565b9390939260443591821161019d57611ba591600401611b28565b9091565b600435906001600160a01b038216820361019d57565b602435906001600160a01b038216820361019d57565b3461019d57600036600319011261019d5760206040516113888152f35b8054821015611c0a5760005260206000200190600090565b634e487b7160e01b600052603260045260246000fd5b6000546001600160a01b03163303611c3457565b60405163118cdaa760e01b8152336004820152602490fd5b15611c5357565b60405162461bcd60e51b815260206004820152601a60248201527f4e6f7420617574686f72697a656420636f6f7264696e61746f720000000000006044820152606490fd5b60e0810190811067ffffffffffffffff821117611cb457604052565b634e487b7160e01b600052604160045260246000fd5b6080810190811067ffffffffffffffff821117611cb457604052565b90601f8019910116810190811067ffffffffffffffff821117611cb457604052565b6004821015611b125752565b906000602091828151910182855af115611d70576000513d611d6757506001600160a01b0381163b155b611d455750565b604051635274afe760e01b81526001600160a01b039091166004820152602490fd5b60011415611d3e565b6040513d6000823e3d90fd5b60ff60005460a01c16611d8b57565b60405163d93c066560e01b8152600490fd5b15611da457565b60405162461bcd60e51b8152602060048201526013602482015272141bdbdb08191bd95cc81b9bdd08195e1a5cdd606a1b6044820152606490fd5b15611de657565b60405162461bcd60e51b8152602060048201526016602482015275141bdbdb08185b1c9958591e48199a5b985b1a5e995960521b6044820152606490fd5b15611e2b57565b60405162461bcd60e51b8152602060048201526015602482015274082e4e4c2f240d8cadccee8d040dad2e6dac2e8c6d605b1b6044820152606490fd5b60001981146115c65760010190565b9190811015611c0a5760051b0190565b919082018092116115c657565b15611e9b57565b60405162461bcd60e51b815260206004820152601060248201526f4e6f20636f6e747269627574696f6e7360801b6044820152606490fd5b818102929181159184041417156115c657565b8115611ef0570490565b634e487b7160e01b600052601260045260246000fd5b356001600160a01b038116810361019d5790565b805468010000000000000000811015611cb457611f3c91600182018155611bf2565b819291549060031b9160018060a01b03809116831b921b1916179055565b919082039182116115c657565b67ffffffffffffffff8111611cb45760051b60200190565b8051821015611c0a5760209160051b010190565b3d15611fce573d9067ffffffffffffffff8211611cb45760405191611fc2601f8201601f191660200184611ce6565b82523d6000602084013e565b606090565b15611fda57565b60405162461bcd60e51b8152602060048201526013602482015272115512081d1c985b9cd9995c8819985a5b1959606a1b6044820152606490fd5b60405163a9059cbb60e01b60208201526001600160a01b0390921660248301526044808301939093529181526120539161204e82611cca565b611d14565b565b600260015414612066576002600155565b604051633ee5aeb560e01b8152600490fd5b6000526003602052604060002060018060a01b038092166000526020526060604060002091604051906120aa82611cca565b835416815260ff600260018501549485602085015201546001600160601b0381166040840152831c16151591829101526120e15790565b5060009056fe4c75100ff212548456a887c7e9a8355f2eceb966a044eaf82e1b2a3e182c0b03a2646970667358221220917db5d61d948d59ff4e1ef3ae60f55e9a01f1eb25dd2e4963b486e9cffe123064736f6c63430008140033","opcodes":"PUSH1 0x80 CALLVALUE PUSH3 0x186 JUMPI PUSH1 0x1F PUSH3 0x22F4 CODESIZE DUP2 SWAP1 SUB SWAP2 DUP3 ADD PUSH1 0x1F NOT AND DUP4 ADD SWAP2 SWAP1 PUSH1 0x1 PUSH1 0x1 PUSH1 0x40 SHL SUB DUP4 GT DUP5 DUP5 LT OR PUSH3 0x18B JUMPI DUP2 PUSH1 0x60 SWAP3 DUP6 SWAP3 PUSH1 0x40 SWAP6 DUP7 MSTORE DUP4 CODECOPY DUP2 ADD SUB SLT PUSH3 0x186 JUMPI PUSH3 0x50 DUP3 PUSH3 0x1A1 JUMP JUMPDEST SWAP2 DUP2 PUSH3 0x60 PUSH1 0x20 DUP4 ADD PUSH3 0x1A1 JUMP JUMPDEST SWAP2 ADD MLOAD DUP1 ISZERO SWAP4 DUP5 ISZERO DUP1 SWAP3 SUB PUSH3 0x186 JUMPI PUSH1 0x1 PUSH1 0x1 PUSH1 0xA0 SHL SUB SWAP1 DUP2 AND SWAP1 DUP2 ISZERO PUSH3 0x16E JUMPI PUSH1 0x0 DUP1 SLOAD PUSH1 0x1 PUSH1 0x1 PUSH1 0xA0 SHL SUB NOT DUP1 DUP3 AND DUP6 OR DUP4 SSTORE DUP8 MLOAD SWAP9 SWAP3 SWAP7 SWAP1 SWAP5 SWAP1 SWAP3 SWAP2 DUP5 AND PUSH32 0x8BE0079C531659141344CD1FD0A4F28419497F9722A3DAAFE3B4186F6B6457E0 DUP9 DUP1 LOG3 PUSH1 0x1 DUP1 SSTORE PUSH3 0x10F JUMPI JUMPDEST PUSH1 0x6 DUP1 SLOAD PUSH1 0xFF PUSH1 0xA0 SHL NOT AND PUSH1 0xA0 DUP7 SWAP1 SHL PUSH1 0xFF PUSH1 0xA0 SHL AND OR SWAP1 SSTORE CALLER DUP6 MSTORE PUSH1 0x7 PUSH1 0x20 MSTORE DUP6 DUP6 KECCAK256 DUP1 SLOAD PUSH1 0xFF NOT AND PUSH1 0x1 OR SWAP1 SSTORE DUP6 MLOAD PUSH2 0x213D SWAP1 DUP2 PUSH3 0x1B7 DUP3 CODECOPY RETURN JUMPDEST AND SWAP1 DUP2 ISZERO PUSH3 0x12C JUMPI DUP5 SWAP6 POP PUSH1 0x6 SLOAD AND OR PUSH1 0x6 SSTORE CODESIZE DUP1 DUP1 PUSH3 0xD1 JUMP JUMPDEST PUSH3 0x461BCD PUSH1 0xE5 SHL DUP7 MSTORE PUSH1 0x20 PUSH1 0x4 DUP8 ADD MSTORE PUSH1 0x15 PUSH1 0x24 DUP8 ADD MSTORE PUSH32 0x496E76616C696420746F6B656E20616464726573730000000000000000000000 PUSH1 0x44 DUP8 ADD MSTORE PUSH1 0x64 DUP7 REVERT JUMPDEST DUP5 MLOAD PUSH4 0x1E4FBDF7 PUSH1 0xE0 SHL DUP2 MSTORE PUSH1 0x0 PUSH1 0x4 DUP3 ADD MSTORE PUSH1 0x24 SWAP1 REVERT JUMPDEST PUSH1 0x0 DUP1 REVERT JUMPDEST PUSH4 0x4E487B71 PUSH1 0xE0 SHL PUSH1 0x0 MSTORE PUSH1 0x41 PUSH1 0x4 MSTORE PUSH1 0x24 PUSH1 0x0 REVERT JUMPDEST MLOAD SWAP1 PUSH1 0x1 PUSH1 0x1 PUSH1 0xA0 SHL SUB DUP3 AND DUP3 SUB PUSH3 0x186 JUMPI JUMP INVALID PUSH1 0x80 DUP1 PUSH1 0x40 MSTORE PUSH1 0x4 CALLDATASIZE LT ISZERO PUSH2 0x1D JUMPI JUMPDEST POP CALLDATASIZE ISZERO PUSH2 0x1B JUMPI PUSH1 0x0 DUP1 REVERT JUMPDEST STOP JUMPDEST PUSH1 0x0 CALLDATALOAD PUSH1 0xE0 SHR SWAP1 DUP2 PUSH4 0x86D2C87 EQ PUSH2 0x1AEA JUMPI POP DUP1 PUSH4 0xB878AA6 EQ PUSH2 0x19EA JUMPI DUP1 PUSH4 0x2073DE5C EQ PUSH2 0x1969 JUMPI DUP1 PUSH4 0x2BEAA07D EQ PUSH2 0x160E JUMPI DUP1 PUSH4 0x396CDE4C EQ PUSH2 0x124B JUMPI DUP1 PUSH4 0x3A6F85B1 EQ PUSH2 0x122E JUMPI DUP1 PUSH4 0x3C2FB929 EQ PUSH2 0x105E JUMPI DUP1 PUSH4 0x3E3EE1E2 EQ PUSH2 0xF5F JUMPI DUP1 PUSH4 0x3F4BA83A EQ PUSH2 0xEED JUMPI DUP1 PUSH4 0x5414C649 EQ PUSH2 0xE22 JUMPI DUP1 PUSH4 0x5C975ABB EQ PUSH2 0xDFC JUMPI DUP1 PUSH4 0x618E9DE1 EQ PUSH2 0xD83 JUMPI DUP1 PUSH4 0x642CE355 EQ PUSH2 0x454 JUMPI DUP1 PUSH4 0x674E1D45 EQ PUSH2 0xD44 JUMPI DUP1 PUSH4 0x69608A31 EQ PUSH2 0xD16 JUMPI DUP1 PUSH4 0x715018A6 EQ PUSH2 0xCBD JUMPI DUP1 PUSH4 0x75870D65 EQ PUSH2 0xBA4 JUMPI DUP1 PUSH4 0x77116814 EQ PUSH2 0xAEC JUMPI DUP1 PUSH4 0x7F792C79 EQ PUSH2 0x81D JUMPI DUP1 PUSH4 0x8232697A EQ PUSH2 0x7F7 JUMPI DUP1 PUSH4 0x8456CB59 EQ PUSH2 0x795 JUMPI DUP1 PUSH4 0x8DA5CB5B EQ PUSH2 0x76C JUMPI DUP1 PUSH4 0xA571F40B EQ PUSH2 0x71A JUMPI DUP1 PUSH4 0xC1927292 EQ PUSH2 0x6FD JUMPI DUP1 PUSH4 0xC5856AA7 EQ PUSH2 0x459 JUMPI DUP1 PUSH4 0xDC29B8F8 EQ PUSH2 0x454 JUMPI DUP1 PUSH4 0xF2FDE38B EQ PUSH2 0x3CB JUMPI DUP1 PUSH4 0xF3F43703 EQ PUSH2 0x391 JUMPI DUP1 PUSH4 0xF5414023 EQ PUSH2 0x1A2 JUMPI PUSH4 0xF7C618C1 EQ PUSH2 0x174 JUMPI CODESIZE PUSH2 0xF JUMP JUMPDEST CALLVALUE PUSH2 0x19D JUMPI PUSH1 0x0 CALLDATASIZE PUSH1 0x3 NOT ADD SLT PUSH2 0x19D JUMPI PUSH1 0x6 SLOAD PUSH1 0x40 MLOAD PUSH1 0x1 PUSH1 0x1 PUSH1 0xA0 SHL SUB SWAP1 SWAP2 AND DUP2 MSTORE PUSH1 0x20 SWAP1 RETURN JUMPDEST PUSH1 0x0 DUP1 REVERT JUMPDEST CALLVALUE PUSH2 0x19D JUMPI PUSH1 0x20 DUP1 PUSH1 0x3 NOT CALLDATASIZE ADD SLT PUSH2 0x19D JUMPI PUSH1 0x4 CALLDATALOAD PUSH2 0x1BF PUSH2 0x2055 JUMP JUMPDEST PUSH2 0x1C7 PUSH2 0x1D7C JUMP JUMPDEST DUP1 PUSH1 0x0 MSTORE PUSH1 0x3 DUP3 MSTORE PUSH1 0x40 PUSH1 0x0 KECCAK256 CALLER PUSH1 0x0 MSTORE DUP3 MSTORE PUSH1 0x40 PUSH1 0x0 KECCAK256 SWAP2 PUSH1 0x1 DUP4 ADD SLOAD SWAP3 DUP4 ISZERO PUSH2 0x357 JUMPI PUSH1 0x2 ADD DUP1 SLOAD PUSH1 0xFF DUP2 PUSH1 0x60 SHR AND PUSH2 0x320 JUMPI CALLER PUSH1 0x0 MSTORE PUSH1 0x5 DUP4 MSTORE DUP5 PUSH1 0x40 PUSH1 0x0 KECCAK256 SLOAD LT PUSH2 0x2E4 JUMPI PUSH1 0xFF PUSH1 0x60 SHL NOT AND PUSH1 0x1 PUSH1 0x60 SHL OR SWAP1 SSTORE CALLER PUSH1 0x0 SWAP1 DUP2 MSTORE PUSH1 0x5 DUP3 MSTORE PUSH1 0x40 SWAP1 KECCAK256 DUP1 SLOAD PUSH1 0x2 SWAP3 SWAP2 SWAP1 PUSH2 0x23F SWAP1 DUP7 SWAP1 PUSH2 0x1F5A JUMP JUMPDEST SWAP1 SSTORE DUP3 PUSH1 0x0 MSTORE MSTORE PUSH1 0x3 PUSH1 0x40 PUSH1 0x0 KECCAK256 ADD PUSH2 0x259 DUP4 DUP3 SLOAD PUSH2 0x1E87 JUMP JUMPDEST SWAP1 SSTORE PUSH1 0x6 SLOAD DUP3 PUSH1 0xFF DUP3 PUSH1 0xA0 SHR AND PUSH1 0x0 EQ PUSH2 0x2CB JUMPI PUSH2 0x289 SWAP2 POP PUSH1 0x0 DUP1 DUP1 DUP1 SWAP4 CALLER GAS CALL PUSH2 0x283 PUSH2 0x1F93 JUMP JUMPDEST POP PUSH2 0x1FD3 JUMP JUMPDEST PUSH1 0x40 DUP1 MLOAD SWAP3 DUP4 MSTORE PUSH1 0x1 PUSH1 0x1 PUSH1 0x60 SHL SUB TIMESTAMP AND PUSH1 0x20 DUP5 ADD MSTORE CALLER SWAP3 PUSH32 0xE3E7FF31FAFBBCFBFA53D48EE00511265329AD66B8EA94EFB4117F9E4E709DE6 SWAP2 SWAP1 LOG3 PUSH1 0x1 DUP1 SSTORE STOP JUMPDEST PUSH2 0x2DF SWAP2 CALLER SWAP1 PUSH1 0x1 PUSH1 0x1 PUSH1 0xA0 SHL SUB AND PUSH2 0x2015 JUMP JUMPDEST PUSH2 0x289 JUMP JUMPDEST PUSH1 0x40 MLOAD PUSH3 0x461BCD PUSH1 0xE5 SHL DUP2 MSTORE PUSH1 0x4 DUP2 ADD DUP5 SWAP1 MSTORE PUSH1 0x14 PUSH1 0x24 DUP3 ADD MSTORE PUSH20 0x496E73756666696369656E742062616C616E6365 PUSH1 0x60 SHL PUSH1 0x44 DUP3 ADD MSTORE PUSH1 0x64 SWAP1 REVERT JUMPDEST PUSH1 0x40 MLOAD PUSH3 0x461BCD PUSH1 0xE5 SHL DUP2 MSTORE PUSH1 0x4 DUP2 ADD DUP5 SWAP1 MSTORE PUSH1 0xF PUSH1 0x24 DUP3 ADD MSTORE PUSH15 0x105B1C9958591E4818DB185A5B5959 PUSH1 0x8A SHL PUSH1 0x44 DUP3 ADD MSTORE PUSH1 0x64 SWAP1 REVERT JUMPDEST PUSH1 0x40 MLOAD PUSH3 0x461BCD PUSH1 0xE5 SHL DUP2 MSTORE PUSH1 0x4 DUP2 ADD DUP4 SWAP1 MSTORE PUSH1 0x12 PUSH1 0x24 DUP3 ADD MSTORE PUSH18 0x4E6F2072657761726420746F20636C61696D PUSH1 0x70 SHL PUSH1 0x44 DUP3 ADD MSTORE PUSH1 0x64 SWAP1 REVERT JUMPDEST CALLVALUE PUSH2 0x19D JUMPI PUSH1 0x20 CALLDATASIZE PUSH1 0x3 NOT ADD SLT PUSH2 0x19D JUMPI PUSH1 0x1 PUSH1 0x1 PUSH1 0xA0 SHL SUB PUSH2 0x3B2 PUSH2 0x1BA9 JUMP JUMPDEST AND PUSH1 0x0 MSTORE PUSH1 0x5 PUSH1 0x20 MSTORE PUSH1 0x20 PUSH1 0x40 PUSH1 0x0 KECCAK256 SLOAD PUSH1 0x40 MLOAD SWAP1 DUP2 MSTORE RETURN JUMPDEST CALLVALUE PUSH2 0x19D JUMPI PUSH1 0x20 CALLDATASIZE PUSH1 0x3 NOT ADD SLT PUSH2 0x19D JUMPI PUSH2 0x3E4 PUSH2 0x1BA9 JUMP JUMPDEST PUSH2 0x3EC PUSH2 0x1C20 JUMP JUMPDEST PUSH1 0x1 PUSH1 0x1 PUSH1 0xA0 SHL SUB SWAP1 DUP2 AND SWAP1 DUP2 ISZERO PUSH2 0x43B JUMPI PUSH1 0x0 SLOAD DUP3 PUSH1 0x1 PUSH1 0x1 PUSH1 0x60 SHL SUB PUSH1 0xA0 SHL DUP3 AND OR PUSH1 0x0 SSTORE AND PUSH32 0x8BE0079C531659141344CD1FD0A4F28419497F9722A3DAAFE3B4186F6B6457E0 PUSH1 0x0 DUP1 LOG3 STOP JUMPDEST PUSH1 0x40 MLOAD PUSH4 0x1E4FBDF7 PUSH1 0xE0 SHL DUP2 MSTORE PUSH1 0x0 PUSH1 0x4 DUP3 ADD MSTORE PUSH1 0x24 SWAP1 REVERT JUMPDEST PUSH2 0x1BD5 JUMP JUMPDEST CALLVALUE PUSH2 0x19D JUMPI PUSH2 0x467 CALLDATASIZE PUSH2 0x1B59 JUMP JUMPDEST SWAP3 SWAP1 SWAP2 SWAP3 CALLER PUSH1 0x0 MSTORE PUSH1 0x7 PUSH1 0x20 MSTORE PUSH1 0xFF PUSH1 0x40 PUSH1 0x0 KECCAK256 SLOAD AND DUP1 ISZERO PUSH2 0x6E9 JUMPI JUMPDEST PUSH2 0x491 SWAP1 SWAP4 SWAP2 SWAP3 SWAP4 PUSH2 0x1C4C JUMP JUMPDEST PUSH2 0x499 PUSH2 0x1D7C JUMP JUMPDEST DUP5 PUSH1 0x0 MSTORE PUSH1 0x2 PUSH1 0x20 MSTORE PUSH1 0x40 PUSH1 0x0 KECCAK256 SWAP2 PUSH2 0x4B7 PUSH1 0x1 DUP5 ADD SLOAD ISZERO ISZERO PUSH2 0x1D9D JUMP JUMPDEST PUSH2 0x4CB PUSH1 0xFF PUSH1 0x4 DUP6 ADD SLOAD PUSH1 0x68 SHR AND ISZERO PUSH2 0x1DDF JUMP JUMPDEST PUSH2 0x4D6 DUP2 DUP7 EQ PUSH2 0x1E24 JUMP JUMPDEST PUSH1 0x0 SWAP4 PUSH1 0x0 JUMPDEST DUP3 DUP2 LT PUSH2 0x6BC JUMPI POP PUSH2 0x4EF DUP6 ISZERO ISZERO PUSH2 0x1E94 JUMP JUMPDEST PUSH1 0x0 SWAP5 PUSH1 0x0 SWAP4 JUMPDEST DUP8 DUP6 LT PUSH2 0x548 JUMPI PUSH1 0x2 DUP7 ADD DUP8 SWAP1 SSTORE PUSH1 0x4 DUP7 ADD DUP1 SLOAD PUSH2 0x100 PUSH1 0x1 PUSH1 0x68 SHL SUB NOT AND TIMESTAMP PUSH1 0x8 SHL PUSH2 0x100 PUSH1 0x1 PUSH1 0x68 SHL SUB AND OR SWAP1 SSTORE DUP9 PUSH1 0x0 DUP1 MLOAD PUSH1 0x20 PUSH2 0x20E8 DUP4 CODECOPY DUP2 MLOAD SWAP2 MSTORE PUSH1 0x40 DUP11 DUP11 JUMPDEST DUP3 MLOAD SWAP2 DUP3 MSTORE PUSH1 0x20 DUP3 ADD MSTORE LOG2 STOP JUMPDEST SWAP1 SWAP2 SWAP3 SWAP4 SWAP6 PUSH2 0x6AD PUSH2 0x6B3 SWAP2 PUSH2 0x577 DUP6 PUSH2 0x572 PUSH1 0x1 DUP12 ADD SLOAD PUSH2 0x56B DUP14 DUP13 DUP11 PUSH2 0x1E77 JUMP JUMPDEST CALLDATALOAD SWAP1 PUSH2 0x1ED3 JUMP JUMPDEST PUSH2 0x1EE6 JUMP JUMPDEST SWAP1 PUSH2 0x651 DUP11 DUP14 DUP14 DUP11 PUSH2 0x5E9 PUSH2 0x593 PUSH2 0x598 PUSH2 0x593 DUP8 DUP7 DUP7 PUSH2 0x1E77 JUMP JUMPDEST PUSH2 0x1F06 JUMP JUMPDEST SWAP6 PUSH1 0x40 MLOAD SWAP7 PUSH2 0x5A6 DUP9 PUSH2 0x1CCA JUMP JUMPDEST PUSH1 0x1 DUP1 PUSH1 0xA0 SHL SUB AND DUP8 MSTORE DUP10 PUSH1 0x20 DUP9 ADD MSTORE PUSH1 0x1 PUSH1 0x1 PUSH1 0x60 SHL SUB TIMESTAMP AND PUSH1 0x40 DUP9 ADD MSTORE PUSH1 0x60 DUP8 ADD SWAP6 PUSH1 0x0 DUP8 MSTORE PUSH1 0x0 MSTORE PUSH1 0x3 PUSH1 0x20 MSTORE PUSH1 0x40 PUSH1 0x0 KECCAK256 SWAP5 PUSH1 0x1 DUP1 PUSH1 0xA0 SHL SUB SWAP5 PUSH2 0x1E77 JUMP JUMPDEST AND PUSH1 0x0 MSTORE PUSH1 0x20 MSTORE PUSH1 0x1 PUSH1 0x1 PUSH1 0x60 SHL SUB PUSH1 0x40 PUSH1 0x2 DUP2 PUSH1 0x0 KECCAK256 PUSH1 0x1 DUP1 PUSH1 0xA0 SHL SUB DUP7 MLOAD AND DUP5 PUSH1 0xA0 SHL DUP3 SLOAD AND OR DUP2 SSTORE PUSH1 0x20 DUP7 ADD MLOAD PUSH1 0x1 DUP3 ADD SSTORE ADD SWAP4 ADD MLOAD AND PUSH1 0x1 PUSH1 0x1 PUSH1 0x60 SHL SUB NOT DUP4 SLOAD AND OR DUP3 SSTORE MLOAD ISZERO ISZERO DUP2 SLOAD SWAP1 PUSH1 0xFF PUSH1 0x60 SHL SWAP1 ISZERO ISZERO PUSH1 0x60 SHL AND SWAP1 PUSH1 0xFF PUSH1 0x60 SHL NOT AND OR SWAP1 SSTORE JUMP JUMPDEST DUP12 PUSH1 0x0 MSTORE PUSH1 0x4 PUSH1 0x20 MSTORE PUSH2 0x677 DUP12 PUSH2 0x671 PUSH2 0x593 DUP14 PUSH1 0x40 PUSH1 0x0 KECCAK256 SWAP4 DUP13 PUSH2 0x1E77 JUMP JUMPDEST SWAP1 PUSH2 0x1F1A JUMP JUMPDEST PUSH1 0x1 PUSH1 0x1 PUSH1 0xA0 SHL SUB PUSH2 0x68D PUSH2 0x593 DUP13 DUP15 DUP12 PUSH2 0x1E77 JUMP JUMPDEST AND PUSH1 0x0 MSTORE PUSH1 0x5 PUSH1 0x20 MSTORE PUSH1 0x40 PUSH1 0x0 KECCAK256 PUSH2 0x6A6 DUP4 DUP3 SLOAD PUSH2 0x1E87 JUMP JUMPDEST SWAP1 SSTORE PUSH2 0x1E87 JUMP JUMPDEST SWAP7 PUSH2 0x1E68 JUMP JUMPDEST SWAP4 SWAP3 SWAP2 SWAP1 PUSH2 0x4F6 JUMP JUMPDEST SWAP1 SWAP2 SWAP3 SWAP5 PUSH2 0x6D9 PUSH2 0x6DF SWAP2 PUSH2 0x6D2 DUP5 DUP8 DUP11 PUSH2 0x1E77 JUMP JUMPDEST CALLDATALOAD SWAP1 PUSH2 0x1E87 JUMP JUMPDEST SWAP2 PUSH2 0x1E68 JUMP JUMPDEST SWAP5 SWAP3 SWAP2 SWAP1 SWAP5 PUSH2 0x4DC JUMP JUMPDEST POP PUSH1 0x0 SLOAD PUSH1 0x1 PUSH1 0x1 PUSH1 0xA0 SHL SUB AND CALLER EQ PUSH2 0x484 JUMP JUMPDEST CALLVALUE PUSH2 0x19D JUMPI PUSH1 0x0 CALLDATASIZE PUSH1 0x3 NOT ADD SLT PUSH2 0x19D JUMPI PUSH1 0x20 PUSH1 0x40 MLOAD PUSH2 0x5DC DUP2 MSTORE RETURN JUMPDEST CALLVALUE PUSH2 0x19D JUMPI PUSH1 0x40 CALLDATASIZE PUSH1 0x3 NOT ADD SLT PUSH2 0x19D JUMPI PUSH1 0x24 CALLDATALOAD PUSH1 0x4 CALLDATALOAD PUSH1 0x0 MSTORE PUSH1 0x4 PUSH1 0x20 MSTORE PUSH1 0x40 PUSH1 0x0 KECCAK256 DUP1 SLOAD DUP3 LT ISZERO PUSH2 0x19D JUMPI PUSH1 0x20 SWAP2 PUSH2 0x753 SWAP2 PUSH2 0x1BF2 JUMP JUMPDEST SWAP1 SLOAD PUSH1 0x40 MLOAD PUSH1 0x3 SWAP3 SWAP1 SWAP3 SHL SHR PUSH1 0x1 PUSH1 0x1 PUSH1 0xA0 SHL SUB AND DUP2 MSTORE RETURN JUMPDEST CALLVALUE PUSH2 0x19D JUMPI PUSH1 0x0 CALLDATASIZE PUSH1 0x3 NOT ADD SLT PUSH2 0x19D JUMPI PUSH1 0x0 SLOAD PUSH1 0x40 MLOAD PUSH1 0x1 PUSH1 0x1 PUSH1 0xA0 SHL SUB SWAP1 SWAP2 AND DUP2 MSTORE PUSH1 0x20 SWAP1 RETURN JUMPDEST CALLVALUE PUSH2 0x19D JUMPI PUSH1 0x0 CALLDATASIZE PUSH1 0x3 NOT ADD SLT PUSH2 0x19D JUMPI PUSH2 0x7AE PUSH2 0x1C20 JUMP JUMPDEST PUSH2 0x7B6 PUSH2 0x1D7C JUMP JUMPDEST PUSH1 0x0 DUP1 SLOAD PUSH1 0xFF PUSH1 0xA0 SHL NOT AND PUSH1 0x1 PUSH1 0xA0 SHL OR SWAP1 SSTORE PUSH1 0x40 MLOAD CALLER DUP2 MSTORE PUSH32 0x62E78CEA01BEE320CD4E420270B5EA74000D11B0C9F74754EBDBFC544B05A258 SWAP1 PUSH1 0x20 SWAP1 LOG1 STOP JUMPDEST CALLVALUE PUSH2 0x19D JUMPI PUSH1 0x0 CALLDATASIZE PUSH1 0x3 NOT ADD SLT PUSH2 0x19D JUMPI PUSH1 0x20 PUSH1 0xFF PUSH1 0x6 SLOAD PUSH1 0xA0 SHR AND PUSH1 0x40 MLOAD SWAP1 ISZERO ISZERO DUP2 MSTORE RETURN JUMPDEST PUSH1 0x60 CALLDATASIZE PUSH1 0x3 NOT ADD SLT PUSH2 0x19D JUMPI PUSH1 0x4 CALLDATALOAD PUSH1 0x24 DUP1 CALLDATALOAD SWAP1 PUSH1 0x44 CALLDATALOAD PUSH1 0x4 DUP2 LT ISZERO PUSH2 0x19D JUMPI CALLER PUSH1 0x0 MSTORE PUSH1 0x20 PUSH1 0x7 DUP2 MSTORE PUSH1 0xFF PUSH1 0x40 PUSH1 0x0 KECCAK256 SLOAD AND DUP1 ISZERO PUSH2 0xAD8 JUMPI JUMPDEST PUSH2 0x860 SWAP1 PUSH2 0x1C4C JUMP JUMPDEST PUSH2 0x868 PUSH2 0x1D7C JUMP JUMPDEST DUP5 PUSH1 0x0 MSTORE PUSH1 0x2 DUP2 MSTORE PUSH1 0x1 PUSH1 0x40 PUSH1 0x0 KECCAK256 ADD SLOAD PUSH2 0xA9F JUMPI DUP4 ISZERO PUSH2 0xA66 JUMPI PUSH1 0x6 SLOAD PUSH1 0xFF DUP2 PUSH1 0xA0 SHR AND PUSH1 0x0 EQ PUSH2 0x9FA JUMPI POP DUP4 CALLVALUE SUB PUSH2 0x9C0 JUMPI JUMPDEST PUSH1 0x40 MLOAD PUSH2 0x8A9 DUP2 PUSH2 0x1C98 JUMP JUMPDEST DUP6 DUP2 MSTORE DUP2 DUP2 ADD DUP6 DUP2 MSTORE PUSH1 0x40 DUP3 ADD SWAP5 PUSH1 0x0 DUP7 MSTORE PUSH1 0x4 PUSH1 0x60 DUP5 ADD SWAP4 PUSH1 0x0 DUP6 MSTORE PUSH1 0x80 DUP2 ADD SWAP5 PUSH2 0x8D5 DUP9 DUP8 PUSH2 0x1D08 JUMP JUMPDEST PUSH1 0xA0 DUP3 ADD SWAP9 PUSH1 0x0 DUP11 MSTORE PUSH1 0xC0 DUP4 ADD SWAP6 PUSH1 0x0 DUP8 MSTORE DUP13 PUSH1 0x0 MSTORE PUSH1 0x2 DUP10 MSTORE PUSH1 0x40 PUSH1 0x0 KECCAK256 SWAP4 MLOAD DUP5 SSTORE MLOAD PUSH1 0x1 DUP5 ADD SSTORE MLOAD PUSH1 0x2 DUP4 ADD SSTORE MLOAD PUSH1 0x3 DUP3 ADD SSTORE ADD SWAP3 MLOAD SWAP1 PUSH1 0x4 DUP3 LT ISZERO PUSH2 0x9AC JUMPI POP DUP3 SLOAD SWAP6 MLOAD SWAP2 MLOAD PUSH1 0xFF PUSH1 0x68 SHL SWAP1 ISZERO ISZERO PUSH1 0x68 SHL AND PUSH14 0xFFFFFFFFFFFFFFFFFFFFFFFFFFFF NOT SWAP1 SWAP7 AND PUSH1 0xFF SWAP2 SWAP1 SWAP2 AND OR PUSH2 0x100 PUSH1 0x1 PUSH1 0x68 SHL SUB PUSH1 0x8 SWAP3 SWAP1 SWAP3 SHL SWAP2 SWAP1 SWAP2 AND OR SWAP4 SWAP1 SWAP4 OR SWAP1 SWAP3 SSTORE PUSH1 0x40 MLOAD SWAP3 DUP4 MSTORE PUSH32 0x46B79013B8E13B017E42C87777DC5BFD1158AEBA1183AF138AFB1FFCCA35ACAB SWAP3 PUSH1 0x60 SWAP3 SWAP1 SWAP2 PUSH1 0x1 PUSH1 0x1 PUSH1 0x60 SHL SUB SWAP2 PUSH2 0x9A2 SWAP2 SWAP1 DUP5 ADD SWAP1 PUSH2 0x1B05 JUMP JUMPDEST TIMESTAMP AND PUSH1 0x40 DUP3 ADD MSTORE LOG2 STOP JUMPDEST PUSH4 0x4E487B71 PUSH1 0xE0 SHL PUSH1 0x0 SWAP1 DUP2 MSTORE PUSH1 0x21 PUSH1 0x4 MSTORE REVERT JUMPDEST PUSH1 0x64 SWAP1 PUSH1 0x14 DUP5 PUSH1 0x40 MLOAD SWAP3 PUSH3 0x461BCD PUSH1 0xE5 SHL DUP5 MSTORE PUSH1 0x4 DUP5 ADD MSTORE DUP3 ADD MSTORE PUSH20 0x125B98DBDC9C9958DD0811551208185B5BDD5B9D PUSH1 0x62 SHL PUSH1 0x44 DUP3 ADD MSTORE REVERT JUMPDEST PUSH1 0x40 MLOAD PUSH4 0x23B872DD PUSH1 0xE0 SHL DUP4 DUP3 ADD MSTORE CALLER DUP6 DUP3 ADD MSTORE ADDRESS PUSH1 0x44 DUP3 ADD MSTORE PUSH1 0x64 DUP1 DUP3 ADD DUP8 SWAP1 MSTORE DUP2 MSTORE SWAP1 PUSH1 0xA0 DUP3 ADD PUSH8 0xFFFFFFFFFFFFFFFF DUP2 GT DUP4 DUP3 LT OR PUSH2 0xA51 JUMPI PUSH1 0x40 MSTORE PUSH2 0xA4C SWAP2 SWAP1 PUSH1 0x1 PUSH1 0x1 PUSH1 0xA0 SHL SUB AND PUSH2 0x1D14 JUMP JUMPDEST PUSH2 0x89D JUMP JUMPDEST DUP6 PUSH4 0x4E487B71 PUSH1 0xE0 SHL PUSH1 0x0 MSTORE PUSH1 0x41 PUSH1 0x4 MSTORE PUSH1 0x0 REVERT JUMPDEST PUSH1 0x64 SWAP1 PUSH1 0x13 DUP5 PUSH1 0x40 MLOAD SWAP3 PUSH3 0x461BCD PUSH1 0xE5 SHL DUP5 MSTORE PUSH1 0x4 DUP5 ADD MSTORE DUP3 ADD MSTORE PUSH19 0x125B9D985B1A59081C1BDBDB08185B5BDD5B9D PUSH1 0x6A SHL PUSH1 0x44 DUP3 ADD MSTORE REVERT JUMPDEST PUSH1 0x64 SWAP1 PUSH1 0x13 DUP5 PUSH1 0x40 MLOAD SWAP3 PUSH3 0x461BCD PUSH1 0xE5 SHL DUP5 MSTORE PUSH1 0x4 DUP5 ADD MSTORE DUP3 ADD MSTORE PUSH19 0x506F6F6C20616C726561647920657869737473 PUSH1 0x68 SHL PUSH1 0x44 DUP3 ADD MSTORE REVERT JUMPDEST POP PUSH1 0x0 SLOAD PUSH1 0x1 PUSH1 0x1 PUSH1 0xA0 SHL SUB AND CALLER EQ PUSH2 0x857 JUMP JUMPDEST CALLVALUE PUSH2 0x19D JUMPI PUSH1 0x20 DUP1 PUSH1 0x3 NOT CALLDATASIZE ADD SLT PUSH2 0x19D JUMPI PUSH1 0x4 CALLDATALOAD PUSH1 0x0 MSTORE PUSH1 0x4 DUP2 MSTORE PUSH1 0x40 PUSH1 0x0 KECCAK256 PUSH1 0x40 MLOAD SWAP1 DUP2 DUP4 DUP3 SLOAD SWAP2 DUP3 DUP2 MSTORE ADD SWAP1 DUP2 SWAP3 PUSH1 0x0 MSTORE DUP5 PUSH1 0x0 KECCAK256 SWAP1 PUSH1 0x0 JUMPDEST DUP7 DUP3 DUP3 LT PUSH2 0xB87 JUMPI DUP7 DUP7 PUSH2 0xB3E DUP3 DUP9 SUB DUP4 PUSH2 0x1CE6 JUMP JUMPDEST PUSH1 0x40 MLOAD SWAP3 DUP4 SWAP3 DUP2 DUP5 ADD SWAP1 DUP3 DUP6 MSTORE MLOAD DUP1 SWAP2 MSTORE PUSH1 0x40 DUP5 ADD SWAP3 SWAP2 PUSH1 0x0 JUMPDEST DUP3 DUP2 LT PUSH2 0xB67 JUMPI POP POP POP POP SUB SWAP1 RETURN JUMPDEST DUP4 MLOAD PUSH1 0x1 PUSH1 0x1 PUSH1 0xA0 SHL SUB AND DUP6 MSTORE DUP7 SWAP6 POP SWAP4 DUP2 ADD SWAP4 SWAP3 DUP2 ADD SWAP3 PUSH1 0x1 ADD PUSH2 0xB58 JUMP JUMPDEST DUP4 SLOAD PUSH1 0x1 PUSH1 0x1 PUSH1 0xA0 SHL SUB AND DUP6 MSTORE SWAP1 SWAP4 ADD SWAP3 PUSH1 0x1 SWAP3 DUP4 ADD SWAP3 ADD PUSH2 0xB28 JUMP JUMPDEST CALLVALUE PUSH2 0x19D JUMPI PUSH1 0x20 CALLDATASIZE PUSH1 0x3 NOT ADD SLT PUSH2 0x19D JUMPI PUSH2 0xBBD PUSH2 0x1C20 JUMP JUMPDEST PUSH1 0x4 CALLDATALOAD PUSH1 0x0 MSTORE PUSH1 0x2 PUSH1 0x20 MSTORE PUSH1 0x40 PUSH1 0x0 KECCAK256 PUSH1 0xFF PUSH1 0x4 DUP3 ADD SLOAD PUSH1 0x68 SHR AND ISZERO PUSH2 0xC83 JUMPI PUSH1 0x3 PUSH1 0x2 DUP3 ADD SLOAD SWAP2 ADD SWAP1 PUSH2 0xBF2 DUP3 SLOAD DUP3 PUSH2 0x1F5A JUMP JUMPDEST SWAP2 DUP3 ISZERO PUSH2 0xC47 JUMPI SSTORE PUSH1 0x6 SLOAD PUSH1 0xFF DUP2 PUSH1 0xA0 SHR AND PUSH1 0x0 EQ PUSH2 0xC2D JUMPI POP PUSH1 0x0 DUP1 SLOAD PUSH2 0x1B SWAP3 DUP3 SWAP2 DUP3 SWAP2 DUP3 SWAP2 PUSH1 0x1 PUSH1 0x1 PUSH1 0xA0 SHL SUB AND GAS CALL PUSH2 0x283 PUSH2 0x1F93 JUMP JUMPDEST PUSH1 0x0 SLOAD PUSH2 0x1B SWAP3 SWAP2 PUSH1 0x1 PUSH1 0x1 PUSH1 0xA0 SHL SUB SWAP2 DUP3 AND SWAP2 AND PUSH2 0x2015 JUMP JUMPDEST PUSH1 0x40 MLOAD PUSH3 0x461BCD PUSH1 0xE5 SHL DUP2 MSTORE PUSH1 0x20 PUSH1 0x4 DUP3 ADD MSTORE PUSH1 0x14 PUSH1 0x24 DUP3 ADD MSTORE PUSH20 0x4E6F20756E636C61696D65642072657761726473 PUSH1 0x60 SHL PUSH1 0x44 DUP3 ADD MSTORE PUSH1 0x64 SWAP1 REVERT JUMPDEST PUSH1 0x40 MLOAD PUSH3 0x461BCD PUSH1 0xE5 SHL DUP2 MSTORE PUSH1 0x20 PUSH1 0x4 DUP3 ADD MSTORE PUSH1 0x12 PUSH1 0x24 DUP3 ADD MSTORE PUSH18 0x141BDBDB081B9BDD08199A5B985B1A5E9959 PUSH1 0x72 SHL PUSH1 0x44 DUP3 ADD MSTORE PUSH1 0x64 SWAP1 REVERT JUMPDEST CALLVALUE PUSH2 0x19D JUMPI PUSH1 0x0 CALLDATASIZE PUSH1 0x3 NOT ADD SLT PUSH2 0x19D JUMPI PUSH2 0xCD6 PUSH2 0x1C20 JUMP JUMPDEST PUSH1 0x0 DUP1 SLOAD PUSH1 0x1 PUSH1 0x1 PUSH1 0xA0 SHL SUB NOT DUP2 AND DUP3 SSTORE PUSH1 0x1 PUSH1 0x1 PUSH1 0xA0 SHL SUB AND PUSH32 0x8BE0079C531659141344CD1FD0A4F28419497F9722A3DAAFE3B4186F6B6457E0 DUP3 DUP1 LOG3 STOP JUMPDEST CALLVALUE PUSH2 0x19D JUMPI PUSH1 0x40 CALLDATASIZE PUSH1 0x3 NOT ADD SLT PUSH2 0x19D JUMPI PUSH1 0x20 PUSH2 0xD3C PUSH2 0xD34 PUSH2 0x1BBF JUMP JUMPDEST PUSH1 0x4 CALLDATALOAD PUSH2 0x2078 JUMP JUMPDEST PUSH1 0x40 MLOAD SWAP1 DUP2 MSTORE RETURN JUMPDEST CALLVALUE PUSH2 0x19D JUMPI PUSH1 0x20 CALLDATASIZE PUSH1 0x3 NOT ADD SLT PUSH2 0x19D JUMPI PUSH1 0x1 PUSH1 0x1 PUSH1 0xA0 SHL SUB PUSH2 0xD65 PUSH2 0x1BA9 JUMP JUMPDEST AND PUSH1 0x0 MSTORE PUSH1 0x7 PUSH1 0x20 MSTORE PUSH1 0x20 PUSH1 0xFF PUSH1 0x40 PUSH1 0x0 KECCAK256 SLOAD AND PUSH1 0x40 MLOAD SWAP1 ISZERO ISZERO DUP2 MSTORE RETURN JUMPDEST CALLVALUE PUSH2 0x19D JUMPI PUSH1 0x40 CALLDATASIZE PUSH1 0x3 NOT ADD SLT PUSH2 0x19D JUMPI PUSH1 0x80 PUSH2 0xD9E PUSH2 0x1BBF JUMP JUMPDEST PUSH1 0x4 CALLDATALOAD PUSH1 0x0 MSTORE PUSH1 0x3 PUSH1 0x20 MSTORE PUSH1 0x40 PUSH1 0x0 KECCAK256 PUSH1 0x1 DUP1 PUSH1 0xA0 SHL SUB DUP1 SWAP3 AND PUSH1 0x0 MSTORE PUSH1 0x20 MSTORE PUSH1 0xFF PUSH1 0x40 PUSH1 0x0 KECCAK256 SWAP2 DUP3 SLOAD AND SWAP2 PUSH1 0x2 PUSH1 0x1 DUP3 ADD SLOAD SWAP2 ADD SLOAD SWAP1 PUSH1 0x40 MLOAD SWAP4 DUP5 MSTORE PUSH1 0x20 DUP5 ADD MSTORE PUSH1 0x1 PUSH1 0x1 PUSH1 0x60 SHL SUB DUP2 AND PUSH1 0x40 DUP5 ADD MSTORE PUSH1 0x60 SHR AND ISZERO ISZERO PUSH1 0x60 DUP3 ADD MSTORE RETURN JUMPDEST CALLVALUE PUSH2 0x19D JUMPI PUSH1 0x0 CALLDATASIZE PUSH1 0x3 NOT ADD SLT PUSH2 0x19D JUMPI PUSH1 0x20 PUSH1 0xFF PUSH1 0x0 SLOAD PUSH1 0xA0 SHR AND PUSH1 0x40 MLOAD SWAP1 ISZERO ISZERO DUP2 MSTORE RETURN JUMPDEST CALLVALUE PUSH2 0x19D JUMPI PUSH1 0x40 CALLDATASIZE PUSH1 0x3 NOT ADD SLT PUSH2 0x19D JUMPI PUSH2 0xE3B PUSH2 0x1BA9 JUMP JUMPDEST PUSH1 0x24 CALLDATALOAD SWAP1 DUP2 ISZERO ISZERO DUP1 SWAP3 SUB PUSH2 0x19D JUMPI PUSH2 0xE51 PUSH2 0x1C20 JUMP JUMPDEST PUSH1 0x1 PUSH1 0x1 PUSH1 0xA0 SHL SUB AND SWAP1 DUP2 ISZERO PUSH2 0xEA8 JUMPI PUSH1 0x20 PUSH32 0xA755B73CA9AB5908508AEF0B2CDE25FFC1CAF1B79F4833E57436D517461CA6BE SWAP2 DUP4 PUSH1 0x0 MSTORE PUSH1 0x7 DUP3 MSTORE PUSH1 0x40 PUSH1 0x0 KECCAK256 PUSH1 0xFF NOT DUP2 SLOAD AND PUSH1 0xFF DUP4 AND OR SWAP1 SSTORE PUSH1 0x40 MLOAD SWAP1 DUP2 MSTORE LOG2 STOP JUMPDEST PUSH1 0x40 MLOAD PUSH3 0x461BCD PUSH1 0xE5 SHL DUP2 MSTORE PUSH1 0x20 PUSH1 0x4 DUP3 ADD MSTORE PUSH1 0x1B PUSH1 0x24 DUP3 ADD MSTORE PUSH32 0x496E76616C696420636F6F7264696E61746F7220616464726573730000000000 PUSH1 0x44 DUP3 ADD MSTORE PUSH1 0x64 SWAP1 REVERT JUMPDEST CALLVALUE PUSH2 0x19D JUMPI PUSH1 0x0 CALLDATASIZE PUSH1 0x3 NOT ADD SLT PUSH2 0x19D JUMPI PUSH2 0xF06 PUSH2 0x1C20 JUMP JUMPDEST PUSH1 0x0 SLOAD PUSH1 0xFF DUP2 PUSH1 0xA0 SHR AND ISZERO PUSH2 0xF4D JUMPI PUSH1 0xFF PUSH1 0xA0 SHL NOT AND PUSH1 0x0 SSTORE PUSH1 0x40 MLOAD CALLER DUP2 MSTORE PUSH32 0x5DB9EE0A495BF2E6FF9C91A7834C1BA4FDD244A5E8AA4E537BD38AEAE4B073AA SWAP1 PUSH1 0x20 SWAP1 LOG1 STOP JUMPDEST PUSH1 0x40 MLOAD PUSH4 0x8DFC202B PUSH1 0xE0 SHL DUP2 MSTORE PUSH1 0x4 SWAP1 REVERT JUMPDEST CALLVALUE PUSH2 0x19D JUMPI PUSH1 0x20 CALLDATASIZE PUSH1 0x3 NOT ADD SLT PUSH2 0x19D JUMPI PUSH1 0x4 CALLDATALOAD CALLER PUSH1 0x0 MSTORE PUSH1 0x7 PUSH1 0x20 MSTORE PUSH1 0xFF PUSH1 0x40 PUSH1 0x0 KECCAK256 SLOAD AND DUP1 ISZERO PUSH2 0x104A JUMPI JUMPDEST PUSH2 0xF95 SWAP1 PUSH2 0x1C4C JUMP JUMPDEST DUP1 PUSH1 0x0 MSTORE PUSH1 0x2 PUSH1 0x20 MSTORE PUSH1 0x40 PUSH1 0x0 KECCAK256 PUSH2 0xFB2 PUSH1 0x1 DUP3 ADD SLOAD ISZERO ISZERO PUSH2 0x1D9D JUMP JUMPDEST PUSH1 0x4 DUP2 ADD SWAP1 DUP2 SLOAD SWAP1 PUSH1 0xFF DUP3 PUSH1 0x68 SHR AND PUSH2 0x1011 JUMPI PUSH32 0x26993294D21DA9A39C4B79F6A7A0ECA9B79A3A37BB70EAE271D40F34541D80A SWAP3 PUSH1 0x40 SWAP3 PUSH1 0x1 PUSH1 0x68 SHL SWAP1 PUSH1 0xFF PUSH1 0x68 SHL NOT AND OR SWAP1 SSTORE PUSH1 0x3 PUSH1 0x2 DUP3 ADD SLOAD SWAP2 ADD SLOAD DUP3 MLOAD SWAP2 DUP3 MSTORE PUSH1 0x20 DUP3 ADD MSTORE LOG2 STOP JUMPDEST PUSH1 0x40 MLOAD PUSH3 0x461BCD PUSH1 0xE5 SHL DUP2 MSTORE PUSH1 0x20 PUSH1 0x4 DUP3 ADD MSTORE PUSH1 0x11 PUSH1 0x24 DUP3 ADD MSTORE PUSH17 0x105B1C9958591E48199A5B985B1A5E9959 PUSH1 0x7A SHL PUSH1 0x44 DUP3 ADD MSTORE PUSH1 0x64 SWAP1 REVERT JUMPDEST POP PUSH1 0x0 SLOAD PUSH1 0x1 PUSH1 0x1 PUSH1 0xA0 SHL SUB AND CALLER EQ PUSH2 0xF8C JUMP JUMPDEST CALLVALUE PUSH2 0x19D JUMPI PUSH1 0x20 DUP1 PUSH1 0x3 NOT CALLDATASIZE ADD SLT PUSH2 0x19D JUMPI PUSH1 0x4 CALLDATALOAD PUSH8 0xFFFFFFFFFFFFFFFF DUP2 GT PUSH2 0x19D JUMPI PUSH2 0x1090 SWAP1 CALLDATASIZE SWAP1 PUSH1 0x4 ADD PUSH2 0x1B28 JUMP JUMPDEST SWAP2 SWAP1 PUSH2 0x109A PUSH2 0x2055 JUMP JUMPDEST PUSH2 0x10A2 PUSH2 0x1D7C JUMP JUMPDEST PUSH1 0x0 SWAP3 PUSH1 0x0 JUMPDEST DUP2 DUP2 LT PUSH2 0x1139 JUMPI POP POP POP DUP2 ISZERO PUSH2 0x10FF JUMPI POP PUSH1 0x6 SLOAD PUSH1 0xFF DUP2 PUSH1 0xA0 SHR AND PUSH1 0x0 EQ PUSH2 0x10E5 JUMPI POP PUSH1 0x0 DUP1 DUP1 DUP1 PUSH2 0x10DF SWAP5 CALLER GAS CALL PUSH2 0x283 PUSH2 0x1F93 JUMP JUMPDEST PUSH1 0x1 DUP1 SSTORE STOP JUMPDEST PUSH2 0x10FA SWAP2 SWAP1 CALLER SWAP1 PUSH1 0x1 PUSH1 0x1 PUSH1 0xA0 SHL SUB AND PUSH2 0x2015 JUMP JUMPDEST PUSH2 0x10DF JUMP JUMPDEST PUSH1 0x64 SWAP1 PUSH1 0x40 MLOAD SWAP1 PUSH3 0x461BCD PUSH1 0xE5 SHL DUP3 MSTORE PUSH1 0x4 DUP3 ADD MSTORE PUSH1 0x13 PUSH1 0x24 DUP3 ADD MSTORE PUSH19 0x4E6F207265776172647320746F20636C61696D PUSH1 0x68 SHL PUSH1 0x44 DUP3 ADD MSTORE REVERT JUMPDEST PUSH2 0x1144 DUP2 DUP4 DUP6 PUSH2 0x1E77 JUMP JUMPDEST CALLDATALOAD DUP1 PUSH1 0x0 MSTORE PUSH1 0x3 DUP1 DUP7 MSTORE PUSH1 0x40 PUSH1 0x0 KECCAK256 CALLER PUSH1 0x0 MSTORE DUP7 MSTORE PUSH1 0x40 PUSH1 0x0 KECCAK256 SWAP1 PUSH1 0x1 DUP3 ADD SLOAD SWAP2 DUP3 ISZERO ISZERO DUP1 PUSH2 0x121C JUMPI JUMPDEST PUSH2 0x1185 JUMPI JUMPDEST POP POP POP POP PUSH2 0x1180 SWAP1 PUSH2 0x1E68 JUMP JUMPDEST PUSH2 0x10A8 JUMP JUMPDEST PUSH2 0x1180 SWAP5 SWAP4 SWAP9 PUSH2 0x11D4 SWAP3 DUP5 SWAP3 PUSH1 0x2 DUP1 SWAP2 ADD PUSH1 0x1 PUSH1 0x60 SHL PUSH1 0xFF PUSH1 0x60 SHL NOT DUP3 SLOAD AND OR SWAP1 SSTORE PUSH1 0x5 DUP12 MSTORE PUSH1 0x40 PUSH1 0x0 KECCAK256 PUSH2 0x11BB DUP6 DUP3 SLOAD PUSH2 0x1F5A JUMP JUMPDEST SWAP1 SSTORE DUP12 PUSH1 0x0 MSTORE DUP11 MSTORE PUSH1 0x40 PUSH1 0x0 KECCAK256 ADD PUSH2 0x6A6 DUP4 DUP3 SLOAD PUSH2 0x1E87 JUMP JUMPDEST PUSH1 0x40 DUP1 MLOAD SWAP3 DUP4 MSTORE PUSH1 0x1 PUSH1 0x1 PUSH1 0x60 SHL SUB TIMESTAMP AND PUSH1 0x20 DUP5 ADD MSTORE SWAP1 SWAP8 CALLER SWAP3 SWAP1 SWAP2 PUSH32 0xE3E7FF31FAFBBCFBFA53D48EE00511265329AD66B8EA94EFB4117F9E4E709DE6 SWAP2 LOG3 SWAP1 DUP7 DUP1 DUP1 PUSH2 0x1173 JUMP JUMPDEST POP PUSH1 0xFF PUSH1 0x2 DUP3 ADD SLOAD PUSH1 0x60 SHR AND ISZERO PUSH2 0x116E JUMP JUMPDEST CALLVALUE PUSH2 0x19D JUMPI PUSH1 0x0 CALLDATASIZE PUSH1 0x3 NOT ADD SLT PUSH2 0x19D JUMPI PUSH1 0x20 PUSH1 0x40 MLOAD PUSH2 0x1F4 DUP2 MSTORE RETURN JUMPDEST CALLVALUE PUSH2 0x19D JUMPI PUSH2 0x1259 CALLDATASIZE PUSH2 0x1B59 JUMP JUMPDEST SWAP3 SWAP1 SWAP2 SWAP3 CALLER PUSH1 0x0 MSTORE PUSH1 0x7 PUSH1 0x20 MSTORE PUSH1 0xFF PUSH1 0x40 PUSH1 0x0 KECCAK256 SLOAD AND DUP1 ISZERO PUSH2 0x15FA JUMPI JUMPDEST PUSH2 0x127F SWAP1 PUSH2 0x1C4C JUMP JUMPDEST PUSH2 0x1287 PUSH2 0x1D7C JUMP JUMPDEST DUP5 PUSH1 0x0 MSTORE PUSH1 0x2 PUSH1 0x20 MSTORE PUSH1 0x40 PUSH1 0x0 KECCAK256 SWAP2 PUSH1 0x1 DUP4 ADD SLOAD SWAP4 PUSH2 0x12A7 DUP6 ISZERO ISZERO PUSH2 0x1D9D JUMP JUMPDEST PUSH2 0x12BB PUSH1 0xFF PUSH1 0x4 DUP7 ADD SLOAD PUSH1 0x68 SHR AND ISZERO PUSH2 0x1DDF JUMP JUMPDEST PUSH2 0x12C6 DUP4 DUP8 EQ PUSH2 0x1E24 JUMP JUMPDEST PUSH1 0x0 SWAP3 PUSH1 0x0 JUMPDEST DUP8 DUP2 LT PUSH2 0x15DC JUMPI POP PUSH2 0x12DF DUP5 ISZERO ISZERO PUSH2 0x1E94 JUMP JUMPDEST PUSH2 0x12E9 DUP8 DUP8 PUSH2 0x1EE6 JUMP JUMPDEST SWAP2 PUSH2 0x1388 SWAP3 DUP4 DUP2 MUL SWAP4 DUP2 DUP6 DIV EQ SWAP1 ISZERO OR ISZERO PUSH2 0x15C6 JUMPI PUSH2 0x1307 DUP9 PUSH2 0x1F67 JUMP JUMPDEST SWAP5 PUSH2 0x1315 PUSH1 0x40 MLOAD SWAP7 DUP8 PUSH2 0x1CE6 JUMP JUMPDEST DUP9 DUP7 MSTORE PUSH1 0x1F NOT PUSH2 0x1324 DUP11 PUSH2 0x1F67 JUMP JUMPDEST ADD CALLDATASIZE PUSH1 0x20 DUP9 ADD CALLDATACOPY PUSH1 0x0 SWAP8 PUSH1 0x0 SWAP4 PUSH1 0x0 JUMPDEST DUP12 DUP2 LT PUSH2 0x1559 JUMPI POP POP POP POP POP PUSH1 0x0 SWAP6 DUP1 ISZERO ISZERO PUSH1 0x0 EQ PUSH2 0x142F JUMPI PUSH2 0x1357 SWAP1 DUP9 PUSH2 0x1F5A JUMP JUMPDEST DUP1 ISZERO PUSH2 0x1423 JUMPI PUSH2 0x1366 SWAP2 PUSH2 0x1EE6 JUMP JUMPDEST SWAP3 SWAP2 SWAP1 JUMPDEST PUSH1 0x0 SWAP4 JUMPDEST DUP8 DUP6 LT PUSH2 0x13BC JUMPI POP POP POP POP POP SWAP2 PUSH1 0x40 SWAP2 PUSH2 0x53B PUSH1 0x0 DUP1 MLOAD PUSH1 0x20 PUSH2 0x20E8 DUP4 CODECOPY DUP2 MLOAD SWAP2 MSTORE SWAP5 JUMPDEST PUSH1 0x2 DUP2 ADD DUP4 SWAP1 SSTORE PUSH1 0x4 ADD DUP1 SLOAD PUSH2 0x100 PUSH1 0x1 PUSH1 0x68 SHL SUB NOT AND TIMESTAMP PUSH1 0x8 SHL PUSH2 0x100 PUSH1 0x1 PUSH1 0x68 SHL SUB AND OR SWAP1 SSTORE JUMP JUMPDEST SWAP1 SWAP2 SWAP3 SWAP4 SWAP6 PUSH2 0x6AD PUSH2 0x1400 SWAP2 PUSH2 0x2710 DUP6 DIV PUSH2 0x13D7 DUP11 DUP10 PUSH2 0x1F7F JUMP JUMPDEST MLOAD LT ISZERO PUSH2 0x1409 JUMPI PUSH2 0x2710 DUP6 DIV SWAP1 JUMPDEST PUSH2 0x651 DUP11 DUP14 DUP14 DUP11 PUSH2 0x5E9 PUSH2 0x593 PUSH2 0x598 PUSH2 0x593 DUP8 DUP7 DUP7 PUSH2 0x1E77 JUMP JUMPDEST SWAP4 SWAP3 SWAP2 SWAP1 PUSH2 0x136E JUMP JUMPDEST PUSH2 0x141D DUP5 PUSH2 0x1417 DUP12 DUP11 PUSH2 0x1F7F JUMP JUMPDEST MLOAD PUSH2 0x1F5A JUMP JUMPDEST SWAP1 PUSH2 0x13E5 JUMP JUMPDEST POP POP PUSH1 0x0 SWAP3 SWAP2 SWAP1 PUSH2 0x136A JUMP JUMPDEST POP POP POP SWAP5 SWAP4 SWAP3 SWAP2 SWAP1 PUSH1 0x0 SWAP1 JUMPDEST DUP5 DUP3 LT PUSH2 0x1463 JUMPI POP POP PUSH1 0x0 DUP1 MLOAD PUSH1 0x20 PUSH2 0x20E8 DUP4 CODECOPY DUP2 MLOAD SWAP2 MSTORE SWAP4 SWAP5 POP SWAP1 PUSH2 0x53B PUSH1 0x40 SWAP4 SWAP3 PUSH2 0x1392 JUMP JUMPDEST SWAP1 SWAP3 PUSH2 0x154D PUSH2 0x1553 SWAP2 PUSH2 0x14E0 PUSH2 0x147D PUSH2 0x593 DUP9 DUP11 DUP14 PUSH2 0x1E77 JUMP JUMPDEST PUSH2 0x1487 DUP9 DUP8 PUSH2 0x1F7F JUMP JUMPDEST MLOAD PUSH1 0x40 MLOAD SWAP2 PUSH2 0x1495 DUP4 PUSH2 0x1CCA JUMP JUMPDEST PUSH1 0x1 DUP1 PUSH1 0xA0 SHL SUB AND DUP3 MSTORE PUSH1 0x20 DUP3 ADD MSTORE PUSH1 0x1 PUSH1 0x1 PUSH1 0x60 SHL SUB TIMESTAMP AND PUSH1 0x40 DUP3 ADD MSTORE PUSH1 0x60 DUP2 ADD PUSH1 0x0 DUP2 MSTORE DUP11 PUSH1 0x0 MSTORE PUSH1 0x3 PUSH1 0x20 MSTORE DUP10 DUP13 PUSH2 0x5E9 PUSH2 0x593 DUP13 PUSH1 0x40 PUSH1 0x0 KECCAK256 SWAP5 PUSH1 0x1 DUP1 PUSH1 0xA0 SHL SUB SWAP5 PUSH2 0x1E77 JUMP JUMPDEST DUP8 PUSH1 0x0 MSTORE PUSH1 0x4 PUSH1 0x20 MSTORE PUSH2 0x1500 DUP10 PUSH2 0x671 PUSH2 0x593 DUP10 DUP12 PUSH1 0x40 PUSH1 0x0 KECCAK256 SWAP5 PUSH2 0x1E77 JUMP JUMPDEST PUSH2 0x150A DUP7 DUP6 PUSH2 0x1F7F JUMP JUMPDEST MLOAD PUSH1 0x1 PUSH1 0x1 PUSH1 0xA0 SHL SUB PUSH2 0x1521 PUSH2 0x593 DUP10 DUP12 DUP15 PUSH2 0x1E77 JUMP JUMPDEST AND PUSH1 0x0 MSTORE PUSH1 0x5 PUSH1 0x20 MSTORE PUSH2 0x153A PUSH1 0x40 PUSH1 0x0 KECCAK256 SWAP2 DUP3 SLOAD PUSH2 0x1E87 JUMP JUMPDEST SWAP1 SSTORE PUSH2 0x1546 DUP7 DUP6 PUSH2 0x1F7F JUMP JUMPDEST MLOAD SWAP1 PUSH2 0x1E87 JUMP JUMPDEST SWAP4 PUSH2 0x1E68 JUMP JUMPDEST SWAP1 PUSH2 0x143B JUMP JUMPDEST PUSH2 0x1572 DUP5 PUSH2 0x572 PUSH2 0x156B DUP5 DUP7 DUP11 PUSH2 0x1E77 JUMP JUMPDEST CALLDATALOAD DUP7 PUSH2 0x1ED3 JUMP JUMPDEST DUP1 PUSH2 0x157D DUP4 DUP13 PUSH2 0x1F7F JUMP JUMPDEST MSTORE PUSH2 0x2710 DUP9 DIV DUP2 LT PUSH2 0x1599 JUMPI JUMPDEST POP PUSH2 0x1594 SWAP1 PUSH2 0x1E68 JUMP JUMPDEST PUSH2 0x1334 JUMP JUMPDEST SWAP11 PUSH2 0x1594 SWAP2 SWAP7 PUSH2 0x15B9 PUSH2 0x15AE PUSH2 0x15BF SWAP4 PUSH2 0x1E68 JUMP JUMPDEST SWAP14 PUSH2 0x2710 DUP12 DIV PUSH2 0x1F5A JUMP JUMPDEST SWAP1 PUSH2 0x1E87 JUMP JUMPDEST SWAP6 SWAP1 PUSH2 0x158A JUMP JUMPDEST PUSH4 0x4E487B71 PUSH1 0xE0 SHL PUSH1 0x0 MSTORE PUSH1 0x11 PUSH1 0x4 MSTORE PUSH1 0x24 PUSH1 0x0 REVERT JUMPDEST SWAP4 PUSH2 0x15EF PUSH2 0x15F5 SWAP2 PUSH2 0x6D2 DUP8 DUP6 DUP8 PUSH2 0x1E77 JUMP JUMPDEST SWAP5 PUSH2 0x1E68 JUMP JUMPDEST PUSH2 0x12CC JUMP JUMPDEST POP PUSH1 0x0 SLOAD PUSH1 0x1 PUSH1 0x1 PUSH1 0xA0 SHL SUB AND CALLER EQ PUSH2 0x1276 JUMP JUMPDEST CALLVALUE PUSH2 0x19D JUMPI PUSH2 0x161C CALLDATASIZE PUSH2 0x1B59 JUMP JUMPDEST SWAP2 SWAP3 SWAP1 CALLER PUSH1 0x0 MSTORE PUSH1 0x7 PUSH1 0x20 MSTORE PUSH1 0xFF PUSH1 0x40 PUSH1 0x0 KECCAK256 SLOAD AND DUP1 ISZERO PUSH2 0x1955 JUMPI JUMPDEST PUSH2 0x1641 SWAP1 PUSH2 0x1C4C JUMP JUMPDEST PUSH2 0x1649 PUSH2 0x1D7C JUMP JUMPDEST DUP5 PUSH1 0x0 MSTORE PUSH1 0x2 PUSH1 0x20 MSTORE PUSH1 0x40 PUSH1 0x0 KECCAK256 SWAP2 PUSH1 0x1 DUP4 ADD SLOAD SWAP1 PUSH2 0x1669 DUP3 ISZERO ISZERO PUSH2 0x1D9D JUMP JUMPDEST PUSH2 0x167D PUSH1 0xFF PUSH1 0x4 DUP7 ADD SLOAD PUSH1 0x68 SHR AND ISZERO PUSH2 0x1DDF JUMP JUMPDEST PUSH2 0x1688 DUP6 DUP8 EQ PUSH2 0x1E24 JUMP JUMPDEST PUSH1 0x0 SWAP3 PUSH1 0x0 JUMPDEST DUP8 DUP2 LT PUSH2 0x193D JUMPI POP PUSH2 0x16A1 DUP5 ISZERO ISZERO PUSH2 0x1E94 JUMP JUMPDEST PUSH2 0x1388 SWAP1 DUP8 ISZERO SWAP2 DUP9 DUP2 DUP2 MUL DIV DUP2 EQ DUP4 OR ISZERO PUSH2 0x15C6 JUMPI PUSH2 0x1F40 SWAP3 DUP10 DUP5 DUP2 MUL DIV DUP5 EQ OR ISZERO PUSH2 0x15C6 JUMPI PUSH1 0x0 SWAP8 DUP6 PUSH2 0x2134 DUP2 MUL DIV PUSH2 0x2134 EQ DUP7 ISZERO OR ISZERO PUSH2 0x15C6 JUMPI PUSH2 0x16F5 PUSH2 0x2710 PUSH2 0x2134 DUP9 SWAP8 SWAP7 SWAP6 SWAP5 SWAP10 SWAP9 MUL DIV DUP7 PUSH2 0x1F5A JUMP JUMPDEST SWAP1 PUSH1 0x0 SWAP8 JUMPDEST DUP13 DUP13 DUP11 LT PUSH2 0x1743 JUMPI PUSH1 0x2 DUP12 ADD DUP13 SWAP1 SSTORE PUSH1 0x4 DUP12 ADD DUP1 SLOAD PUSH2 0x100 PUSH1 0x1 PUSH1 0x68 SHL SUB NOT AND TIMESTAMP PUSH1 0x8 SHL PUSH2 0x100 PUSH1 0x1 PUSH1 0x68 SHL SUB AND OR SWAP1 SSTORE PUSH1 0x0 DUP1 MLOAD PUSH1 0x20 PUSH2 0x20E8 DUP4 CODECOPY DUP2 MLOAD SWAP2 MSTORE PUSH1 0x40 DUP15 DUP15 PUSH2 0x53B JUMP JUMPDEST DUP13 SWAP1 DUP8 DUP12 PUSH2 0x1776 DUP2 SWAP16 SWAP6 SWAP7 SWAP8 SWAP9 SWAP10 SWAP11 SWAP12 SWAP13 PUSH2 0x572 DUP2 SWAP16 DUP16 SWAP1 PUSH2 0x2134 PUSH2 0x176D DUP16 SWAP3 DUP15 PUSH2 0x2710 SWAP5 PUSH2 0x1E77 JUMP JUMPDEST CALLDATALOAD SWAP3 MUL DIV PUSH2 0x1ED3 JUMP JUMPDEST SWAP4 PUSH1 0x0 PUSH2 0x2710 DUP9 DUP4 MUL DIV DUP4 LT ISZERO PUSH2 0x189B JUMPI POP POP POP POP POP PUSH2 0x5DC DUP6 DUP2 DUP2 MUL DIV DUP2 EQ DUP7 ISZERO OR ISZERO PUSH2 0x15C6 JUMPI PUSH2 0x17B6 SWAP1 PUSH2 0x17AD DUP15 DUP8 DUP11 PUSH2 0x1E77 JUMP JUMPDEST CALLDATALOAD SWAP1 DUP8 MUL PUSH2 0x1ED3 JUMP JUMPDEST SWAP1 DUP11 PUSH2 0x2710 DUP2 MUL DIV PUSH2 0x2710 EQ DUP12 ISZERO OR ISZERO PUSH2 0x15C6 JUMPI PUSH2 0x188E SWAP3 DUP16 SWAP2 DUP16 DUP16 PUSH2 0x593 SWAP1 DUP16 SWAP3 PUSH2 0x17F2 DUP16 SWAP6 PUSH2 0x15B9 PUSH2 0x1888 SWAP11 PUSH2 0x2710 PUSH2 0x68D SWAP9 MUL SWAP1 PUSH2 0x1EE6 JUMP JUMPDEST SWAP7 PUSH2 0x185C PUSH2 0x1804 PUSH2 0x593 DUP6 DUP6 DUP11 PUSH2 0x1E77 JUMP JUMPDEST PUSH1 0x40 MLOAD SWAP1 PUSH2 0x1811 DUP3 PUSH2 0x1CCA JUMP JUMPDEST PUSH1 0x1 DUP1 PUSH1 0xA0 SHL SUB AND DUP2 MSTORE DUP10 PUSH1 0x20 DUP3 ADD MSTORE PUSH1 0x1 PUSH1 0x1 PUSH1 0x60 SHL SUB TIMESTAMP AND PUSH1 0x40 DUP3 ADD MSTORE PUSH1 0x60 DUP2 ADD PUSH1 0x0 DUP2 MSTORE DUP4 PUSH1 0x0 MSTORE PUSH1 0x3 PUSH1 0x20 MSTORE PUSH1 0x40 PUSH1 0x0 KECCAK256 DUP10 PUSH2 0x5E9 PUSH2 0x593 DUP10 DUP10 PUSH1 0x1 DUP1 PUSH1 0xA0 SHL SUB SWAP5 PUSH2 0x1E77 JUMP JUMPDEST PUSH1 0x0 MSTORE PUSH1 0x4 PUSH1 0x20 MSTORE PUSH2 0x187A PUSH1 0x40 PUSH1 0x0 KECCAK256 PUSH2 0x671 PUSH2 0x593 DUP6 DUP6 DUP11 PUSH2 0x1E77 JUMP JUMPDEST PUSH1 0x1 PUSH1 0x1 PUSH1 0xA0 SHL SUB SWAP5 PUSH2 0x1E77 JUMP JUMPDEST SWAP11 PUSH2 0x1E68 JUMP JUMPDEST SWAP8 SWAP7 SWAP6 SWAP5 SWAP4 SWAP3 SWAP2 SWAP1 PUSH2 0x16FA JUMP JUMPDEST SWAP1 SWAP2 SWAP3 SWAP4 SWAP5 PUSH2 0x2710 DUP13 DUP5 MUL DIV DUP5 LT PUSH2 0x18C9 JUMPI JUMPDEST PUSH2 0x188E SWAP7 SWAP4 PUSH2 0x1888 SWAP7 SWAP6 SWAP4 PUSH2 0x17F2 PUSH2 0x68D SWAP5 PUSH2 0x593 SWAP5 PUSH2 0x1E87 JUMP JUMPDEST SWAP5 POP POP POP POP POP PUSH2 0x1F4 DUP6 DUP2 DUP2 MUL DIV DUP2 EQ DUP7 ISZERO OR ISZERO PUSH2 0x15C6 JUMPI PUSH2 0x18F0 SWAP1 PUSH2 0x17AD DUP15 DUP8 DUP11 PUSH2 0x1E77 JUMP JUMPDEST SWAP1 DUP11 PUSH2 0x2710 DUP2 MUL DIV PUSH2 0x2710 EQ DUP12 ISZERO OR ISZERO PUSH2 0x15C6 JUMPI PUSH2 0x188E SWAP3 DUP16 SWAP2 DUP16 DUP16 PUSH2 0x593 SWAP1 DUP16 SWAP3 PUSH2 0x17F2 DUP16 SWAP6 PUSH2 0x192C PUSH2 0x1888 SWAP11 PUSH2 0x2710 PUSH2 0x68D SWAP9 MUL SWAP1 PUSH2 0x1EE6 JUMP JUMPDEST SWAP6 POP SWAP4 POP POP SWAP4 SWAP6 SWAP7 POP SWAP4 SWAP7 POP PUSH2 0x18AE JUMP JUMPDEST SWAP4 PUSH2 0x15EF PUSH2 0x1950 SWAP2 PUSH2 0x6D2 DUP8 DUP11 DUP7 PUSH2 0x1E77 JUMP JUMPDEST PUSH2 0x168E JUMP JUMPDEST POP PUSH1 0x0 SLOAD PUSH1 0x1 PUSH1 0x1 PUSH1 0xA0 SHL SUB AND CALLER EQ PUSH2 0x1638 JUMP JUMPDEST CALLVALUE PUSH2 0x19D JUMPI PUSH1 0x20 CALLDATASIZE PUSH1 0x3 NOT ADD SLT PUSH2 0x19D JUMPI PUSH1 0x4 CALLDATALOAD PUSH1 0x0 MSTORE PUSH1 0x2 PUSH1 0x20 MSTORE PUSH1 0xE0 PUSH1 0x40 PUSH1 0x0 KECCAK256 PUSH1 0xFF DUP2 SLOAD SWAP2 PUSH1 0x1 DUP2 ADD SLOAD SWAP1 PUSH1 0x2 DUP2 ADD SLOAD PUSH1 0x4 PUSH1 0x3 DUP4 ADD SLOAD SWAP3 ADD SLOAD SWAP3 PUSH1 0x40 MLOAD SWAP6 DUP7 MSTORE PUSH1 0x20 DUP7 ADD MSTORE PUSH1 0x40 DUP6 ADD MSTORE PUSH1 0x60 DUP5 ADD MSTORE PUSH2 0x19CB PUSH1 0x80 DUP5 ADD DUP4 DUP4 AND PUSH2 0x1B05 JUMP JUMPDEST PUSH1 0x1 PUSH1 0x1 PUSH1 0x60 SHL SUB DUP2 PUSH1 0x8 SHR AND PUSH1 0xA0 DUP5 ADD MSTORE PUSH1 0x68 SHR AND ISZERO ISZERO PUSH1 0xC0 DUP3 ADD MSTORE RETURN JUMPDEST CALLVALUE PUSH2 0x19D JUMPI PUSH1 0x20 CALLDATASIZE PUSH1 0x3 NOT ADD SLT PUSH2 0x19D JUMPI PUSH1 0x0 PUSH1 0xC0 PUSH1 0x40 MLOAD PUSH2 0x1A0B DUP2 PUSH2 0x1C98 JUMP JUMPDEST DUP3 DUP2 MSTORE DUP3 PUSH1 0x20 DUP3 ADD MSTORE DUP3 PUSH1 0x40 DUP3 ADD MSTORE DUP3 PUSH1 0x60 DUP3 ADD MSTORE DUP3 PUSH1 0x80 DUP3 ADD MSTORE DUP3 PUSH1 0xA0 DUP3 ADD MSTORE ADD MSTORE PUSH1 0x4 CALLDATALOAD PUSH1 0x0 MSTORE PUSH1 0x2 PUSH1 0x20 MSTORE PUSH1 0xE0 PUSH1 0x40 PUSH1 0x0 KECCAK256 PUSH1 0x40 MLOAD SWAP1 PUSH2 0x1A4D DUP3 PUSH2 0x1C98 JUMP JUMPDEST DUP1 SLOAD DUP3 MSTORE PUSH1 0x1 DUP2 ADD SLOAD PUSH1 0x20 DUP4 ADD SWAP1 DUP2 MSTORE PUSH1 0x2 DUP3 ADD SLOAD PUSH1 0x40 DUP5 ADD SWAP1 DUP2 MSTORE PUSH2 0x1AD9 PUSH1 0x4 PUSH1 0x3 DUP6 ADD SLOAD SWAP5 PUSH1 0x60 DUP8 ADD SWAP6 DUP7 MSTORE ADD SLOAD SWAP4 PUSH1 0x80 DUP7 ADD SWAP1 PUSH2 0x1A90 PUSH1 0xFF DUP8 AND DUP4 PUSH2 0x1D08 JUMP JUMPDEST PUSH1 0xA0 DUP8 ADD SWAP4 PUSH1 0x1 PUSH1 0x1 PUSH1 0x60 SHL SUB SWAP6 DUP7 DUP9 PUSH1 0x8 SHR AND DUP7 MSTORE PUSH1 0xFF PUSH1 0xC0 DUP11 ADD SWAP9 PUSH1 0x68 SHR AND ISZERO ISZERO DUP9 MSTORE PUSH1 0x40 MLOAD SWAP9 MLOAD DUP10 MSTORE MLOAD PUSH1 0x20 DUP10 ADD MSTORE MLOAD PUSH1 0x40 DUP9 ADD MSTORE MLOAD PUSH1 0x60 DUP8 ADD MSTORE MLOAD PUSH1 0x80 DUP7 ADD SWAP1 PUSH2 0x1B05 JUMP JUMPDEST MLOAD AND PUSH1 0xA0 DUP4 ADD MSTORE MLOAD ISZERO ISZERO PUSH1 0xC0 DUP3 ADD MSTORE RETURN JUMPDEST CALLVALUE PUSH2 0x19D JUMPI PUSH1 0x0 CALLDATASIZE PUSH1 0x3 NOT ADD SLT PUSH2 0x19D JUMPI DUP1 PUSH2 0x1F40 PUSH1 0x20 SWAP3 MSTORE RETURN JUMPDEST SWAP1 PUSH1 0x4 DUP3 LT ISZERO PUSH2 0x1B12 JUMPI MSTORE JUMP JUMPDEST PUSH4 0x4E487B71 PUSH1 0xE0 SHL PUSH1 0x0 MSTORE PUSH1 0x21 PUSH1 0x4 MSTORE PUSH1 0x24 PUSH1 0x0 REVERT JUMPDEST SWAP2 DUP2 PUSH1 0x1F DUP5 ADD SLT ISZERO PUSH2 0x19D JUMPI DUP3 CALLDATALOAD SWAP2 PUSH8 0xFFFFFFFFFFFFFFFF DUP4 GT PUSH2 0x19D JUMPI PUSH1 0x20 DUP1 DUP6 ADD SWAP5 DUP5 PUSH1 0x5 SHL ADD ADD GT PUSH2 0x19D JUMPI JUMP JUMPDEST SWAP1 PUSH1 0x60 PUSH1 0x3 NOT DUP4 ADD SLT PUSH2 0x19D JUMPI PUSH1 0x4 CALLDATALOAD SWAP2 PUSH8 0xFFFFFFFFFFFFFFFF SWAP2 PUSH1 0x24 CALLDATALOAD DUP4 DUP2 GT PUSH2 0x19D JUMPI DUP3 PUSH2 0x1B8B SWAP2 PUSH1 0x4 ADD PUSH2 0x1B28 JUMP JUMPDEST SWAP4 SWAP1 SWAP4 SWAP3 PUSH1 0x44 CALLDATALOAD SWAP2 DUP3 GT PUSH2 0x19D JUMPI PUSH2 0x1BA5 SWAP2 PUSH1 0x4 ADD PUSH2 0x1B28 JUMP JUMPDEST SWAP1 SWAP2 JUMP JUMPDEST PUSH1 0x4 CALLDATALOAD SWAP1 PUSH1 0x1 PUSH1 0x1 PUSH1 0xA0 SHL SUB DUP3 AND DUP3 SUB PUSH2 0x19D JUMPI JUMP JUMPDEST PUSH1 0x24 CALLDATALOAD SWAP1 PUSH1 0x1 PUSH1 0x1 PUSH1 0xA0 SHL SUB DUP3 AND DUP3 SUB PUSH2 0x19D JUMPI JUMP JUMPDEST CALLVALUE PUSH2 0x19D JUMPI PUSH1 0x0 CALLDATASIZE PUSH1 0x3 NOT ADD SLT PUSH2 0x19D JUMPI PUSH1 0x20 PUSH1 0x40 MLOAD PUSH2 0x1388 DUP2 MSTORE RETURN JUMPDEST DUP1 SLOAD DUP3 LT ISZERO PUSH2 0x1C0A JUMPI PUSH1 0x0 MSTORE PUSH1 0x20 PUSH1 0x0 KECCAK256 ADD SWAP1 PUSH1 0x0 SWAP1 JUMP JUMPDEST PUSH4 0x4E487B71 PUSH1 0xE0 SHL PUSH1 0x0 MSTORE PUSH1 0x32 PUSH1 0x4 MSTORE PUSH1 0x24 PUSH1 0x0 REVERT JUMPDEST PUSH1 0x0 SLOAD PUSH1 0x1 PUSH1 0x1 PUSH1 0xA0 SHL SUB AND CALLER SUB PUSH2 0x1C34 JUMPI JUMP JUMPDEST PUSH1 0x40 MLOAD PUSH4 0x118CDAA7 PUSH1 0xE0 SHL DUP2 MSTORE CALLER PUSH1 0x4 DUP3 ADD MSTORE PUSH1 0x24 SWAP1 REVERT JUMPDEST ISZERO PUSH2 0x1C53 JUMPI JUMP JUMPDEST PUSH1 0x40 MLOAD PUSH3 0x461BCD PUSH1 0xE5 SHL DUP2 MSTORE PUSH1 0x20 PUSH1 0x4 DUP3 ADD MSTORE PUSH1 0x1A PUSH1 0x24 DUP3 ADD MSTORE PUSH32 0x4E6F7420617574686F72697A656420636F6F7264696E61746F72000000000000 PUSH1 0x44 DUP3 ADD MSTORE PUSH1 0x64 SWAP1 REVERT JUMPDEST PUSH1 0xE0 DUP2 ADD SWAP1 DUP2 LT PUSH8 0xFFFFFFFFFFFFFFFF DUP3 GT OR PUSH2 0x1CB4 JUMPI PUSH1 0x40 MSTORE JUMP JUMPDEST PUSH4 0x4E487B71 PUSH1 0xE0 SHL PUSH1 0x0 MSTORE PUSH1 0x41 PUSH1 0x4 MSTORE PUSH1 0x24 PUSH1 0x0 REVERT JUMPDEST PUSH1 0x80 DUP2 ADD SWAP1 DUP2 LT PUSH8 0xFFFFFFFFFFFFFFFF DUP3 GT OR PUSH2 0x1CB4 JUMPI PUSH1 0x40 MSTORE JUMP JUMPDEST SWAP1 PUSH1 0x1F DUP1 NOT SWAP2 ADD AND DUP2 ADD SWAP1 DUP2 LT PUSH8 0xFFFFFFFFFFFFFFFF DUP3 GT OR PUSH2 0x1CB4 JUMPI PUSH1 0x40 MSTORE JUMP JUMPDEST PUSH1 0x4 DUP3 LT ISZERO PUSH2 0x1B12 JUMPI MSTORE JUMP JUMPDEST SWAP1 PUSH1 0x0 PUSH1 0x20 SWAP2 DUP3 DUP2 MLOAD SWAP2 ADD DUP3 DUP6 GAS CALL ISZERO PUSH2 0x1D70 JUMPI PUSH1 0x0 MLOAD RETURNDATASIZE PUSH2 0x1D67 JUMPI POP PUSH1 0x1 PUSH1 0x1 PUSH1 0xA0 SHL SUB DUP2 AND EXTCODESIZE ISZERO JUMPDEST PUSH2 0x1D45 JUMPI POP JUMP JUMPDEST PUSH1 0x40 MLOAD PUSH4 0x5274AFE7 PUSH1 0xE0 SHL DUP2 MSTORE PUSH1 0x1 PUSH1 0x1 PUSH1 0xA0 SHL SUB SWAP1 SWAP2 AND PUSH1 0x4 DUP3 ADD MSTORE PUSH1 0x24 SWAP1 REVERT JUMPDEST PUSH1 0x1 EQ ISZERO PUSH2 0x1D3E JUMP JUMPDEST PUSH1 0x40 MLOAD RETURNDATASIZE PUSH1 0x0 DUP3 RETURNDATACOPY RETURNDATASIZE SWAP1 REVERT JUMPDEST PUSH1 0xFF PUSH1 0x0 SLOAD PUSH1 0xA0 SHR AND PUSH2 0x1D8B JUMPI JUMP JUMPDEST PUSH1 0x40 MLOAD PUSH4 0xD93C0665 PUSH1 0xE0 SHL DUP2 MSTORE PUSH1 0x4 SWAP1 REVERT JUMPDEST ISZERO PUSH2 0x1DA4 JUMPI JUMP JUMPDEST PUSH1 0x40 MLOAD PUSH3 0x461BCD PUSH1 0xE5 SHL DUP2 MSTORE PUSH1 0x20 PUSH1 0x4 DUP3 ADD MSTORE PUSH1 0x13 PUSH1 0x24 DUP3 ADD MSTORE PUSH19 0x141BDBDB08191BD95CC81B9BDD08195E1A5CDD PUSH1 0x6A SHL PUSH1 0x44 DUP3 ADD MSTORE PUSH1 0x64 SWAP1 REVERT JUMPDEST ISZERO PUSH2 0x1DE6 JUMPI JUMP JUMPDEST PUSH1 0x40 MLOAD PUSH3 0x461BCD PUSH1 0xE5 SHL DUP2 MSTORE PUSH1 0x20 PUSH1 0x4 DUP3 ADD MSTORE PUSH1 0x16 PUSH1 0x24 DUP3 ADD MSTORE PUSH22 0x141BDBDB08185B1C9958591E48199A5B985B1A5E9959 PUSH1 0x52 SHL PUSH1 0x44 DUP3 ADD MSTORE PUSH1 0x64 SWAP1 REVERT JUMPDEST ISZERO PUSH2 0x1E2B JUMPI JUMP JUMPDEST PUSH1 0x40 MLOAD PUSH3 0x461BCD PUSH1 0xE5 SHL DUP2 MSTORE PUSH1 0x20 PUSH1 0x4 DUP3 ADD MSTORE PUSH1 0x15 PUSH1 0x24 DUP3 ADD MSTORE PUSH21 0x82E4E4C2F240D8CADCCEE8D040DAD2E6DAC2E8C6D PUSH1 0x5B SHL PUSH1 0x44 DUP3 ADD MSTORE PUSH1 0x64 SWAP1 REVERT JUMPDEST PUSH1 0x0 NOT DUP2 EQ PUSH2 0x15C6 JUMPI PUSH1 0x1 ADD SWAP1 JUMP JUMPDEST SWAP2 SWAP1 DUP2 LT ISZERO PUSH2 0x1C0A JUMPI PUSH1 0x5 SHL ADD SWAP1 JUMP JUMPDEST SWAP2 SWAP1 DUP3 ADD DUP1 SWAP3 GT PUSH2 0x15C6 JUMPI JUMP JUMPDEST ISZERO PUSH2 0x1E9B JUMPI JUMP JUMPDEST PUSH1 0x40 MLOAD PUSH3 0x461BCD PUSH1 0xE5 SHL DUP2 MSTORE PUSH1 0x20 PUSH1 0x4 DUP3 ADD MSTORE PUSH1 0x10 PUSH1 0x24 DUP3 ADD MSTORE PUSH16 0x4E6F20636F6E747269627574696F6E73 PUSH1 0x80 SHL PUSH1 0x44 DUP3 ADD MSTORE PUSH1 0x64 SWAP1 REVERT JUMPDEST DUP2 DUP2 MUL SWAP3 SWAP2 DUP2 ISZERO SWAP2 DUP5 DIV EQ OR ISZERO PUSH2 0x15C6 JUMPI JUMP JUMPDEST DUP2 ISZERO PUSH2 0x1EF0 JUMPI DIV SWAP1 JUMP JUMPDEST PUSH4 0x4E487B71 PUSH1 0xE0 SHL PUSH1 0x0 MSTORE PUSH1 0x12 PUSH1 0x4 MSTORE PUSH1 0x24 PUSH1 0x0 REVERT JUMPDEST CALLDATALOAD PUSH1 0x1 PUSH1 0x1 PUSH1 0xA0 SHL SUB DUP2 AND DUP2 SUB PUSH2 0x19D JUMPI SWAP1 JUMP JUMPDEST DUP1 SLOAD PUSH9 0x10000000000000000 DUP2 LT ISZERO PUSH2 0x1CB4 JUMPI PUSH2 0x1F3C SWAP2 PUSH1 0x1 DUP3 ADD DUP2 SSTORE PUSH2 0x1BF2 JUMP JUMPDEST DUP2 SWAP3 SWAP2 SLOAD SWAP1 PUSH1 0x3 SHL SWAP2 PUSH1 0x1 DUP1 PUSH1 0xA0 SHL SUB DUP1 SWAP2 AND DUP4 SHL SWAP3 SHL NOT AND OR SWAP1 SSTORE JUMP JUMPDEST SWAP2 SWAP1 DUP3 SUB SWAP2 DUP3 GT PUSH2 0x15C6 JUMPI JUMP JUMPDEST PUSH8 0xFFFFFFFFFFFFFFFF DUP2 GT PUSH2 0x1CB4 JUMPI PUSH1 0x5 SHL PUSH1 0x20 ADD SWAP1 JUMP JUMPDEST DUP1 MLOAD DUP3 LT ISZERO PUSH2 0x1C0A JUMPI PUSH1 0x20 SWAP2 PUSH1 0x5 SHL ADD ADD SWAP1 JUMP JUMPDEST RETURNDATASIZE ISZERO PUSH2 0x1FCE JUMPI RETURNDATASIZE SWAP1 PUSH8 0xFFFFFFFFFFFFFFFF DUP3 GT PUSH2 0x1CB4 JUMPI PUSH1 0x40 MLOAD SWAP2 PUSH2 0x1FC2 PUSH1 0x1F DUP3 ADD PUSH1 0x1F NOT AND PUSH1 0x20 ADD DUP5 PUSH2 0x1CE6 JUMP JUMPDEST DUP3 MSTORE RETURNDATASIZE PUSH1 0x0 PUSH1 0x20 DUP5 ADD RETURNDATACOPY JUMP JUMPDEST PUSH1 0x60 SWAP1 JUMP JUMPDEST ISZERO PUSH2 0x1FDA JUMPI JUMP JUMPDEST PUSH1 0x40 MLOAD PUSH3 0x461BCD PUSH1 0xE5 SHL DUP2 MSTORE PUSH1 0x20 PUSH1 0x4 DUP3 ADD MSTORE PUSH1 0x13 PUSH1 0x24 DUP3 ADD MSTORE PUSH19 0x115512081D1C985B9CD9995C8819985A5B1959 PUSH1 0x6A SHL PUSH1 0x44 DUP3 ADD MSTORE PUSH1 0x64 SWAP1 REVERT JUMPDEST PUSH1 0x40 MLOAD PUSH4 0xA9059CBB PUSH1 0xE0 SHL PUSH1 0x20 DUP3 ADD MSTORE PUSH1 0x1 PUSH1 0x1 PUSH1 0xA0 SHL SUB SWAP1 SWAP3 AND PUSH1 0x24 DUP4 ADD MSTORE PUSH1 0x44 DUP1 DUP4 ADD SWAP4 SWAP1 SWAP4 MSTORE SWAP2 DUP2 MSTORE PUSH2 0x2053 SWAP2 PUSH2 0x204E DUP3 PUSH2 0x1CCA JUMP JUMPDEST PUSH2 0x1D14 JUMP JUMPDEST JUMP JUMPDEST PUSH1 0x2 PUSH1 0x1 SLOAD EQ PUSH2 0x2066 JUMPI PUSH1 0x2 PUSH1 0x1 SSTORE JUMP JUMPDEST PUSH1 0x40 MLOAD PUSH4 0x3EE5AEB5 PUSH1 0xE0 SHL DUP2 MSTORE PUSH1 0x4 SWAP1 REVERT JUMPDEST PUSH1 0x0 MSTORE PUSH1 0x3 PUSH1 0x20 MSTORE PUSH1 0x40 PUSH1 0x0 KECCAK256 PUSH1 0x1 DUP1 PUSH1 0xA0 SHL SUB DUP1 SWAP3 AND PUSH1 0x0 MSTORE PUSH1 0x20 MSTORE PUSH1 0x60 PUSH1 0x40 PUSH1 0x0 KECCAK256 SWAP2 PUSH1 0x40 MLOAD SWAP1 PUSH2 0x20AA DUP3 PUSH2 0x1CCA JUMP JUMPDEST DUP4 SLOAD AND DUP2 MSTORE PUSH1 0xFF PUSH1 0x2 PUSH1 0x1 DUP6 ADD SLOAD SWAP5 DUP6 PUSH1 0x20 DUP6 ADD MSTORE ADD SLOAD PUSH1 0x1 PUSH1 0x1 PUSH1 0x60 SHL SUB DUP2 AND PUSH1 0x40 DUP5 ADD MSTORE DUP4 SHR AND ISZERO ISZERO SWAP2 DUP3 SWAP2 ADD MSTORE PUSH2 0x20E1 JUMPI SWAP1 JUMP JUMPDEST POP PUSH1 0x0 SWAP1 JUMP INVALID 0x4C PUSH22 0x100FF212548456A887C7E9A8355F2ECEB966A044EAF8 0x2E SHL 0x2A RETURNDATACOPY XOR 0x2C SIGNEXTEND SUB LOG2 PUSH5 0x6970667358 0x22 SLT KECCAK256 SWAP2 PUSH30 0xB5D61D948D59FF4E1EF3AE60F55E9A01F1EB25DD2E4963B486E9CFFE1230 PUSH5 0x736F6C6343 STOP ADDMOD EQ STOP CALLER "},"methodIdentifiers":{"MIN_GUARANTEE_BPS()":"dc29b8f8","TIER1_BONUS()":"c1927292","TIER1_THRESHOLD()":"642ce355","TIER2_BONUS()":"3a6f85b1","TIER2_THRESHOLD()":"086d2c87","authorizedCoordinators(address)":"674e1d45","calculateRewardsProportional(bytes32,address[],uint256[])":"c5856aa7","calculateRewardsTiered(bytes32,address[],uint256[])":"2beaa07d","calculateRewardsWithMinimum(bytes32,address[],uint256[])":"396cde4c","claimReward(bytes32)":"f5414023","claimRewardsBatch(bytes32[])":"3c2fb929","createRewardPool(bytes32,uint256,uint8)":"7f792c79","emergencyWithdraw(bytes32)":"75870d65","finalizeRewardPool(bytes32)":"3e3ee1e2","getPendingReward(bytes32,address)":"69608a31","getRewardPool(bytes32)":"0b878aa6","getSessionRewardees(bytes32)":"77116814","nodeRewards(bytes32,address)":"618e9de1","owner()":"8da5cb5b","pause()":"8456cb59","paused()":"5c975abb","pendingWithdrawals(address)":"f3f43703","renounceOwnership()":"715018a6","rewardPools(bytes32)":"2073de5c","rewardToken()":"f7c618c1","sessionRewardees(bytes32,uint256)":"a571f40b","setCoordinatorAuthorization(address,bool)":"5414c649","transferOwnership(address)":"f2fde38b","unpause()":"3f4ba83a","useNativeToken()":"8232697a"}}}}}