{
  "_format": "hh-sol-artifact-1",
  "contractName": "RewardDistributor",
  "sourceName": "contracts/RewardDistributor.sol",
  "abi": [
    {
      "inputs": [
        {
          "internalType": "address",
          "name": "initialOwner",
          "type": "address"
        },
        {
          "internalType": "address",
          "name": "_rewardToken",
          "type": "address"
        },
        {
          "internalType": "bool",
          "name": "_useNativeToken",
          "type": "bool"
        }
      ],
      "stateMutability": "nonpayable",
      "type": "constructor"
    },
    {
      "inputs": [],
      "name": "EnforcedPause",
      "type": "error"
    },
    {
      "inputs": [],
      "name": "ExpectedPause",
      "type": "error"
    },
    {
      "inputs": [
        {
          "internalType": "address",
          "name": "owner",
          "type": "address"
        }
      ],
      "name": "OwnableInvalidOwner",
      "type": "error"
    },
    {
      "inputs": [
        {
          "internalType": "address",
          "name": "account",
          "type": "address"
        }
      ],
      "name": "OwnableUnauthorizedAccount",
      "type": "error"
    },
    {
      "inputs": [],
      "name": "ReentrancyGuardReentrantCall",
      "type": "error"
    },
    {
      "inputs": [
        {
          "internalType": "address",
          "name": "token",
          "type": "address"
        }
      ],
      "name": "SafeERC20FailedOperation",
      "type": "error"
    },
    {
      "anonymous": false,
      "inputs": [
        {
          "indexed": true,
          "internalType": "address",
          "name": "coordinator",
          "type": "address"
        },
        {
          "indexed": false,
          "internalType": "bool",
          "name": "status",
          "type": "bool"
        }
      ],
      "name": "CoordinatorAuthorized",
      "type": "event"
    },
    {
      "anonymous": false,
      "inputs": [
        {
          "indexed": true,
          "internalType": "address",
          "name": "previousOwner",
          "type": "address"
        },
        {
          "indexed": true,
          "internalType": "address",
          "name": "newOwner",
          "type": "address"
        }
      ],
      "name": "OwnershipTransferred",
      "type": "event"
    },
    {
      "anonymous": false,
      "inputs": [
        {
          "indexed": false,
          "internalType": "address",
          "name": "account",
          "type": "address"
        }
      ],
      "name": "Paused",
      "type": "event"
    },
    {
      "anonymous": false,
      "inputs": [
        {
          "indexed": true,
          "internalType": "bytes32",
          "name": "sessionId",
          "type": "bytes32"
        },
        {
          "indexed": true,
          "internalType": "address",
          "name": "nodeAddress",
          "type": "address"
        },
        {
          "indexed": false,
          "internalType": "uint256",
          "name": "amount",
          "type": "uint256"
        },
        {
          "indexed": false,
          "internalType": "uint96",
          "name": "timestamp",
          "type": "uint96"
        }
      ],
      "name": "RewardClaimed",
      "type": "event"
    },
    {
      "anonymous": false,
      "inputs": [
        {
          "indexed": true,
          "internalType": "bytes32",
          "name": "sessionId",
          "type": "bytes32"
        },
        {
          "indexed": false,
          "internalType": "uint256",
          "name": "totalPool",
          "type": "uint256"
        },
        {
          "indexed": false,
          "internalType": "enum RewardDistributor.RewardStrategy",
          "name": "strategy",
          "type": "uint8"
        },
        {
          "indexed": false,
          "internalType": "uint96",
          "name": "timestamp",
          "type": "uint96"
        }
      ],
      "name": "RewardPoolCreated",
      "type": "event"
    },
    {
      "anonymous": false,
      "inputs": [
        {
          "indexed": true,
          "internalType": "bytes32",
          "name": "sessionId",
          "type": "bytes32"
        },
        {
          "indexed": false,
          "internalType": "uint256",
          "name": "totalDistributed",
          "type": "uint256"
        },
        {
          "indexed": false,
          "internalType": "uint256",
          "name": "totalClaimed",
          "type": "uint256"
        }
      ],
      "name": "RewardPoolFinalized",
      "type": "event"
    },
    {
      "anonymous": false,
      "inputs": [
        {
          "indexed": true,
          "internalType": "bytes32",
          "name": "sessionId",
          "type": "bytes32"
        },
        {
          "indexed": false,
          "internalType": "uint256",
          "name": "nodeCount",
          "type": "uint256"
        },
        {
          "indexed": false,
          "internalType": "uint256",
          "name": "totalDistributed",
          "type": "uint256"
        }
      ],
      "name": "RewardsCalculated",
      "type": "event"
    },
    {
      "anonymous": false,
      "inputs": [
        {
          "indexed": false,
          "internalType": "address",
          "name": "account",
          "type": "address"
        }
      ],
      "name": "Unpaused",
      "type": "event"
    },
    {
      "inputs": [],
      "name": "MIN_GUARANTEE_BPS",
      "outputs": [
        {
          "internalType": "uint256",
          "name": "",
          "type": "uint256"
        }
      ],
      "stateMutability": "view",
      "type": "function"
    },
    {
      "inputs": [],
      "name": "TIER1_BONUS",
      "outputs": [
        {
          "internalType": "uint256",
          "name": "",
          "type": "uint256"
        }
      ],
      "stateMutability": "view",
      "type": "function"
    },
    {
      "inputs": [],
      "name": "TIER1_THRESHOLD",
      "outputs": [
        {
          "internalType": "uint256",
          "name": "",
          "type": "uint256"
        }
      ],
      "stateMutability": "view",
      "type": "function"
    },
    {
      "inputs": [],
      "name": "TIER2_BONUS",
      "outputs": [
        {
          "internalType": "uint256",
          "name": "",
          "type": "uint256"
        }
      ],
      "stateMutability": "view",
      "type": "function"
    },
    {
      "inputs": [],
      "name": "TIER2_THRESHOLD",
      "outputs": [
        {
          "internalType": "uint256",
          "name": "",
          "type": "uint256"
        }
      ],
      "stateMutability": "view",
      "type": "function"
    },
    {
      "inputs": [
        {
          "internalType": "address",
          "name": "",
          "type": "address"
        }
      ],
      "name": "authorizedCoordinators",
      "outputs": [
        {
          "internalType": "bool",
          "name": "",
          "type": "bool"
        }
      ],
      "stateMutability": "view",
      "type": "function"
    },
    {
      "inputs": [
        {
          "internalType": "bytes32",
          "name": "_sessionId",
          "type": "bytes32"
        },
        {
          "internalType": "address[]",
          "name": "_nodeAddresses",
          "type": "address[]"
        },
        {
          "internalType": "uint256[]",
          "name": "_contributions",
          "type": "uint256[]"
        }
      ],
      "name": "calculateRewardsProportional",
      "outputs": [],
      "stateMutability": "nonpayable",
      "type": "function"
    },
    {
      "inputs": [
        {
          "internalType": "bytes32",
          "name": "_sessionId",
          "type": "bytes32"
        },
        {
          "internalType": "address[]",
          "name": "_nodeAddresses",
          "type": "address[]"
        },
        {
          "internalType": "uint256[]",
          "name": "_contributions",
          "type": "uint256[]"
        }
      ],
      "name": "calculateRewardsTiered",
      "outputs": [],
      "stateMutability": "nonpayable",
      "type": "function"
    },
    {
      "inputs": [
        {
          "internalType": "bytes32",
          "name": "_sessionId",
          "type": "bytes32"
        },
        {
          "internalType": "address[]",
          "name": "_nodeAddresses",
          "type": "address[]"
        },
        {
          "internalType": "uint256[]",
          "name": "_contributions",
          "type": "uint256[]"
        }
      ],
      "name": "calculateRewardsWithMinimum",
      "outputs": [],
      "stateMutability": "nonpayable",
      "type": "function"
    },
    {
      "inputs": [
        {
          "internalType": "bytes32",
          "name": "_sessionId",
          "type": "bytes32"
        }
      ],
      "name": "claimReward",
      "outputs": [],
      "stateMutability": "nonpayable",
      "type": "function"
    },
    {
      "inputs": [
        {
          "internalType": "bytes32[]",
          "name": "_sessionIds",
          "type": "bytes32[]"
        }
      ],
      "name": "claimRewardsBatch",
      "outputs": [],
      "stateMutability": "nonpayable",
      "type": "function"
    },
    {
      "inputs": [
        {
          "internalType": "bytes32",
          "name": "_sessionId",
          "type": "bytes32"
        },
        {
          "internalType": "uint256",
          "name": "_totalPool",
          "type": "uint256"
        },
        {
          "internalType": "enum RewardDistributor.RewardStrategy",
          "name": "_strategy",
          "type": "uint8"
        }
      ],
      "name": "createRewardPool",
      "outputs": [],
      "stateMutability": "payable",
      "type": "function"
    },
    {
      "inputs": [
        {
          "internalType": "bytes32",
          "name": "_sessionId",
          "type": "bytes32"
        }
      ],
      "name": "emergencyWithdraw",
      "outputs": [],
      "stateMutability": "nonpayable",
      "type": "function"
    },
    {
      "inputs": [
        {
          "internalType": "bytes32",
          "name": "_sessionId",
          "type": "bytes32"
        }
      ],
      "name": "finalizeRewardPool",
      "outputs": [],
      "stateMutability": "nonpayable",
      "type": "function"
    },
    {
      "inputs": [
        {
          "internalType": "bytes32",
          "name": "_sessionId",
          "type": "bytes32"
        },
        {
          "internalType": "address",
          "name": "_nodeAddress",
          "type": "address"
        }
      ],
      "name": "getPendingReward",
      "outputs": [
        {
          "internalType": "uint256",
          "name": "",
          "type": "uint256"
        }
      ],
      "stateMutability": "view",
      "type": "function"
    },
    {
      "inputs": [
        {
          "internalType": "bytes32",
          "name": "_sessionId",
          "type": "bytes32"
        }
      ],
      "name": "getRewardPool",
      "outputs": [
        {
          "components": [
            {
              "internalType": "bytes32",
              "name": "sessionId",
              "type": "bytes32"
            },
            {
              "internalType": "uint256",
              "name": "totalPool",
              "type": "uint256"
            },
            {
              "internalType": "uint256",
              "name": "distributed",
              "type": "uint256"
            },
            {
              "internalType": "uint256",
              "name": "claimed",
              "type": "uint256"
            },
            {
              "internalType": "enum RewardDistributor.RewardStrategy",
              "name": "strategy",
              "type": "uint8"
            },
            {
              "internalType": "uint96",
              "name": "calculatedAt",
              "type": "uint96"
            },
            {
              "internalType": "bool",
              "name": "finalized",
              "type": "bool"
            }
          ],
          "internalType": "struct RewardDistributor.RewardPool",
          "name": "",
          "type": "tuple"
        }
      ],
      "stateMutability": "view",
      "type": "function"
    },
    {
      "inputs": [
        {
          "internalType": "bytes32",
          "name": "_sessionId",
          "type": "bytes32"
        }
      ],
      "name": "getSessionRewardees",
      "outputs": [
        {
          "internalType": "address[]",
          "name": "",
          "type": "address[]"
        }
      ],
      "stateMutability": "view",
      "type": "function"
    },
    {
      "inputs": [
        {
          "internalType": "bytes32",
          "name": "",
          "type": "bytes32"
        },
        {
          "internalType": "address",
          "name": "",
          "type": "address"
        }
      ],
      "name": "nodeRewards",
      "outputs": [
        {
          "internalType": "address",
          "name": "nodeAddress",
          "type": "address"
        },
        {
          "internalType": "uint256",
          "name": "rewardAmount",
          "type": "uint256"
        },
        {
          "internalType": "uint96",
          "name": "calculatedAt",
          "type": "uint96"
        },
        {
          "internalType": "bool",
          "name": "claimed",
          "type": "bool"
        }
      ],
      "stateMutability": "view",
      "type": "function"
    },
    {
      "inputs": [],
      "name": "owner",
      "outputs": [
        {
          "internalType": "address",
          "name": "",
          "type": "address"
        }
      ],
      "stateMutability": "view",
      "type": "function"
    },
    {
      "inputs": [],
      "name": "pause",
      "outputs": [],
      "stateMutability": "nonpayable",
      "type": "function"
    },
    {
      "inputs": [],
      "name": "paused",
      "outputs": [
        {
          "internalType": "bool",
          "name": "",
          "type": "bool"
        }
      ],
      "stateMutability": "view",
      "type": "function"
    },
    {
      "inputs": [
        {
          "internalType": "address",
          "name": "",
          "type": "address"
        }
      ],
      "name": "pendingWithdrawals",
      "outputs": [
        {
          "internalType": "uint256",
          "name": "",
          "type": "uint256"
        }
      ],
      "stateMutability": "view",
      "type": "function"
    },
    {
      "inputs": [],
      "name": "renounceOwnership",
      "outputs": [],
      "stateMutability": "nonpayable",
      "type": "function"
    },
    {
      "inputs": [
        {
          "internalType": "bytes32",
          "name": "",
          "type": "bytes32"
        }
      ],
      "name": "rewardPools",
      "outputs": [
        {
          "internalType": "bytes32",
          "name": "sessionId",
          "type": "bytes32"
        },
        {
          "internalType": "uint256",
          "name": "totalPool",
          "type": "uint256"
        },
        {
          "internalType": "uint256",
          "name": "distributed",
          "type": "uint256"
        },
        {
          "internalType": "uint256",
          "name": "claimed",
          "type": "uint256"
        },
        {
          "internalType": "enum RewardDistributor.RewardStrategy",
          "name": "strategy",
          "type": "uint8"
        },
        {
          "internalType": "uint96",
          "name": "calculatedAt",
          "type": "uint96"
        },
        {
          "internalType": "bool",
          "name": "finalized",
          "type": "bool"
        }
      ],
      "stateMutability": "view",
      "type": "function"
    },
    {
      "inputs": [],
      "name": "rewardToken",
      "outputs": [
        {
          "internalType": "contract IERC20",
          "name": "",
          "type": "address"
        }
      ],
      "stateMutability": "view",
      "type": "function"
    },
    {
      "inputs": [
        {
          "internalType": "bytes32",
          "name": "",
          "type": "bytes32"
        },
        {
          "internalType": "uint256",
          "name": "",
          "type": "uint256"
        }
      ],
      "name": "sessionRewardees",
      "outputs": [
        {
          "internalType": "address",
          "name": "",
          "type": "address"
        }
      ],
      "stateMutability": "view",
      "type": "function"
    },
    {
      "inputs": [
        {
          "internalType": "address",
          "name": "_coordinator",
          "type": "address"
        },
        {
          "internalType": "bool",
          "name": "_status",
          "type": "bool"
        }
      ],
      "name": "setCoordinatorAuthorization",
      "outputs": [],
      "stateMutability": "nonpayable",
      "type": "function"
    },
    {
      "inputs": [
        {
          "internalType": "address",
          "name": "newOwner",
          "type": "address"
        }
      ],
      "name": "transferOwnership",
      "outputs": [],
      "stateMutability": "nonpayable",
      "type": "function"
    },
    {
      "inputs": [],
      "name": "unpause",
      "outputs": [],
      "stateMutability": "nonpayable",
      "type": "function"
    },
    {
      "inputs": [],
      "name": "useNativeToken",
      "outputs": [
        {
          "internalType": "bool",
          "name": "",
          "type": "bool"
        }
      ],
      "stateMutability": "view",
      "type": "function"
    },
    {
      "stateMutability": "payable",
      "type": "receive"
    }
  ],
  "bytecode": "0x6080346200018657601f620022f438819003918201601f1916830191906001600160401b038311848410176200018b57816060928592604095865283398101031262000186576200005082620001a1565b91816200006060208301620001a1565b910151801593841580920362000186576001600160a01b039081169081156200016e57600080546001600160a01b0319808216851783558751989296909490929184167f8be0079c531659141344cd1fd0a4f28419497f9722a3daafe3b4186f6b6457e08880a3600180556200010f575b6006805460ff60a01b191660a086901b60ff60a01b161790553385526007602052858520805460ff19166001179055855161213d9081620001b78239f35b169081156200012c578495506006541617600655388080620000d1565b62461bcd60e51b865260206004870152601560248701527f496e76616c696420746f6b656e206164647265737300000000000000000000006044870152606486fd5b8451631e4fbdf760e01b815260006004820152602490fd5b600080fd5b634e487b7160e01b600052604160045260246000fd5b51906001600160a01b0382168203620001865756fe608080604052600436101561001d575b50361561001b57600080fd5b005b60003560e01c908163086d2c8714611aea575080630b878aa6146119ea5780632073de5c146119695780632beaa07d1461160e578063396cde4c1461124b5780633a6f85b11461122e5780633c2fb9291461105e5780633e3ee1e214610f5f5780633f4ba83a14610eed5780635414c64914610e225780635c975abb14610dfc578063618e9de114610d83578063642ce35514610454578063674e1d4514610d4457806369608a3114610d16578063715018a614610cbd57806375870d6514610ba45780637711681414610aec5780637f792c791461081d5780638232697a146107f75780638456cb59146107955780638da5cb5b1461076c578063a571f40b1461071a578063c1927292146106fd578063c5856aa714610459578063dc29b8f814610454578063f2fde38b146103cb578063f3f4370314610391578063f5414023146101a25763f7c618c114610174573861000f565b3461019d57600036600319011261019d576006546040516001600160a01b039091168152602090f35b600080fd5b3461019d5760208060031936011261019d576004356101bf612055565b6101c7611d7c565b80600052600382526040600020336000528252604060002091600183015492831561035757600201805460ff8160601c1661032057336000526005835284604060002054106102e45760ff60601b1916600160601b17905533600090815260058252604090208054600292919061023f908690611f5a565b905582600052526003604060002001610259838254611e87565b90556006548260ff8260a01c166000146102cb576102899150600080808093335af1610283611f93565b50611fd3565b604080519283526001600160601b034216602084015233927fe3e7ff31fafbbcfbfa53d48ee00511265329ad66b8ea94efb4117f9e4e709de69190a360018055005b6102df9133906001600160a01b0316612015565b610289565b60405162461bcd60e51b8152600481018490526014602482015273496e73756666696369656e742062616c616e636560601b6044820152606490fd5b60405162461bcd60e51b815260048101849052600f60248201526e105b1c9958591e4818db185a5b5959608a1b6044820152606490fd5b60405162461bcd60e51b81526004810183905260126024820152714e6f2072657761726420746f20636c61696d60701b6044820152606490fd5b3461019d57602036600319011261019d576001600160a01b036103b2611ba9565b1660005260056020526020604060002054604051908152f35b3461019d57602036600319011261019d576103e4611ba9565b6103ec611c20565b6001600160a01b0390811690811561043b57600054826001600160601b0360a01b821617600055167f8be0079c531659141344cd1fd0a4f28419497f9722a3daafe3b4186f6b6457e0600080a3005b604051631e4fbdf760e01b815260006004820152602490fd5b611bd5565b3461019d5761046736611b59565b9290919233600052600760205260ff6040600020541680156106e9575b6104919093919293611c4c565b610499611d7c565b8460005260026020526040600020916104b760018401541515611d9d565b6104cb60ff600485015460681c1615611ddf565b6104d6818614611e24565b60009360005b8281106106bc57506104ef851515611e94565b6000946000935b8785106105485760028601879055600486018054610100600160681b0319164260081b610100600160681b0316179055886000805160206120e883398151915260408a8a5b82519182526020820152a2005b90919293956106ad6106b3916105778561057260018b015461056b8d8c8a611e77565b3590611ed3565b611ee6565b906106518a8d8d8a6105e9610593610598610593878686611e77565b611f06565b95604051966105a688611cca565b60018060a01b031687528960208801526001600160601b0342166040880152606087019560008752600052600360205260406000209460018060a01b0394611e77565b166000526020526001600160601b03604060028160002060018060a01b038651168460a01b8254161781556020860151600182015501930151166001600160601b031983541617825551151581549060ff60601b90151560601b169060ff60601b1916179055565b8b60005260046020526106778b6106716105938d6040600020938c611e77565b90611f1a565b6001600160a01b0361068d6105938c8e8b611e77565b16600052600560205260406000206106a6838254611e87565b9055611e87565b96611e68565b939291906104f6565b909192946106d96106df916106d284878a611e77565b3590611e87565b91611e68565b94929190946104dc565b506000546001600160a01b03163314610484565b3461019d57600036600319011261019d5760206040516105dc8152f35b3461019d57604036600319011261019d5760243560043560005260046020526040600020805482101561019d5760209161075391611bf2565b905460405160039290921b1c6001600160a01b03168152f35b3461019d57600036600319011261019d576000546040516001600160a01b039091168152602090f35b3461019d57600036600319011261019d576107ae611c20565b6107b6611d7c565b6000805460ff60a01b1916600160a01b1790556040513381527f62e78cea01bee320cd4e420270b5ea74000d11b0c9f74754ebdbfc544b05a25890602090a1005b3461019d57600036600319011261019d57602060ff60065460a01c166040519015158152f35b606036600319011261019d576004356024803590604435600481101561019d573360005260206007815260ff604060002054168015610ad8575b61086090611c4c565b610868611d7c565b8460005260028152600160406000200154610a9f578315610a665760065460ff8160a01c166000146109fa57508334036109c0575b6040516108a981611c98565b858152818101858152604082019460008652600460608401936000855260808101946108d58887611d08565b60a082019860008a5260c0830195600087528c600052600289526040600020935184555160018401555160028301555160038201550192519060048210156109ac575082549551915160ff60681b90151560681b166dffffffffffffffffffffffffffff1990961660ff9190911617610100600160681b0360089290921b9190911617939093179092556040519283527f46b79013b8e13b017e42c87777dc5bfd1158aeba1183af138afb1ffcca35acab9260609290916001600160601b03916109a29190840190611b05565b42166040820152a2005b634e487b7160e01b60009081526021600452fd5b6064906014846040519262461bcd60e51b8452600484015282015273125b98dbdc9c9958dd0811551208185b5bdd5b9d60621b6044820152fd5b6040516323b872dd60e01b838201523385820152306044820152606480820187905281529060a0820167ffffffffffffffff811183821017610a5157604052610a4c91906001600160a01b0316611d14565b61089d565b85634e487b7160e01b60005260416004526000fd5b6064906013846040519262461bcd60e51b8452600484015282015272125b9d985b1a59081c1bdbdb08185b5bdd5b9d606a1b6044820152fd5b6064906013846040519262461bcd60e51b8452600484015282015272506f6f6c20616c72656164792065786973747360681b6044820152fd5b506000546001600160a01b03163314610857565b3461019d5760208060031936011261019d5760043560005260048152604060002060405190818382549182815201908192600052846000209060005b86828210610b87578686610b3e82880383611ce6565b604051928392818401908285525180915260408401929160005b828110610b6757505050500390f35b83516001600160a01b031685528695509381019392810192600101610b58565b83546001600160a01b031685529093019260019283019201610b28565b3461019d57602036600319011261019d57610bbd611c20565b6004356000526002602052604060002060ff600482015460681c1615610c835760036002820154910190610bf2825482611f5a565b918215610c47575560065460ff8160a01c16600014610c2d57506000805461001b928291829182916001600160a01b03165af1610283611f93565b60005461001b92916001600160a01b039182169116612015565b60405162461bcd60e51b81526020600482015260146024820152734e6f20756e636c61696d6564207265776172647360601b6044820152606490fd5b60405162461bcd60e51b8152602060048201526012602482015271141bdbdb081b9bdd08199a5b985b1a5e995960721b6044820152606490fd5b3461019d57600036600319011261019d57610cd6611c20565b600080546001600160a01b0319811682556001600160a01b03167f8be0079c531659141344cd1fd0a4f28419497f9722a3daafe3b4186f6b6457e08280a3005b3461019d57604036600319011261019d576020610d3c610d34611bbf565b600435612078565b604051908152f35b3461019d57602036600319011261019d576001600160a01b03610d65611ba9565b166000526007602052602060ff604060002054166040519015158152f35b3461019d57604036600319011261019d576080610d9e611bbf565b6004356000526003602052604060002060018060a01b0380921660005260205260ff60406000209182541691600260018201549101549060405193845260208401526001600160601b038116604084015260601c1615156060820152f35b3461019d57600036600319011261019d57602060ff60005460a01c166040519015158152f35b3461019d57604036600319011261019d57610e3b611ba9565b6024359081151580920361019d57610e51611c20565b6001600160a01b0316908115610ea85760207fa755b73ca9ab5908508aef0b2cde25ffc1caf1b79f4833e57436d517461ca6be918360005260078252604060002060ff1981541660ff8316179055604051908152a2005b60405162461bcd60e51b815260206004820152601b60248201527f496e76616c696420636f6f7264696e61746f72206164647265737300000000006044820152606490fd5b3461019d57600036600319011261019d57610f06611c20565b60005460ff8160a01c1615610f4d5760ff60a01b19166000556040513381527f5db9ee0a495bf2e6ff9c91a7834c1ba4fdd244a5e8aa4e537bd38aeae4b073aa90602090a1005b604051638dfc202b60e01b8152600490fd5b3461019d57602036600319011261019d5760043533600052600760205260ff60406000205416801561104a575b610f9590611c4c565b8060005260026020526040600020610fb260018201541515611d9d565b600481019081549060ff8260681c16611011577f026993294d21da9a39c4b79f6a7a0eca9b79a3a37bb70eae271d40f34541d80a92604092600160681b9060ff60681b19161790556003600282015491015482519182526020820152a2005b60405162461bcd60e51b8152602060048201526011602482015270105b1c9958591e48199a5b985b1a5e9959607a1b6044820152606490fd5b506000546001600160a01b03163314610f8c565b3461019d5760208060031936011261019d5760043567ffffffffffffffff811161019d57611090903690600401611b28565b919061109a612055565b6110a2611d7c565b60009260005b8181106111395750505081156110ff575060065460ff8160a01c166000146110e5575060008080806110df94335af1610283611f93565b60018055005b6110fa919033906001600160a01b0316612015565b6110df565b6064906040519062461bcd60e51b8252600482015260136024820152724e6f207265776172647320746f20636c61696d60681b6044820152fd5b611144818385611e77565b3580600052600380865260406000203360005286526040600020906001820154918215158061121c575b611185575b5050505061118090611e68565b6110a8565b6111809493986111d49284926002809101600160601b60ff60601b1982541617905560058b5260406000206111bb858254611f5a565b90558b6000528a526040600020016106a6838254611e87565b604080519283526001600160601b03421660208401529097339290917fe3e7ff31fafbbcfbfa53d48ee00511265329ad66b8ea94efb4117f9e4e709de691a390868080611173565b5060ff600282015460601c161561116e565b3461019d57600036600319011261019d5760206040516101f48152f35b3461019d5761125936611b59565b9290919233600052600760205260ff6040600020541680156115fa575b61127f90611c4c565b611287611d7c565b8460005260026020526040600020916001830154936112a7851515611d9d565b6112bb60ff600486015460681c1615611ddf565b6112c6838714611e24565b60009260005b8781106115dc57506112df841515611e94565b6112e98787611ee6565b91611388928381029381850414901517156115c65761130788611f67565b946113156040519687611ce6565b888652601f196113248a611f67565b0136602088013760009760009360005b8b811061155957505050505060009580151560001461142f576113579088611f5a565b80156114235761136691611ee6565b9291905b6000935b8785106113bc5750505050509160409161053b6000805160206120e8833981519152945b600281018390556004018054610100600160681b0319164260081b610100600160681b0316179055565b90919293956106ad6114009161271085046113d78a89611f7f565b511015611409576127108504905b6106518a8d8d8a6105e9610593610598610593878686611e77565b9392919061136e565b61141d846114178b8a611f7f565b51611f5a565b906113e5565b5050600092919061136a565b50505094939291906000905b8482106114635750506000805160206120e88339815191529394509061053b60409392611392565b909261154d611553916114e061147d610593888a8d611e77565b6114878887611f7f565b516040519161149583611cca565b60018060a01b0316825260208201526001600160601b034216604082015260608101600081528a6000526003602052898c6105e96105938c60406000209460018060a01b0394611e77565b87600052600460205261150089610671610593898b604060002094611e77565b61150a8685611f7f565b516001600160a01b03611521610593898b8e611e77565b16600052600560205261153a6040600020918254611e87565b90556115468685611f7f565b5190611e87565b93611e68565b9061143b565b6115728461057261156b84868a611e77565b3586611ed3565b8061157d838c611f7f565b5261271088048110611599575b5061159490611e68565b611334565b9a61159491966115b96115ae6115bf93611e68565b9d6127108b04611f5a565b90611e87565b959061158a565b634e487b7160e01b600052601160045260246000fd5b936115ef6115f5916106d2878587611e77565b94611e68565b6112cc565b506000546001600160a01b03163314611276565b3461019d5761161c36611b59565b91929033600052600760205260ff604060002054168015611955575b61164190611c4c565b611649611d7c565b846000526002602052604060002091600183015490611669821515611d9d565b61167d60ff600486015460681c1615611ddf565b611688858714611e24565b60009260005b87811061193d57506116a1841515611e94565b61138890871591888181020481148317156115c657611f40928984810204841417156115c6576000978561213481020461213414861517156115c6576116f561271061213488979695949998020486611f5a565b906000975b8c8c8a106117435760028b018c905560048b018054610100600160681b0319164260081b610100600160681b03161790556000805160206120e883398151915260408e8e61053b565b8c90878b611776819f95969798999a9b9c610572819f8f9061213461176d8f928e61271094611e77565b35920204611ed3565b9360006127108883020483101561189b5750505050506105dc85818102048114861517156115c6576117b6906117ad8e878a611e77565b35908702611ed3565b908a612710810204612710148b1517156115c65761188e928f918f8f610593908f926117f28f956115b96118889a61271061068d980290611ee6565b9661185c61180461059385858a611e77565b6040519061181182611cca565b60018060a01b031681528960208201526001600160601b034216604082015260608101600081528360005260036020526040600020896105e9610593898960018060a01b0394611e77565b600052600460205261187a604060002061067161059385858a611e77565b6001600160a01b0394611e77565b9a611e68565b97969594939291906116fa565b90919293946127108c84020484106118c9575b61188e96936118889695936117f261068d9461059394611e87565b9450505050506101f485818102048114861517156115c6576118f0906117ad8e878a611e77565b908a612710810204612710148b1517156115c65761188e928f918f8f610593908f926117f28f9561192c6118889a61271061068d980290611ee6565b9550935050939596509396506118ae565b936115ef611950916106d2878a86611e77565b61168e565b506000546001600160a01b03163314611638565b3461019d57602036600319011261019d57600435600052600260205260e0604060002060ff815491600181015490600281015460046003830154920154926040519586526020860152604085015260608401526119cb60808401838316611b05565b6001600160601b038160081c1660a084015260681c16151560c0820152f35b3461019d57602036600319011261019d57600060c0604051611a0b81611c98565b8281528260208201528260408201528260608201528260808201528260a08201520152600435600052600260205260e0604060002060405190611a4d82611c98565b80548252600181015460208301908152600282015460408401908152611ad96004600385015494606087019586520154936080860190611a9060ff871683611d08565b60a08701936001600160601b0395868860081c16865260ff60c08a019860681c161515885260405198518952516020890152516040880152516060870152516080860190611b05565b511660a083015251151560c0820152f35b3461019d57600036600319011261019d5780611f4060209252f35b906004821015611b125752565b634e487b7160e01b600052602160045260246000fd5b9181601f8401121561019d5782359167ffffffffffffffff831161019d576020808501948460051b01011161019d57565b90606060031983011261019d576004359167ffffffffffffffff9160243583811161019d5782611b8b91600401611b28565b9390939260443591821161019d57611ba591600401611b28565b9091565b600435906001600160a01b038216820361019d57565b602435906001600160a01b038216820361019d57565b3461019d57600036600319011261019d5760206040516113888152f35b8054821015611c0a5760005260206000200190600090565b634e487b7160e01b600052603260045260246000fd5b6000546001600160a01b03163303611c3457565b60405163118cdaa760e01b8152336004820152602490fd5b15611c5357565b60405162461bcd60e51b815260206004820152601a60248201527f4e6f7420617574686f72697a656420636f6f7264696e61746f720000000000006044820152606490fd5b60e0810190811067ffffffffffffffff821117611cb457604052565b634e487b7160e01b600052604160045260246000fd5b6080810190811067ffffffffffffffff821117611cb457604052565b90601f8019910116810190811067ffffffffffffffff821117611cb457604052565b6004821015611b125752565b906000602091828151910182855af115611d70576000513d611d6757506001600160a01b0381163b155b611d455750565b604051635274afe760e01b81526001600160a01b039091166004820152602490fd5b60011415611d3e565b6040513d6000823e3d90fd5b60ff60005460a01c16611d8b57565b60405163d93c066560e01b8152600490fd5b15611da457565b60405162461bcd60e51b8152602060048201526013602482015272141bdbdb08191bd95cc81b9bdd08195e1a5cdd606a1b6044820152606490fd5b15611de657565b60405162461bcd60e51b8152602060048201526016602482015275141bdbdb08185b1c9958591e48199a5b985b1a5e995960521b6044820152606490fd5b15611e2b57565b60405162461bcd60e51b8152602060048201526015602482015274082e4e4c2f240d8cadccee8d040dad2e6dac2e8c6d605b1b6044820152606490fd5b60001981146115c65760010190565b9190811015611c0a5760051b0190565b919082018092116115c657565b15611e9b57565b60405162461bcd60e51b815260206004820152601060248201526f4e6f20636f6e747269627574696f6e7360801b6044820152606490fd5b818102929181159184041417156115c657565b8115611ef0570490565b634e487b7160e01b600052601260045260246000fd5b356001600160a01b038116810361019d5790565b805468010000000000000000811015611cb457611f3c91600182018155611bf2565b819291549060031b9160018060a01b03809116831b921b1916179055565b919082039182116115c657565b67ffffffffffffffff8111611cb45760051b60200190565b8051821015611c0a5760209160051b010190565b3d15611fce573d9067ffffffffffffffff8211611cb45760405191611fc2601f8201601f191660200184611ce6565b82523d6000602084013e565b606090565b15611fda57565b60405162461bcd60e51b8152602060048201526013602482015272115512081d1c985b9cd9995c8819985a5b1959606a1b6044820152606490fd5b60405163a9059cbb60e01b60208201526001600160a01b0390921660248301526044808301939093529181526120539161204e82611cca565b611d14565b565b600260015414612066576002600155565b604051633ee5aeb560e01b8152600490fd5b6000526003602052604060002060018060a01b038092166000526020526060604060002091604051906120aa82611cca565b835416815260ff600260018501549485602085015201546001600160601b0381166040840152831c16151591829101526120e15790565b5060009056fe4c75100ff212548456a887c7e9a8355f2eceb966a044eaf82e1b2a3e182c0b03a2646970667358221220c4d7bc22854d574b2f681f0b3e4920ee01141fb215bd7d89ba6d7d330261fbe164736f6c63430008140033",
  "linkReferences": {},
  "deployedLinkReferences": {}
}