{
  "_format": "hh-sol-artifact-1",
  "contractName": "ContributionTracker",
  "sourceName": "contracts/ContributionTracker.sol",
  "abi": [
    {
      "inputs": [
        {
          "internalType": "address",
          "name": "initialOwner",
          "type": "address"
        }
      ],
      "stateMutability": "nonpayable",
      "type": "constructor"
    },
    {
      "inputs": [],
      "name": "EnforcedPause",
      "type": "error"
    },
    {
      "inputs": [],
      "name": "ExpectedPause",
      "type": "error"
    },
    {
      "inputs": [
        {
          "internalType": "address",
          "name": "owner",
          "type": "address"
        }
      ],
      "name": "OwnableInvalidOwner",
      "type": "error"
    },
    {
      "inputs": [
        {
          "internalType": "address",
          "name": "account",
          "type": "address"
        }
      ],
      "name": "OwnableUnauthorizedAccount",
      "type": "error"
    },
    {
      "inputs": [],
      "name": "ReentrancyGuardReentrantCall",
      "type": "error"
    },
    {
      "anonymous": false,
      "inputs": [
        {
          "indexed": true,
          "internalType": "bytes32",
          "name": "sessionId",
          "type": "bytes32"
        },
        {
          "indexed": false,
          "internalType": "uint256",
          "name": "nodeCount",
          "type": "uint256"
        },
        {
          "indexed": false,
          "internalType": "uint96",
          "name": "timestamp",
          "type": "uint96"
        }
      ],
      "name": "BatchContributionRecorded",
      "type": "event"
    },
    {
      "anonymous": false,
      "inputs": [
        {
          "indexed": true,
          "internalType": "bytes32",
          "name": "sessionId",
          "type": "bytes32"
        },
        {
          "indexed": true,
          "internalType": "address",
          "name": "nodeAddress",
          "type": "address"
        },
        {
          "indexed": false,
          "internalType": "uint96",
          "name": "computeTime",
          "type": "uint96"
        },
        {
          "indexed": false,
          "internalType": "uint32",
          "name": "gradientsAccepted",
          "type": "uint32"
        },
        {
          "indexed": false,
          "internalType": "uint32",
          "name": "successfulRounds",
          "type": "uint32"
        },
        {
          "indexed": false,
          "internalType": "uint32",
          "name": "qualityScore",
          "type": "uint32"
        }
      ],
      "name": "ContributionRecorded",
      "type": "event"
    },
    {
      "anonymous": false,
      "inputs": [
        {
          "indexed": true,
          "internalType": "address",
          "name": "coordinator",
          "type": "address"
        },
        {
          "indexed": false,
          "internalType": "bool",
          "name": "status",
          "type": "bool"
        }
      ],
      "name": "CoordinatorAuthorized",
      "type": "event"
    },
    {
      "anonymous": false,
      "inputs": [
        {
          "indexed": true,
          "internalType": "address",
          "name": "previousOwner",
          "type": "address"
        },
        {
          "indexed": true,
          "internalType": "address",
          "name": "newOwner",
          "type": "address"
        }
      ],
      "name": "OwnershipTransferred",
      "type": "event"
    },
    {
      "anonymous": false,
      "inputs": [
        {
          "indexed": false,
          "internalType": "address",
          "name": "account",
          "type": "address"
        }
      ],
      "name": "Paused",
      "type": "event"
    },
    {
      "anonymous": false,
      "inputs": [
        {
          "indexed": false,
          "internalType": "address",
          "name": "account",
          "type": "address"
        }
      ],
      "name": "Unpaused",
      "type": "event"
    },
    {
      "inputs": [
        {
          "internalType": "address",
          "name": "",
          "type": "address"
        }
      ],
      "name": "authorizedCoordinators",
      "outputs": [
        {
          "internalType": "bool",
          "name": "",
          "type": "bool"
        }
      ],
      "stateMutability": "view",
      "type": "function"
    },
    {
      "inputs": [
        {
          "internalType": "bytes32",
          "name": "",
          "type": "bytes32"
        },
        {
          "internalType": "address",
          "name": "",
          "type": "address"
        }
      ],
      "name": "contributions",
      "outputs": [
        {
          "internalType": "uint96",
          "name": "computeTime",
          "type": "uint96"
        },
        {
          "internalType": "uint32",
          "name": "gradientsAccepted",
          "type": "uint32"
        },
        {
          "internalType": "uint32",
          "name": "successfulRounds",
          "type": "uint32"
        },
        {
          "internalType": "uint32",
          "name": "qualityScore",
          "type": "uint32"
        },
        {
          "internalType": "uint96",
          "name": "lastUpdated",
          "type": "uint96"
        }
      ],
      "stateMutability": "view",
      "type": "function"
    },
    {
      "inputs": [
        {
          "internalType": "bytes32",
          "name": "_sessionId",
          "type": "bytes32"
        },
        {
          "internalType": "address",
          "name": "_nodeAddress",
          "type": "address"
        }
      ],
      "name": "getContribution",
      "outputs": [
        {
          "components": [
            {
              "internalType": "uint96",
              "name": "computeTime",
              "type": "uint96"
            },
            {
              "internalType": "uint32",
              "name": "gradientsAccepted",
              "type": "uint32"
            },
            {
              "internalType": "uint32",
              "name": "successfulRounds",
              "type": "uint32"
            },
            {
              "internalType": "uint32",
              "name": "qualityScore",
              "type": "uint32"
            },
            {
              "internalType": "uint96",
              "name": "lastUpdated",
              "type": "uint96"
            }
          ],
          "internalType": "struct ContributionTracker.Contribution",
          "name": "",
          "type": "tuple"
        }
      ],
      "stateMutability": "view",
      "type": "function"
    },
    {
      "inputs": [
        {
          "internalType": "bytes32",
          "name": "_sessionId",
          "type": "bytes32"
        },
        {
          "internalType": "address",
          "name": "_nodeAddress",
          "type": "address"
        }
      ],
      "name": "getContributionPercentage",
      "outputs": [
        {
          "internalType": "uint256",
          "name": "",
          "type": "uint256"
        }
      ],
      "stateMutability": "view",
      "type": "function"
    },
    {
      "inputs": [
        {
          "internalType": "bytes32",
          "name": "_sessionId",
          "type": "bytes32"
        },
        {
          "internalType": "address[]",
          "name": "_nodeAddresses",
          "type": "address[]"
        }
      ],
      "name": "getContributionsBatch",
      "outputs": [
        {
          "components": [
            {
              "internalType": "uint96",
              "name": "computeTime",
              "type": "uint96"
            },
            {
              "internalType": "uint32",
              "name": "gradientsAccepted",
              "type": "uint32"
            },
            {
              "internalType": "uint32",
              "name": "successfulRounds",
              "type": "uint32"
            },
            {
              "internalType": "uint32",
              "name": "qualityScore",
              "type": "uint32"
            },
            {
              "internalType": "uint96",
              "name": "lastUpdated",
              "type": "uint96"
            }
          ],
          "internalType": "struct ContributionTracker.Contribution[]",
          "name": "",
          "type": "tuple[]"
        }
      ],
      "stateMutability": "view",
      "type": "function"
    },
    {
      "inputs": [
        {
          "internalType": "bytes32",
          "name": "_sessionId",
          "type": "bytes32"
        }
      ],
      "name": "getSessionContributors",
      "outputs": [
        {
          "internalType": "address[]",
          "name": "",
          "type": "address[]"
        }
      ],
      "stateMutability": "view",
      "type": "function"
    },
    {
      "inputs": [
        {
          "internalType": "bytes32",
          "name": "_sessionId",
          "type": "bytes32"
        }
      ],
      "name": "getSessionTotal",
      "outputs": [
        {
          "components": [
            {
              "internalType": "uint96",
              "name": "totalComputeTime",
              "type": "uint96"
            },
            {
              "internalType": "uint32",
              "name": "totalGradients",
              "type": "uint32"
            },
            {
              "internalType": "uint32",
              "name": "totalRounds",
              "type": "uint32"
            },
            {
              "internalType": "uint32",
              "name": "participantCount",
              "type": "uint32"
            }
          ],
          "internalType": "struct ContributionTracker.SessionContribution",
          "name": "",
          "type": "tuple"
        }
      ],
      "stateMutability": "view",
      "type": "function"
    },
    {
      "inputs": [
        {
          "internalType": "bytes32",
          "name": "",
          "type": "bytes32"
        },
        {
          "internalType": "address",
          "name": "",
          "type": "address"
        }
      ],
      "name": "hasContributed",
      "outputs": [
        {
          "internalType": "bool",
          "name": "",
          "type": "bool"
        }
      ],
      "stateMutability": "view",
      "type": "function"
    },
    {
      "inputs": [],
      "name": "owner",
      "outputs": [
        {
          "internalType": "address",
          "name": "",
          "type": "address"
        }
      ],
      "stateMutability": "view",
      "type": "function"
    },
    {
      "inputs": [],
      "name": "pause",
      "outputs": [],
      "stateMutability": "nonpayable",
      "type": "function"
    },
    {
      "inputs": [],
      "name": "paused",
      "outputs": [
        {
          "internalType": "bool",
          "name": "",
          "type": "bool"
        }
      ],
      "stateMutability": "view",
      "type": "function"
    },
    {
      "inputs": [
        {
          "internalType": "bytes32",
          "name": "_sessionId",
          "type": "bytes32"
        },
        {
          "internalType": "address",
          "name": "_nodeAddress",
          "type": "address"
        },
        {
          "internalType": "uint96",
          "name": "_computeTime",
          "type": "uint96"
        },
        {
          "internalType": "uint32",
          "name": "_gradientsAccepted",
          "type": "uint32"
        },
        {
          "internalType": "uint32",
          "name": "_successfulRounds",
          "type": "uint32"
        },
        {
          "internalType": "uint32",
          "name": "_qualityScore",
          "type": "uint32"
        }
      ],
      "name": "recordContribution",
      "outputs": [],
      "stateMutability": "nonpayable",
      "type": "function"
    },
    {
      "inputs": [
        {
          "internalType": "bytes32",
          "name": "_sessionId",
          "type": "bytes32"
        },
        {
          "internalType": "address[]",
          "name": "_nodeAddresses",
          "type": "address[]"
        },
        {
          "internalType": "uint96[]",
          "name": "_computeTimes",
          "type": "uint96[]"
        },
        {
          "internalType": "uint32[]",
          "name": "_gradientsAccepted",
          "type": "uint32[]"
        },
        {
          "internalType": "uint32[]",
          "name": "_successfulRounds",
          "type": "uint32[]"
        },
        {
          "internalType": "uint32[]",
          "name": "_qualityScores",
          "type": "uint32[]"
        }
      ],
      "name": "recordContributionsBatch",
      "outputs": [],
      "stateMutability": "nonpayable",
      "type": "function"
    },
    {
      "inputs": [],
      "name": "renounceOwnership",
      "outputs": [],
      "stateMutability": "nonpayable",
      "type": "function"
    },
    {
      "inputs": [
        {
          "internalType": "bytes32",
          "name": "",
          "type": "bytes32"
        },
        {
          "internalType": "uint256",
          "name": "",
          "type": "uint256"
        }
      ],
      "name": "sessionContributors",
      "outputs": [
        {
          "internalType": "address",
          "name": "",
          "type": "address"
        }
      ],
      "stateMutability": "view",
      "type": "function"
    },
    {
      "inputs": [
        {
          "internalType": "bytes32",
          "name": "",
          "type": "bytes32"
        }
      ],
      "name": "sessionTotals",
      "outputs": [
        {
          "internalType": "uint96",
          "name": "totalComputeTime",
          "type": "uint96"
        },
        {
          "internalType": "uint32",
          "name": "totalGradients",
          "type": "uint32"
        },
        {
          "internalType": "uint32",
          "name": "totalRounds",
          "type": "uint32"
        },
        {
          "internalType": "uint32",
          "name": "participantCount",
          "type": "uint32"
        }
      ],
      "stateMutability": "view",
      "type": "function"
    },
    {
      "inputs": [
        {
          "internalType": "address",
          "name": "_coordinator",
          "type": "address"
        },
        {
          "internalType": "bool",
          "name": "_status",
          "type": "bool"
        }
      ],
      "name": "setCoordinatorAuthorization",
      "outputs": [],
      "stateMutability": "nonpayable",
      "type": "function"
    },
    {
      "inputs": [
        {
          "internalType": "address",
          "name": "newOwner",
          "type": "address"
        }
      ],
      "name": "transferOwnership",
      "outputs": [],
      "stateMutability": "nonpayable",
      "type": "function"
    },
    {
      "inputs": [],
      "name": "unpause",
      "outputs": [],
      "stateMutability": "nonpayable",
      "type": "function"
    }
  ],
  "bytecode": "0x6080346100d657601f61187838819003918201601f19168301916001600160401b038311848410176100db578084926020946040528339810103126100d657516001600160a01b0390818116908190036100d65780156100bd57600080546001600160a01b03198116831782556040805194909391167f8be0079c531659141344cd1fd0a4f28419497f9722a3daafe3b4186f6b6457e08380a360018055338152600660205220600160ff1982541617905561178690816100f28239f35b604051631e4fbdf760e01b815260006004820152602490fd5b600080fd5b634e487b7160e01b600052604160045260246000fdfe608080604052600436101561001357600080fd5b60003560e01c9081631ac44b95146111e6575080633f4ba83a1461117457806352269f3a14611122578063531cc84714610b355780635414c64914610a6a578063575adac9146108f05780635c975abb146108ca5780636693643f14610827578063674e1d45146107e8578063715018a61461078f5780638042c16c146106d75780638456cb59146106755780638da5cb5b1461064c578063cc5ec54a146105a2578063d57e39ef14610574578063d8a3950e14610527578063e1e96745146104d0578063f2fde38b146104475763f31922ee146100f057600080fd5b346104425760c036600319011261044257610109611268565b6001600160601b0360443516604435036104425763ffffffff60643516606435036104425763ffffffff60843516608435036104425763ffffffff60a4351660a435036104425733600052600660205260ff60406000205416801561042e575b61017290611392565b61017a611521565b61018e6001600160a01b03821615156113de565b6101a461271063ffffffff60a435161115611421565b60043560008181526005602090815260408083206001600160a01b0386168085529083528184205494845260028352818420908452909152902080549160ff1615906001906102486102286001600160601b0361020560443582891661146d565b166001600160601b03198097161780845563ffffffff6064359160601c1661149e565b825463ffffffff60601b191660609190911b63ffffffff60601b16178255565b61028161026160843563ffffffff845460801c1661149e565b825463ffffffff60801b191660809190911b63ffffffff60801b16178255565b805463ffffffff60a01b191660a43560a01b63ffffffff60a01b16178155016001600160601b03421683825416179055600435600052600360205261031a6102fa6040600020938454906001600160601b036102e160443582851661146d565b1691161780855563ffffffff6064359160601c1661149e565b835463ffffffff60601b191660609190911b63ffffffff60601b16178355565b61035361033360843563ffffffff855460801c1661149e565b835463ffffffff60801b191660809190911b63ffffffff60801b16178355565b6103a9575b506040516001600160a01b0390911690600435907f33595b97d9534ad768a7d3ee9a34e23be3c0c6dd3e52c78c96c3c6032798d99c90806103a460a43560843560643560443585611336565b0390a3005b610428906004356000526005602052604060002060018060a01b0384166000526020526040600020600160ff1982541617905560043560005260046020526103f58360406000206114b6565b61040863ffffffff825460a01c1661150c565b815463ffffffff60a01b191660a09190911b63ffffffff60a01b16179055565b38610358565b506000546001600160a01b03163314610169565b600080fd5b346104425760203660031901126104425761046061127e565b610468611366565b6001600160a01b039081169081156104b757600054826001600160601b0360a01b821617600055167f8be0079c531659141344cd1fd0a4f28419497f9722a3daafe3b4186f6b6457e0600080a3005b604051631e4fbdf760e01b815260006004820152602490fd5b3461044257602036600319011261044257600435600052600360205261052360406000205460405191829163ffffffff808260a01c16916001600160601b03828260801c16928260601c16911685611336565b0390f35b3461044257604036600319011261044257610540611268565b600435600052600560205260406000209060018060a01b0316600052602052602060ff604060002054166040519015158152f35b3461044257604036600319011261044257602061059a610592611268565b60043561164b565b604051908152f35b3461044257602036600319011261044257600060606040516105c3816115b6565b8281528260208201528260408201520152600435600052600360205260806040600020604051906105f3826115b6565b54906001600160601b038216918282526020820163ffffffff92838092818560601c168152816060604085019482888c1c168652019560a01c168552604051968752511660208601525116604084015251166060820152f35b34610442576000366003190112610442576000546040516001600160a01b039091168152602090f35b346104425760003660031901126104425761068e611366565b610696611521565b6000805460ff60a01b1916600160a01b1790556040513381527f62e78cea01bee320cd4e420270b5ea74000d11b0c9f74754ebdbfc544b05a25890602090a1005b34610442576020806003193601126104425760043560005260048152604060002060405190818382549182815201908192600052846000209060005b86828210610772578686610729828803836115d2565b604051928392818401908285525180915260408401929160005b82811061075257505050500390f35b83516001600160a01b031685528695509381019392810192600101610743565b83546001600160a01b031685529093019260019283019201610713565b34610442576000366003190112610442576107a8611366565b600080546001600160a01b0319811682556001600160a01b03167f8be0079c531659141344cd1fd0a4f28419497f9722a3daafe3b4186f6b6457e08280a3005b34610442576020366003190112610442576001600160a01b0361080961127e565b166000526006602052602060ff604060002054166040519015158152f35b3461044257604036600319011261044257610840611268565b6108486115f4565b50600435600052600260205260406000209060018060a01b031660005260205260a060406000206040519061087c8261159a565b60018154916001600160601b0392838116855263ffffffff90818160601c166020870152818160801c166040870152861c16606085015201541660808201526108c860405180926112f3565bf35b3461044257600036600319011261044257602060ff60005460a01c166040519015158152f35b346104425760403660031901126104425760043560243567ffffffffffffffff8111610442576109249036906004016112c2565b919061092f8361161f565b9261093d60405194856115d2565b808452601f1961094c8261161f565b0160005b818110610a5357505060005b8181106109ae5760408051602080825287518183018190528189019383019160005b82811061098b5784840385f35b9091928260a08261099f6001948a516112f3565b0196019101949291909461097e565b610a4e9084600052602060028152604060002060018060a01b036109db6109d685888a611551565b611561565b1660005281526040600020604051916109f38361159a565b60018254926001600160601b0392838516865263ffffffff6060918187841c16908801526080958181881c16604089015260a01c169086015201541690820152610a3d8288611637565b52610a488187611637565b50611542565b61095c565b602090610a5e6115f4565b82828901015201610950565b3461044257604036600319011261044257610a8361127e565b6024359081151580920361044257610a99611366565b6001600160a01b0316908115610af05760207fa755b73ca9ab5908508aef0b2cde25ffc1caf1b79f4833e57436d517461ca6be918360005260068252604060002060ff1981541660ff8316179055604051908152a2005b60405162461bcd60e51b815260206004820152601b60248201527f496e76616c696420636f6f7264696e61746f72206164647265737300000000006044820152606490fd5b346104425760c03660031901126104425767ffffffffffffffff60243581811161044257610b679036906004016112c2565b909160443581811161044257610b819036906004016112c2565b919060643582811161044257610b9b9036906004016112c2565b91909260843581811161044257610bb69036906004016112c2565b94909160a43590811161044257610bd19036906004016112c2565b96909333600052600660205260ff60406000205416801561110e575b610bf690611392565b610bfe611521565b6002600154146110fc57600260015588156110c857818914806110bf575b806110b6575b806110ad575b15611070576004356000526003602052604060002060005b8a8110610c8b578a6040519081526001600160601b03421660208201527fab19893044184827ba83c537699c1adfe2bd41731886bffb842eafafd107ae68604060043592a260018055005b808080898f8f8f918f918f90868f8f928f8f92610cac858099948195611551565b610cb590611561565b9a610cca6001600160a01b038d1615156113de565b610cd5848c83611551565b610cde90611575565b63ffffffff166127101015610cf290611421565b60043560005260056020526040600020600160a01b600190038d166000526020528360406000205460ff16159b60043560005260026020528d604060002090600160a01b6001900316600052602052604060002093828d610d5482898c611551565b610d5d90611586565b8d8d848a54936001600160601b03851690610d779161146d565b6001600160601b031692836001600160601b03198616178c55610d9992611551565b610da290611575565b916001600160601b0319161760601c63ffffffff1690610dc19161149e565b875463ffffffff60601b191660609190911b63ffffffff60601b16178755610de892611551565b610df190611575565b845460801c63ffffffff1690610e069161149e565b845463ffffffff60801b191660809190911b63ffffffff60801b16178455610e2d92611551565b610e3690611575565b815463ffffffff60a01b191660a09190911b63ffffffff60a01b1617815560010180546bffffffffffffffffffffffff19166001600160601b034216179055610e7e92611551565b610e8790611586565b8c5490610e9d906001600160601b03831661146d565b6001600160601b0316906001600160601b0319161792838d55610ebf92611551565b610ec890611575565b9060601c63ffffffff1690610edc9161149e565b895463ffffffff60601b191660609190911b63ffffffff60601b16178955610f04918d611551565b610f0d90611575565b875460801c63ffffffff1690610f229161149e565b875463ffffffff60801b191660809190911b63ffffffff60801b16178755610fed575b8d8d8d610f53858c8c611551565b610f5c90611586565b94610f67918d611551565b610f7090611575565b94610f7b918d611551565b610f8490611575565b94610f8f918d611551565b610f9890611575565b6040516001600160a01b03909216946004359492938493610fbb93929185611336565b037f33595b97d9534ad768a7d3ee9a34e23be3c0c6dd3e52c78c96c3c6032798d99c91a3610fe890611542565b610c40565b6004356000526005602052604060002060018060a01b0382166000526020526040600020600160ff1982541617905560043560005260046020526110358160406000206114b6565b61106b61104b63ffffffff885460a01c1661150c565b875463ffffffff60a01b191660a09190911b63ffffffff60a01b16178755565b610f45565b60405162461bcd60e51b8152602060048201526015602482015274082e4e4c2f240d8cadccee8d040dad2e6dac2e8c6d605b1b6044820152606490fd5b50878914610c28565b50868914610c22565b50858914610c1c565b60405162461bcd60e51b815260206004820152600c60248201526b456d7074792061727261797360a01b6044820152606490fd5b604051633ee5aeb560e01b8152600490fd5b506000546001600160a01b03163314610bed565b34610442576040366003190112610442576024356004356000526004602052604060002080548210156104425760209161115b91611294565b905460405160039290921b1c6001600160a01b03168152f35b346104425760003660031901126104425761118d611366565b60005460ff8160a01c16156111d45760ff60a01b19166000556040513381527f5db9ee0a495bf2e6ff9c91a7834c1ba4fdd244a5e8aa4e537bd38aeae4b073aa90602090a1005b604051638dfc202b60e01b8152600490fd5b346104425760403660031901126104425760a090611202611268565b6004356000526002602052604060002090600180851b0316600052602052600160406000208054906001600160601b03928391015416918116835263ffffffff90818160601c166020850152818160801c166040850152841c1660608301526080820152f35b602435906001600160a01b038216820361044257565b600435906001600160a01b038216820361044257565b80548210156112ac5760005260206000200190600090565b634e487b7160e01b600052603260045260246000fd5b9181601f840112156104425782359167ffffffffffffffff8311610442576020808501948460051b01011161044257565b608090816001600160601b039182815116855263ffffffff8060208301511660208701528060408301511660408701526060820151166060860152015116910152565b6001600160601b03909116815263ffffffff91821660208201529181166040830152909116606082015260800190565b6000546001600160a01b0316330361137a57565b60405163118cdaa760e01b8152336004820152602490fd5b1561139957565b60405162461bcd60e51b815260206004820152601a60248201527f4e6f7420617574686f72697a656420636f6f7264696e61746f720000000000006044820152606490fd5b156113e557565b60405162461bcd60e51b8152602060048201526014602482015273496e76616c6964206e6f6465206164647265737360601b6044820152606490fd5b1561142857565b60405162461bcd60e51b815260206004820152601a60248201527f5175616c6974792073636f7265206f7574206f662072616e67650000000000006044820152606490fd5b9190916001600160601b038080941691160191821161148857565b634e487b7160e01b600052601160045260246000fd5b91909163ffffffff8080941691160191821161148857565b8054680100000000000000008110156114f6576114d891600182018155611294565b819291549060031b9160018060a01b03809116831b921b1916179055565b634e487b7160e01b600052604160045260246000fd5b63ffffffff8091169081146114885760010190565b60ff60005460a01c1661153057565b60405163d93c066560e01b8152600490fd5b60001981146114885760010190565b91908110156112ac5760051b0190565b356001600160a01b03811681036104425790565b3563ffffffff811681036104425790565b356001600160601b03811681036104425790565b60a0810190811067ffffffffffffffff8211176114f657604052565b6080810190811067ffffffffffffffff8211176114f657604052565b90601f8019910116810190811067ffffffffffffffff8211176114f657604052565b604051906116018261159a565b60006080838281528260208201528260408201528260608201520152565b67ffffffffffffffff81116114f65760051b60200190565b80518210156112ac5760209160051b010190565b9060009180835260036020526040918284209083519161166a836115b6565b54906001600160601b039384831680855263ffffffff8481809660601c166020880152818160801c168988015260a01c1660608601521561174757865260026020528486209060018060a01b0316865260205260808360018688208751946116d18661159a565b8154848116998a8852828260601c1660208901528282881c169088015260a01c1660608601520154169101526127109283810293818504149015171561173357511691821561171f57500490565b634e487b7160e01b81526012600452602490fd5b634e487b7160e01b84526011600452602484fd5b5050505050509056fea2646970667358221220dfb99e7ed9d7fbd5fa7c93214736c0d2928db8dd5d34178f3af0b0dacf07c1f064736f6c63430008140033",
  "linkReferences": {},
  "deployedLinkReferences": {}
}