{
  "_format": "hh-sol-artifact-1",
  "contractName": "TrainingRegistry",
  "sourceName": "contracts/TrainingRegistry.sol",
  "abi": [
    {
      "inputs": [
        {
          "internalType": "address",
          "name": "initialOwner",
          "type": "address"
        }
      ],
      "stateMutability": "nonpayable",
      "type": "constructor"
    },
    {
      "inputs": [],
      "name": "EnforcedPause",
      "type": "error"
    },
    {
      "inputs": [],
      "name": "ExpectedPause",
      "type": "error"
    },
    {
      "inputs": [
        {
          "internalType": "address",
          "name": "owner",
          "type": "address"
        }
      ],
      "name": "OwnableInvalidOwner",
      "type": "error"
    },
    {
      "inputs": [
        {
          "internalType": "address",
          "name": "account",
          "type": "address"
        }
      ],
      "name": "OwnableUnauthorizedAccount",
      "type": "error"
    },
    {
      "inputs": [],
      "name": "ReentrancyGuardReentrantCall",
      "type": "error"
    },
    {
      "anonymous": false,
      "inputs": [
        {
          "indexed": true,
          "internalType": "address",
          "name": "coordinator",
          "type": "address"
        },
        {
          "indexed": false,
          "internalType": "bool",
          "name": "status",
          "type": "bool"
        }
      ],
      "name": "CoordinatorAuthorized",
      "type": "event"
    },
    {
      "anonymous": false,
      "inputs": [
        {
          "indexed": true,
          "internalType": "bytes32",
          "name": "sessionId",
          "type": "bytes32"
        },
        {
          "indexed": true,
          "internalType": "address",
          "name": "nodeAddress",
          "type": "address"
        },
        {
          "indexed": false,
          "internalType": "uint96",
          "name": "timestamp",
          "type": "uint96"
        }
      ],
      "name": "NodeDeactivated",
      "type": "event"
    },
    {
      "anonymous": false,
      "inputs": [
        {
          "indexed": true,
          "internalType": "bytes32",
          "name": "sessionId",
          "type": "bytes32"
        },
        {
          "indexed": true,
          "internalType": "address",
          "name": "nodeAddress",
          "type": "address"
        },
        {
          "indexed": false,
          "internalType": "string",
          "name": "nodeId",
          "type": "string"
        },
        {
          "indexed": false,
          "internalType": "uint96",
          "name": "timestamp",
          "type": "uint96"
        }
      ],
      "name": "NodeRegistered",
      "type": "event"
    },
    {
      "anonymous": false,
      "inputs": [
        {
          "indexed": true,
          "internalType": "address",
          "name": "previousOwner",
          "type": "address"
        },
        {
          "indexed": true,
          "internalType": "address",
          "name": "newOwner",
          "type": "address"
        }
      ],
      "name": "OwnershipTransferred",
      "type": "event"
    },
    {
      "anonymous": false,
      "inputs": [
        {
          "indexed": false,
          "internalType": "address",
          "name": "account",
          "type": "address"
        }
      ],
      "name": "Paused",
      "type": "event"
    },
    {
      "anonymous": false,
      "inputs": [
        {
          "indexed": true,
          "internalType": "bytes32",
          "name": "sessionId",
          "type": "bytes32"
        },
        {
          "indexed": false,
          "internalType": "uint96",
          "name": "cancelledAt",
          "type": "uint96"
        }
      ],
      "name": "SessionCancelled",
      "type": "event"
    },
    {
      "anonymous": false,
      "inputs": [
        {
          "indexed": true,
          "internalType": "bytes32",
          "name": "sessionId",
          "type": "bytes32"
        },
        {
          "indexed": false,
          "internalType": "uint96",
          "name": "endTime",
          "type": "uint96"
        },
        {
          "indexed": false,
          "internalType": "uint32",
          "name": "nodeCount",
          "type": "uint32"
        }
      ],
      "name": "SessionCompleted",
      "type": "event"
    },
    {
      "anonymous": false,
      "inputs": [
        {
          "indexed": true,
          "internalType": "bytes32",
          "name": "sessionId",
          "type": "bytes32"
        },
        {
          "indexed": true,
          "internalType": "address",
          "name": "coordinator",
          "type": "address"
        },
        {
          "indexed": false,
          "internalType": "bytes32",
          "name": "modelHash",
          "type": "bytes32"
        },
        {
          "indexed": false,
          "internalType": "uint96",
          "name": "startTime",
          "type": "uint96"
        }
      ],
      "name": "SessionCreated",
      "type": "event"
    },
    {
      "anonymous": false,
      "inputs": [
        {
          "indexed": false,
          "internalType": "address",
          "name": "account",
          "type": "address"
        }
      ],
      "name": "Unpaused",
      "type": "event"
    },
    {
      "inputs": [
        {
          "internalType": "uint256",
          "name": "",
          "type": "uint256"
        }
      ],
      "name": "allSessions",
      "outputs": [
        {
          "internalType": "bytes32",
          "name": "",
          "type": "bytes32"
        }
      ],
      "stateMutability": "view",
      "type": "function"
    },
    {
      "inputs": [
        {
          "internalType": "address",
          "name": "",
          "type": "address"
        }
      ],
      "name": "authorizedCoordinators",
      "outputs": [
        {
          "internalType": "bool",
          "name": "",
          "type": "bool"
        }
      ],
      "stateMutability": "view",
      "type": "function"
    },
    {
      "inputs": [
        {
          "internalType": "bytes32",
          "name": "_sessionId",
          "type": "bytes32"
        }
      ],
      "name": "cancelSession",
      "outputs": [],
      "stateMutability": "nonpayable",
      "type": "function"
    },
    {
      "inputs": [
        {
          "internalType": "bytes32",
          "name": "_sessionId",
          "type": "bytes32"
        }
      ],
      "name": "completeSession",
      "outputs": [],
      "stateMutability": "nonpayable",
      "type": "function"
    },
    {
      "inputs": [
        {
          "internalType": "bytes32",
          "name": "_sessionId",
          "type": "bytes32"
        },
        {
          "internalType": "bytes32",
          "name": "_modelHash",
          "type": "bytes32"
        }
      ],
      "name": "createSession",
      "outputs": [],
      "stateMutability": "nonpayable",
      "type": "function"
    },
    {
      "inputs": [
        {
          "internalType": "bytes32",
          "name": "_sessionId",
          "type": "bytes32"
        },
        {
          "internalType": "address",
          "name": "_nodeAddress",
          "type": "address"
        }
      ],
      "name": "deactivateNode",
      "outputs": [],
      "stateMutability": "nonpayable",
      "type": "function"
    },
    {
      "inputs": [
        {
          "internalType": "bytes32",
          "name": "_sessionId",
          "type": "bytes32"
        },
        {
          "internalType": "address",
          "name": "_nodeAddress",
          "type": "address"
        }
      ],
      "name": "getNodeRegistration",
      "outputs": [
        {
          "components": [
            {
              "internalType": "address",
              "name": "nodeAddress",
              "type": "address"
            },
            {
              "internalType": "string",
              "name": "nodeId",
              "type": "string"
            },
            {
              "internalType": "uint96",
              "name": "registeredAt",
              "type": "uint96"
            },
            {
              "internalType": "bool",
              "name": "isActive",
              "type": "bool"
            }
          ],
          "internalType": "struct TrainingRegistry.NodeRegistration",
          "name": "",
          "type": "tuple"
        }
      ],
      "stateMutability": "view",
      "type": "function"
    },
    {
      "inputs": [
        {
          "internalType": "bytes32",
          "name": "_sessionId",
          "type": "bytes32"
        }
      ],
      "name": "getSession",
      "outputs": [
        {
          "components": [
            {
              "internalType": "bytes32",
              "name": "sessionId",
              "type": "bytes32"
            },
            {
              "internalType": "uint96",
              "name": "startTime",
              "type": "uint96"
            },
            {
              "internalType": "uint96",
              "name": "endTime",
              "type": "uint96"
            },
            {
              "internalType": "bytes32",
              "name": "modelHash",
              "type": "bytes32"
            },
            {
              "internalType": "enum TrainingRegistry.SessionStatus",
              "name": "status",
              "type": "uint8"
            },
            {
              "internalType": "uint32",
              "name": "nodeCount",
              "type": "uint32"
            },
            {
              "internalType": "address",
              "name": "coordinator",
              "type": "address"
            }
          ],
          "internalType": "struct TrainingRegistry.TrainingSession",
          "name": "",
          "type": "tuple"
        }
      ],
      "stateMutability": "view",
      "type": "function"
    },
    {
      "inputs": [
        {
          "internalType": "bytes32",
          "name": "_sessionId",
          "type": "bytes32"
        }
      ],
      "name": "getSessionNodes",
      "outputs": [
        {
          "internalType": "address[]",
          "name": "",
          "type": "address[]"
        }
      ],
      "stateMutability": "view",
      "type": "function"
    },
    {
      "inputs": [],
      "name": "getTotalSessions",
      "outputs": [
        {
          "internalType": "uint256",
          "name": "",
          "type": "uint256"
        }
      ],
      "stateMutability": "view",
      "type": "function"
    },
    {
      "inputs": [],
      "name": "owner",
      "outputs": [
        {
          "internalType": "address",
          "name": "",
          "type": "address"
        }
      ],
      "stateMutability": "view",
      "type": "function"
    },
    {
      "inputs": [],
      "name": "pause",
      "outputs": [],
      "stateMutability": "nonpayable",
      "type": "function"
    },
    {
      "inputs": [],
      "name": "paused",
      "outputs": [
        {
          "internalType": "bool",
          "name": "",
          "type": "bool"
        }
      ],
      "stateMutability": "view",
      "type": "function"
    },
    {
      "inputs": [
        {
          "internalType": "bytes32",
          "name": "_sessionId",
          "type": "bytes32"
        },
        {
          "internalType": "address",
          "name": "_nodeAddress",
          "type": "address"
        },
        {
          "internalType": "string",
          "name": "_nodeId",
          "type": "string"
        }
      ],
      "name": "registerNode",
      "outputs": [],
      "stateMutability": "nonpayable",
      "type": "function"
    },
    {
      "inputs": [
        {
          "internalType": "bytes32",
          "name": "_sessionId",
          "type": "bytes32"
        },
        {
          "internalType": "address[]",
          "name": "_nodeAddresses",
          "type": "address[]"
        },
        {
          "internalType": "string[]",
          "name": "_nodeIds",
          "type": "string[]"
        }
      ],
      "name": "registerNodesBatch",
      "outputs": [],
      "stateMutability": "nonpayable",
      "type": "function"
    },
    {
      "inputs": [],
      "name": "renounceOwnership",
      "outputs": [],
      "stateMutability": "nonpayable",
      "type": "function"
    },
    {
      "inputs": [
        {
          "internalType": "bytes32",
          "name": "",
          "type": "bytes32"
        },
        {
          "internalType": "uint256",
          "name": "",
          "type": "uint256"
        }
      ],
      "name": "sessionNodeList",
      "outputs": [
        {
          "internalType": "address",
          "name": "",
          "type": "address"
        }
      ],
      "stateMutability": "view",
      "type": "function"
    },
    {
      "inputs": [
        {
          "internalType": "bytes32",
          "name": "",
          "type": "bytes32"
        },
        {
          "internalType": "address",
          "name": "",
          "type": "address"
        }
      ],
      "name": "sessionNodes",
      "outputs": [
        {
          "internalType": "address",
          "name": "nodeAddress",
          "type": "address"
        },
        {
          "internalType": "string",
          "name": "nodeId",
          "type": "string"
        },
        {
          "internalType": "uint96",
          "name": "registeredAt",
          "type": "uint96"
        },
        {
          "internalType": "bool",
          "name": "isActive",
          "type": "bool"
        }
      ],
      "stateMutability": "view",
      "type": "function"
    },
    {
      "inputs": [
        {
          "internalType": "bytes32",
          "name": "",
          "type": "bytes32"
        }
      ],
      "name": "sessions",
      "outputs": [
        {
          "internalType": "bytes32",
          "name": "sessionId",
          "type": "bytes32"
        },
        {
          "internalType": "uint96",
          "name": "startTime",
          "type": "uint96"
        },
        {
          "internalType": "uint96",
          "name": "endTime",
          "type": "uint96"
        },
        {
          "internalType": "bytes32",
          "name": "modelHash",
          "type": "bytes32"
        },
        {
          "internalType": "enum TrainingRegistry.SessionStatus",
          "name": "status",
          "type": "uint8"
        },
        {
          "internalType": "uint32",
          "name": "nodeCount",
          "type": "uint32"
        },
        {
          "internalType": "address",
          "name": "coordinator",
          "type": "address"
        }
      ],
      "stateMutability": "view",
      "type": "function"
    },
    {
      "inputs": [
        {
          "internalType": "address",
          "name": "_coordinator",
          "type": "address"
        },
        {
          "internalType": "bool",
          "name": "_status",
          "type": "bool"
        }
      ],
      "name": "setCoordinatorAuthorization",
      "outputs": [],
      "stateMutability": "nonpayable",
      "type": "function"
    },
    {
      "inputs": [
        {
          "internalType": "address",
          "name": "newOwner",
          "type": "address"
        }
      ],
      "name": "transferOwnership",
      "outputs": [],
      "stateMutability": "nonpayable",
      "type": "function"
    },
    {
      "inputs": [],
      "name": "unpause",
      "outputs": [],
      "stateMutability": "nonpayable",
      "type": "function"
    }
  ],
  "bytecode": "0x6080346100d657601f611d3438819003918201601f19168301916001600160401b038311848410176100db578084926020946040528339810103126100d657516001600160a01b0390818116908190036100d65780156100bd57600080546001600160a01b03198116831782556040805194909391167f8be0079c531659141344cd1fd0a4f28419497f9722a3daafe3b4186f6b6457e08380a360018055338152600660205220600160ff19825416179055611c4290816100f28239f35b604051631e4fbdf760e01b815260006004820152602490fd5b600080fd5b634e487b7160e01b600052604160045260246000fdfe6080604052600436101561001257600080fd5b60003560e01c80631d764ed5146112645780632aeafccd1461113057806339b240bd1461101f5780633f4ba83a14610fad578063410ece4e14610ef55780634d21398214610de2578063535ef13b14610cfd5780635414c64914610c325780635c975abb14610c0c5780636073e4b714610bee578063674e1d4514610baf578063715018a614610b5657806376592bee146109455780637dbd2832146108b6578063821ca6971461047c5780638456cb591461041a5780638a060754146102de5780638da5cb5b146102b5578063af453f9514610263578063c3f3e9b7146101d3578063d9cc134c1461019c5763f2fde38b1461010e57600080fd5b34610197576020366003190112610197576101276117af565b61012f61199b565b6001600160a01b0390811690811561017e57600054826001600160601b0360a01b821617600055167f8be0079c531659141344cd1fd0a4f28419497f9722a3daafe3b4186f6b6457e0600080a3005b604051631e4fbdf760e01b815260006004820152602490fd5b600080fd5b3461019757602036600319011261019757600435600554811015610197576101c5602091611812565b90546040519160031b1c8152f35b34610197576040366003190112610197576101ec611799565b6004356000526003602052604060002060018060a01b038092166000526020526040600020908154166002610223600184016118f5565b92015460ff61024460405194859485526080602086015260808501906117d2565b916001600160601b038116604085015260601c16151560608301520390f35b34610197576040366003190112610197576024356004356000526004602052604060002080548210156101975760209161029c91611849565b905460405160039290921b1c6001600160a01b03168152f35b34610197576000366003190112610197576000546040516001600160a01b039091168152602090f35b34610197576020806003193601126101975760043590336000526006815260ff604060002054168015610406575b610315906119c7565b81600052600281526001600160601b0361033a81600160406000200154161515611a34565b826000526002825260ff600360406000200154169060038210156103f0577f6ce9facd3559bd7c93877063d63e12b0d69a2c7888618b225dbf6dd83be395949263ffffffff60019261038e60409515611a79565b60008781526002845285902060038101805460ff191686178155940180546bffffffffffffffffffffffff60601b191642909216606081901b6bffffffffffffffffffffffff60601b16929092179055925460081c16908351928352820152a2005b634e487b7160e01b600052602160045260246000fd5b506000546001600160a01b0316331461030c565b346101975760003660031901126101975761043361199b565b61043b611a13565b6000805460ff60a01b1916600160a01b1790556040513381527f62e78cea01bee320cd4e420270b5ea74000d11b0c9f74754ebdbfc544b05a25890602090a1005b3461019757606036600319011261019757610495611799565b60443567ffffffffffffffff811161019757366023820112156101975767ffffffffffffffff816004013511610197573660248260040135830101116101975733600052600660205260ff6040600020541680156108a2575b6104f7906119c7565b600435600052600260205261051e6001600160601b03600160406000200154161515611a34565b600435600052600260205260ff6003604060002001541660038110156103f0576105489015611a79565b610550611a13565b6105646001600160a01b0383161515611aba565b61057381600401351515611afd565b6004356000526003602052604060002060018060a01b03831660005260205260ff60026040600020015460601c1661085d576040516105b18161189b565b6001600160a01b03831681526105cf36600484013560248501611b3b565b6020828101918252426001600160601b0316604080850191909152600160608501526004356000908152600383528181206001600160a01b038881168352935220835181546001600160a01b0319169216919091178155905180519067ffffffffffffffff8211610847576106476001840154611861565b601f8111610800575b50602090601f83116001146107875792826060936002936106ca979660009261077c575b50508160011b916000199060031b1c19161760018201555b60408401519101805492909301516cffffffffffffffffffffffffff199092166001600160601b03919091161790151560601b60ff60601b16179055565b60043560005260046020526106e3826040600020611b82565b6004356000526002602052610727600360406000200161070c63ffffffff825460081c16611bbd565b64ffffffff0082549160081b169064ffffffff001916179055565b7f87a4055667778b9ceaf7a004e7a548a62f0ea37007956ddf2b3dceb3fc917ef96040519260018060a01b03169280610777600435946001600160601b0342169060248160040135910184611bd2565b0390a3005b015190508980610674565b906001840160005260206000209160005b601f19851681106107e85750836002936106ca979693600193606097601f198116106107cf575b505050811b01600182015561068c565b015160001960f88460031b161c191690558980806107bf565b91926020600181928685015181550194019201610798565b600184016000526020600020601f840160051c810160208510610840575b601f830160051c82018110610834575050610650565b6000815560010161081e565b508061081e565b634e487b7160e01b600052604160045260246000fd5b60405162461bcd60e51b815260206004820152601760248201527f4e6f646520616c726561647920726567697374657265640000000000000000006044820152606490fd5b506000546001600160a01b031633146104ee565b3461019757602036600319011261019757600435600052600260205260e0604060002080549060018101549060036002820154910154916040519384526001600160601b0390818116602086015260601c16604084015260608301526109226080830160ff83166117c5565b600881901c63ffffffff1660a083015260281c6001600160a01b031660c0820152f35b3461019757604036600319011261019757600435602435903360005260206006815260ff604060002054168015610b42575b610980906119c7565b610988611a13565b81600052600281526001600160601b03908160016040600020015416610b0557814216916040516109b8816118b7565b84815282810191848352600360408301926000845260608101898152610a4160808301966000885260a08401956000875260c08501973389528c60005260028b5260406000209551865581600187019351166001600160601b031984541617835551168154906001600160601b0360601b9060601b16906001600160601b0360601b1916179055565b51600282015501925160038110156103f0578354915164ffffffffff1990921660ff9091161760089190911b64ffffffff001617825551815465010000000000600160c81b03191660289190911b65010000000000600160c81b0316179055600554600160401b81101561084757806001610abf9201600555611812565b81549060031b9085821b91600019901b19161790556040519384528301527f78b1c5cda95b0467176618a3ee95da5b5a84abd9cce45109a81d465b76b9dbd460403393a3005b6064906040519062461bcd60e51b82526004820152601660248201527553657373696f6e20616c72656164792065786973747360501b6044820152fd5b506000546001600160a01b03163314610977565b3461019757600036600319011261019757610b6f61199b565b600080546001600160a01b0319811682556001600160a01b03167f8be0079c531659141344cd1fd0a4f28419497f9722a3daafe3b4186f6b6457e08280a3005b34610197576020366003190112610197576001600160a01b03610bd06117af565b166000526006602052602060ff604060002054166040519015158152f35b34610197576000366003190112610197576020600554604051908152f35b3461019757600036600319011261019757602060ff60005460a01c166040519015158152f35b3461019757604036600319011261019757610c4b6117af565b6024359081151580920361019757610c6161199b565b6001600160a01b0316908115610cb85760207fa755b73ca9ab5908508aef0b2cde25ffc1caf1b79f4833e57436d517461ca6be918360005260068252604060002060ff1981541660ff8316179055604051908152a2005b60405162461bcd60e51b815260206004820152601b60248201527f496e76616c696420636f6f7264696e61746f72206164647265737300000000006044820152606490fd5b3461019757604036600319011261019757610d16611799565b604051610d228161189b565b60008152600060606020928184820152826040820152015260043560005260038152604060002060018060a01b038093166000528152604060002060405191610d6a8361189b565b8382541683526002610d7e600184016118f5565b92828501938452015490610dce60408501936001600160601b0392838516865260ff606088019560601c1615158552604051978897828952511690870152516080604087015260a08601906117d2565b925116606084015251151560808301520390f35b34610197576020806003193601126101975760043590336000526006815260ff604060002054168015610ee1575b610e19906119c7565b81600052600281526001600160601b0390610e3f82600160406000200154161515611a34565b826000526002815260ff600360406000200154169160038310156103f057610ed8600191610e8e7f4ada0ad1918d982abd72b58925b80347571c19a9d8cd7b2f86c28c7b9f06b55a9515611a79565b856000526002845260406000209060038201600260ff19825416179055421692839101908154906001600160601b0360601b9060601b16906001600160601b0360601b1916179055565b604051908152a2005b506000546001600160a01b03163314610e10565b34610197576020806003193601126101975760043560005260048152604060002060405190818382549182815201908192600052846000209060005b86828210610f90578686610f47828803836118d3565b604051928392818401908285525180915260408401929160005b828110610f7057505050500390f35b83516001600160a01b031685528695509381019392810192600101610f61565b83546001600160a01b031685529093019260019283019201610f31565b3461019757600036600319011261019757610fc661199b565b60005460ff8160a01c161561100d5760ff60a01b19166000556040513381527f5db9ee0a495bf2e6ff9c91a7834c1ba4fdd244a5e8aa4e537bd38aeae4b073aa90602090a1005b604051638dfc202b60e01b8152600490fd5b3461019757602036600319011261019757600060c0604051611040816118b7565b8281528260208201528260408201528260608201528260808201528260a082015201526004356000526002602052604060002060405161107f816118b7565b815481526001820154602082016001600160601b0391828116825282604085019160601c16815260036002860154956060860196875201549260ff84166080860160038210156103f05760e09761112092825260a088019363ffffffff95868960081c1686528160c08b019860018060a01b03809b60281c168a526040519b518c52511660208b0152511660408901525160608801525160808701906117c5565b511660a0840152511660c0820152f35b346101975760403660031901126101975760043561114c611799565b903360005260206006815260ff604060002054168015611250575b611170906119c7565b81600052600281526001600160601b0361119581600160406000200154161515611a34565b60008381526003835260408082206001600160a01b0390961680835295845290206002015460601c60ff161561121957907f6e10c3cc2633d30ec458e3f871bc7b2d36501151e91e16d82b868a81c6c019439183600052600382526040600020856000528252600260406000200160ff60601b1981541690556040519042168152a3005b60405162461bcd60e51b815260048101839052600f60248201526e4e6f6465206e6f742061637469766560881b6044820152606490fd5b506000546001600160a01b03163314611167565b346101975760603660031901126101975760243567ffffffffffffffff811161019757611295903690600401611768565b9060443567ffffffffffffffff8111610197576112b6903690600401611768565b33600052600660205260ff604060002054168015611754575b6112d8906119c7565b60043560005260026020526112ff6001600160601b03600160406000200154161515611a34565b600435600052600260205260ff6003604060002001541660038110156103f0576113299015611a79565b611331611a13565b8084036117175783156116e35760005b84811061134a57005b600581901b8401356001600160a01b038116900361019757818110156116cd578060051b830135601e198436030181121561019757830167ffffffffffffffff81351161019757803536036020820113610197576113b9600583901b8601356001600160a01b03161515611aba565b6113c581351515611afd565b6004356000526003602052604060002060018060a01b038360051b8701351660005260205260ff60026040600020015460601c1615611427575b50600019811461141157600101611341565b634e487b7160e01b600052601160045260246000fd5b6040516114338161189b565b600583901b8601356001600160a01b0316815261145536833560208501611b3b565b60208201526001600160601b0342166040820152600160608201526004356000526003602052604060002060018060a01b038460051b88013516600052602052604060002060018060a01b038251166001600160601b0360a01b825416178155602082015180519067ffffffffffffffff8211610847576114d96001840154611861565b601f8111611686575b50602090601f831160011461160e57928260609360029361155a97966000926116035750508160011b916000199060031b1c191617600182015560408401519101805492909301516cffffffffffffffffffffffffff199092166001600160601b03919091161790151560601b60ff60601b16179055565b60043560005260046020526115798260051b8601356040600020611b82565b60043560005260026020526115a2600360406000200161070c63ffffffff825460081c16611bbd565b604051600583901b8601356001600160a01b031691600435917f87a4055667778b9ceaf7a004e7a548a62f0ea37007956ddf2b3dceb3fc917ef99181906115fa90426001600160601b03169080359060200184611bd2565b0390a3856113ff565b015190508d80610674565b906001840160005260206000209160005b601f198516811061166e57508360029361155a979693600193606097601f1981161061165557505050811b01600182015561068c565b015160001960f88460031b161c191690558d80806107bf565b9192602060018192868501518155019401920161161f565b600184016000526020600020601f840160051c8101602085106116c6575b601f830160051c820181106116ba5750506114e2565b600081556001016116a4565b50806116a4565b634e487b7160e01b600052603260045260246000fd5b60405162461bcd60e51b815260206004820152600c60248201526b456d7074792061727261797360a01b6044820152606490fd5b60405162461bcd60e51b8152602060048201526015602482015274082e4e4c2f240d8cadccee8d040dad2e6dac2e8c6d605b1b6044820152606490fd5b506000546001600160a01b031633146112cf565b9181601f840112156101975782359167ffffffffffffffff8311610197576020808501948460051b01011161019757565b602435906001600160a01b038216820361019757565b600435906001600160a01b038216820361019757565b9060038210156103f05752565b919082519283825260005b8481106117fe575050826000602080949584010152601f8019910116010190565b6020818301810151848301820152016117dd565b6005548110156116cd5760056000527f036b6384b5eca791c62761152d0c79bb0604c104a5fb6f4eb0703f3154bb3db00190600090565b80548210156116cd5760005260206000200190600090565b90600182811c92168015611891575b602083101461187b57565b634e487b7160e01b600052602260045260246000fd5b91607f1691611870565b6080810190811067ffffffffffffffff82111761084757604052565b60e0810190811067ffffffffffffffff82111761084757604052565b90601f8019910116810190811067ffffffffffffffff82111761084757604052565b906040519182600082549261190984611861565b9081845260019485811690816000146119785750600114611935575b5050611933925003836118d3565b565b9093915060005260209081600020936000915b81831061196057505061193393508201013880611925565b85548884018501529485019487945091830191611948565b91505061193394506020925060ff191682840152151560051b8201013880611925565b6000546001600160a01b031633036119af57565b60405163118cdaa760e01b8152336004820152602490fd5b156119ce57565b60405162461bcd60e51b815260206004820152601a60248201527f4e6f7420617574686f72697a656420636f6f7264696e61746f720000000000006044820152606490fd5b60ff60005460a01c16611a2257565b60405163d93c066560e01b8152600490fd5b15611a3b57565b60405162461bcd60e51b815260206004820152601660248201527514d95cdcda5bdb88191bd95cc81b9bdd08195e1a5cdd60521b6044820152606490fd5b15611a8057565b60405162461bcd60e51b815260206004820152601260248201527153657373696f6e206e6f742061637469766560701b6044820152606490fd5b15611ac157565b60405162461bcd60e51b8152602060048201526014602482015273496e76616c6964206e6f6465206164647265737360601b6044820152606490fd5b15611b0457565b60405162461bcd60e51b815260206004820152600f60248201526e125b9d985b1a59081b9bd919481251608a1b6044820152606490fd5b92919267ffffffffffffffff82116108475760405191611b65601f8201601f1916602001846118d3565b829481845281830111610197578281602093846000960137010152565b8054600160401b81101561084757611b9f91600182018155611849565b819291549060031b9160018060a01b03809116831b921b1916179055565b63ffffffff8091169081146114115760010190565b916060816001600160601b039260209497969760408752816040880152838701376000828287010152601f8019910116840101941691015256fea26469706673582212204dd9b28d502cf7091e73ebf72891f65904efb81595dffc3e967a53b5c0e156fa64736f6c63430008140033",
  "linkReferences": {},
  "deployedLinkReferences": {}
}